:020000040800F2
:100000000020002095280008E1280008E1280008C9
:1000100000000000000000000000000000000000E0
:10002000000000000000000000000000E1280008BF
:100030000000000000000000E1280008B9A7000847
:10004000E1280008E1280008E1280008E12800086C
:10005000E1280008E1280008E1280008E12800085C
:10006000E1280008E1280008E1280008E12800084C
:10007000E1280008E1280008E1280008E12800083C
:10008000E1280008D1A7000800000000E1280008CE
:10009000E1280008E1280008E1280008E12800081C
:1000A000E1280008E1280008E1280008E12800080C
:1000B000E128000800000000E1280008000000001E
:0400C0005FF808F1EC
:1000C80008B5064B064803331B1A062B00D808BD93
:1000D800044B002BFBD09847F9E7C04644080020A2
:1000E800440800200000000008B50748074B1B1A09
:1000F8009B10DA0FD318591000D108BD044A002A02
:10010800FBD09047F9E7C046440800204408002087
:100118000000000010B5074C2378002B09D1FFF729
:10012800CFFF054B002B02D0044800E000BF01239D
:10013800237010BD44080020000000009CBD00088A
:1001480008B5094B002B03D00848094900E000BF57
:1001580008480368002B03D0074B002B00D09847B2
:10016800FFF7C2FF08BDC046000000009CBD0008A4
:10017800480800204408002000000000002934D06E
:100188000123002210B488422CD301242407A14261
:1001980004D2814202D209011B01F8E7E400A1421E
:1001A80004D2814202D249005B00F8E7884201D3B9
:1001B800401A1A434C08A04202D3001B5C08224391
:1001C8008C08A04202D3001B9C082243CC08A04202
:1001D80002D3001BDC082243002803D01B0901D0EE
:1001E8000909E3E7101C10BC7047002801D0002063
:1001F800C04307B4024802A14018029003BDC0469C
:10020800D90000000029F0D003B5FFF7B9FF0EBCF4
:100218004243891A1847C046002941D010B4041C2B
:100228004C40A44601230022002900D54942002859
:1002380000D5404288422CD301242407A14204D28D
:10024800814202D209011B01F8E7E400A14204D26D
:10025800814202D249005B00F8E7884201D3401A84
:100268001A434C08A04202D3001B5C0822438C08A6
:10027800A04202D3001B9C082243CC08A04202D310
:10028800001BDC082243002803D01B0901D0090900
:10029800E3E7101C6446002C00D5404210BC7047B0
:1002A800002806D003DB0020C043400801E080207E
:1002B800000607B4024802A14018029003BDC046D8
:1002C800190000000029EBD003B5FFF7A7FF0EBC0B
:1002D8004243891A1847C0467047C0468446101CD6
:1002E80062468C46191C634600E0C0461FB500F004
:1002F80063FF002801D40021C8421FBD10B500F0DB
:1003080097FE4042013010BD10B500F055FF00289F
:1003180001DB002010BD012010BDC04610B500F063
:100328004BFF002801DD002010BD012010BDC04694
:1003380010B500F0C7FE002801DC002010BD012028
:1003480010BDC04610B500F0BDFE002801DA00203F
:1003580010BD012010BDC04638B50E4B0C4A041C18
:100368000D1CFFF7EFFF002804D1201C291C01F009
:100378006BFD38BD074B064A201C291C01F02EFADC
:1003880001F062FD80231B06C018F2E7C046C04694
:10039800000000000000E041F8B55F4656464446BC
:1003A8004D46F0B40C034D00CE0F610A440F2143B3
:1003B800C400180380465800400D8246D80F844672
:1003C8004046400A530F0343D0006D0D371C834647
:1003D8005246664500D1A4E0AF1A002F00DC09E1BF
:1003E800002A3BD1184300D0EAE0630700D187E038
:1003F8000F232340042B00D182E0221DA242A441F6
:100408006442802309191B040B40371C141C002B61
:1004180000D17CE0CE4B01359D4200D105E1CD4BAA
:10042800E40819404807490204430B0B0020002147
:100438001B031A0B0B0D6D051B0513436A08C64DEC
:10044800FF071D4015436D006D08291C3943201C0A
:100458003CBC90469946A246AB46F8BDBC4885428E
:10046800C3D0802000040343382F00DDF0E01F2FA5
:1004780000DD24E12020C01B1A1C8146824058461A
:10048800F8400243944658464A469040421E9041DE
:10049800FB40624602431F1CA21A9442A4416442D4
:1004A800C91B091B141C0B029FD549024F0A002FB8
:1004B80000D1C8E0381C01F06DFD021C083A1F2A63
:1004C80000DDB5E02821091A201C9740C8400743E1
:1004D8009440954200DDB2E0551B691C1F2900DDE0
:1004E800DCE01F22551B3B1C221CAB40CA40AC4021
:1004F800651EAC411343CF401C43391C002574E7EB
:1005080080231B040B40371C002B00D082E7904B44
:100518004807E4080443C9089D4248D009030B0B67
:1005280084E7AA1A9446002A00DC98E0504600287E
:1005380052D08748854200D157E780200004034302
:100548006246382A00DDFCE01F2A00DD4AE120224D
:100558006046101A1A1C82408246914658466246E6
:10056800D0404A4602439046584652469040421E62
:100578009041424602436046C3401219A242A44138
:10058800644259180919141C080200D42DE7704B4D
:1005980001359D4200D122E16E4B600819400123CC
:1005A80023401C1C0443CB071C4349081DE7231C9C
:1005B8000B433AD080231B030B431B031B0B35E76C
:1005C800013F002F65D15846221A9442A441644243
:1005D800C91A091B141C66E75846184300D104E7DA
:1005E8000122524294446046002800D0C5E0584693
:1005F8000219C3E7002F73D1681C4005400D01287C
:1006080000DCDEE05A46A21A9442BF41C81A7F4273
:10061800C71B380200D489E05A46141BA3459241EF
:10062800591A52428F1A664641E700230024FDE614
:10063800271C283887400024954200DC4CE74549B0
:10064800AD1A3940D1E6201C01F0A4FC203034E773
:100658005A461A43531E9A41D2B200271CE7002A71
:1006680000D0DCE0681C4205520D012A00DC8DE058
:10067800374DA84200D1F3E05D462A19A242A441B1
:10068800644259180919CC07520814434908051C33
:10069800ABE62F48854200D0E6E6A6E62B1C1F3BBA
:1006A8003A1CDA40131C20296CD03F22551BAF405E
:1006B8003C43601E84411C430021002595E6381CFC
:1006C80020381A1CC240101C202F5DD04022D71B96
:1006D800BB405A461A43531E9A4102430027DBE6A1
:1006E800002D3BD01A4DAA4500D193E080252D045A
:1006F8007F422943382F00DDACE01F2F00DD29E1C0
:100708002025ED1B081C261CA840FE40AC400643D3
:10071800651EAC413443F9405D462C1BA34592410C
:100728005B1A5242991A55466646BCE6131C3B436F
:10073800141C002B00D0BAE6002700210024002555
:10074800E5E65A461A43531E9A41D2B2002314E7EB
:10075800FF070000FFFF7FFFFFFF0F800D1C2543F1
:1007680058D0FF43002F51D1041BA3459241591A79
:100778005242891A5546664695E69648854200D003
:10078800DEE632E6002793E70023A2E7081C2043B1
:10079800002D00D0C4E0002800D1F7E058461843E7
:1007A80000D122E658460219A242A44164425918CF
:1007B8000919141C0A0200D417E6874B01251940B1
:1007C80013E6081C2043002D39D1002871D1594661
:1007D800194303D0191C5C46664606E6002700212B
:1007E800002494E6604620381A1CC24060469146B0
:1007F800202800D1ACE04022121A93405A461A43EE
:10080800531E9A414B461A430023B6E6714DAA453A
:1008180000D06FE7191C5C4655466646E5E5002D95
:1008280022D10D1C254377D0D543002D71D15C44CE
:100838005C4592415918524289185546A4E6002849
:100848004DD15946194300D194E0191C5C466646BF
:10085800604DCAE50C43611E8C41E4B200215BE7A0
:10086800051C0021002452E65A4DAA4554D0554291
:10087800802210040143382D00DD81E01F2D00DDAA
:1008880092E02022501B0A1C84468240201CE8402B
:100898000243904662469440601E84414246144397
:1008A800E9405C445C459241CB1852429918554640
:1008B8006AE65846184300D197E55846271ABC42BD
:1008C8009241C81A5242801A020266D55846041B41
:1008D800A3459241591A5242891A664685E55846F7
:1008E800184333D04807E40804438020C9080003AC
:1008F800014208D0DD08054205D15946CA085C07FF
:100908001443291C6646630FC9001943E400314D9E
:100918006BE5304A9245AED1191C5C46554664E5F4
:10092800002836D05846184310D080254807E408D8
:10093800C9082D0304432942E5D0D8082842E2D14A
:100948005D46EA085C071443011CDCE7214D4CE5D1
:10095800002353E73D1C203D0A1CEA40151C202FAC
:1009680034D04026F71BB9400C43611E8C412C4300
:100978000021D1E60824002718496442154DC6E530
:100988000C43611E8C41E4B200218AE7191C5C46C5
:100998002BE5191C5C460F4D27E5031C3B4300D192
:1009A8001CE7011C3C1C20E52020404240190A1C81
:1009B800C2409046202D0BD04020451BA9400C4337
:1009C800611E8C4141460C4300216AE70021CBE7B8
:1009D8000021F4E7FF070000FFFF7FFFFFFF7F0014
:1009E800F0B5564644465F464D46F0B41F1C0B030F
:1009F8001B0B98464B0087B0041C81465B0DC80F43
:100A0800161C9A460090002B51D06B4B9A4531D05A
:100A18008022414652030A43630FD2001A43674BB0
:100A280090460025E20091469A44002402953B0333
:100A38001B0B9B46FD0F7B00311C5B0D019560D0A5
:100A48005D4A934254D08021584649030143720FAE
:100A5800C9001143594A8B469B18F1000020009A9F
:100A680004436A4003920F2C00D9B1E0544EA4000D
:100A78003459A746404604436ED100210225082474
:100A8800884689460295D2E7009C0298C3464946A3
:100A98000194022864D0032800D1AFE2012800D0D5
:100AA8003CE2019A002402400025A14660E043464A
:100AB80023434AD04046002800D1C4E101F06AFA35
:100AC800031E272B00DDB7E128210D1A211C083B46
:100AD8004246E9409A400D1C1543221C9A40A846FC
:100AE8009146384B00251B1A9A46002402959EE72A
:100AF8005A4616430320002EB1D1B34600210220E6
:100B0800ADE75A4632431BD05B46002B00D18EE13D
:100B1800584601F03FFA272800DD81E12822171AFC
:100B2800011C321C08395B46FA408B40171C1F43D6
:100B3800331C8B40BB46191C224B1B1A00208EE726
:100B48000027BB460021012089E700200125042455
:100B58008046814602956AE703250C24029566E7DC
:100B6800019E0396039F01220024134D3A40A1469B
:100B7800002000212403260B0C0D2405124B3443BE
:100B88002D0523402B435B005B08D207191C484600
:100B9800114307B03CBC90469946A246AB46F0BD0F
:100BA80001235B420022094C9946034DE0E70024EB
:100BB8000025A146DCE7C046FF07000001FCFFFF57
:100BC80024B900080DFCFFFFFFFF0F80FFFF0F0097
:100BD8005546ED1A0495D84500D953E100D14EE1A8
:100BE800049C0025013C4E4604944746A9465846B5
:100BF80003020C0E1C430902250C23041B0C009154
:100C0800381C291C0193FFF7B9FA0199834641431F
:100C1800381C8A46291CFFF7F5FA330C09041943D6
:100C28008A450CD95B460919013B8C4200D947E13A
:100C38008A4500D844E10222524293440919534696
:100C4800CB1A181C291C9846FFF798FA071C01981C
:100C5800291C784382464046FFF7D4FA36040B0431
:100C6800360C33439A4509D91B197A1E9C4200D980
:100C780024E19A4500D821E1023F1B195E4632045F
:100C88001743380CBB46009E009F51463F0C320468
:100C98005B1A5946BA46120C0F043F0C904651464F
:100CA8007A434F434146414356467043CF19160C89
:100CB800BE19B14202D980277F02C019310C120433
:100CC8003604120C4018B618834200D2C4E000D192
:100CD800BEE0191A4846861BB145BF417F42CF1B6B
:100CE800A74200D113E1291C381CFFF747FA0199E4
:100CF80002904143381C8946291CFFF783FA330CBC
:100D08000904194389450CD9029B0919013B8C42F6
:100D180000D9FFE0894500D8FCE0029F0919023F8D
:100D280002974F46CF1B381C291C0597FFF726FA58
:100D3800071C0198291C784381460598FFF762FA39
:100D480036040904360C0E43B14509D936197B1E01
:100D5800B44200D9E0E0B14500D8DDE0023F3619E1
:100D6800029D4946761A290439430B0457460A0C52
:100D78001B0C40464546584355437B437A43EB1882
:100D8800070CDB199D4202D980256D0252191D0CF2
:100D980000041B04000C52191B18964235D300D1CD
:100DA800FCE001231943049E994FF519002D00DC3E
:100DB800A1E0480709D00F230B40042B05D00B1DD9
:100DC8008B42894149428B44191C5A46D20107D5A6
:100DD800904B5C46049E80271C40FF00A346F519F3
:100DE8008D4B9D427ADD039C0122224000248B4DCD
:100DF800A146BDE680242403474627424CD13C4304
:100E08002403240B009A854DB2E63619481EB442D5
:100E18005ED9011C9642C4D1009E9E42C1D1C2E750
:100E2800031C283B311C99408B46002184E6301C6A
:100E380001F0B0F820306EE6283B211C99400022D2
:100E4800884691464DE6201C01F0A4F8203037E68C
:100E58000021B14500D33DE7009F5A46B944B94542
:100E6800BF417F423F19FB18013A9C421ED298426B
:100E780000D97EE000D1B5E0191A93462AE78945E2
:100E880000D8ADE64846464642467708D3074608A6
:100E9800C0071E438146AAE65846204212D10443A1
:100EA80024032A1C240B89465C4D61E6A342E3D146
:100EB800009F4F45DBD9211A93460BE7171CDDE647
:100EC8009B46BCE63C432403240B009A534D4FE653
:100ED800B24259D800D18AE0011C62E75E46C908CF
:100EE8007307039F0B4374026D0501229946240B77
:100EF8006D0D3A403CE64A4B049C1B1B382B10DD19
:100F0800039D012200242A40A146002530E6012144
:100F1800494248E7029304E71F1C21E7019C039418
:100F280041E71F2B40DC049E3E4F0C1CF21958462B
:100F38009140DC40904020430A1C511E8A41011C0C
:100F48005846D8401143031C480709D00F220A40CD
:100F5800042A05D00A1D8A42894149425B18111C9E
:100F68001A0234D5039C0122224000240125A146FF
:100F7800FEE5009F02214942B9448B44B9458941A5
:100F880049420919CB18A4E6009D881E6900A942A8
:100F9800AD416D422C19361900913AE7002B00D06B
:100FA80033E70024009437E71F4A049C5D46121B70
:100FB800D5402A1C202B1FD01C4E5F46A3199F40EA
:100FC8003B1C19434B1E994111430023BCE75A07A8
:100FD800C9080A43039D91465B0201222A401C0B63
:100FE8000025C5E54E45C4D89346002172E6009F0A
:100FF8009F42C9D3011C0FE70023E2E780242403A2
:10100800584604432403240B019A8946034DAFE54F
:10101800FF030000FFFFFFFEFE070000FF070000C0
:1010280002FCFFFF1E040000E2FBFFFF3E0400007D
:10103800F0B55F4656464D464446F0B40D1C041CB8
:101048008046E80F814618030F03000B3F0B83B05F
:1010580084461B48009749005E00DF0F490D924601
:10106800760DBB4681420CD01548864210D001202F
:10107800B14215D003B03CBC90469946A246AB4657
:10108800F0BD009F01202743F4D10D488642EED1E0
:10109800604602430120002AECD10120B142E9D187
:1010A800009B6345E6D1D045E4D1D94506D0002957
:1010B800E0D11C43201C441EA041DBE70020D9E7F7
:1010C800FF070000F0B55F4656464D464446F0B46B
:1010D800CD0FDE0FAC461D032D0BB146354E0F0369
:1010E8004C00AB465D0080463F0B640D92466D0D8B
:1010F800B44231D02F4EB54234D0002C0ED13843F3
:1011080041424141081C002D0BD0002919D1CC4582
:101118002CD06646002E17D1012017E0002DF6D1FD
:10112800281C59460A4353425341002806D1002B34
:10113800EDD065460120002D08D005E00020002BE9
:1011480004D14B46002BE7D1012040423CBC9046DD
:101158009946A246AB46F0BD3E1C0643CAD00220C3
:101168004042F3E75E461643C7D0F8E7AC4205DCD9
:1011780009DA6346002BE7D00120E7E7614600293A
:10118800E2D10120E2E75F4508D80CD000205F4596
:10119800DCD26646002ED7D00120D7E76546002D61
:1011A800D2D10120D2E7D045F8D80020D045F0D3DD
:1011B800CCE7C046FF070000F0B556464D4644460A
:1011C8005F46F0B40D1C83B0041C0190E80F814603
:1011D80018030F03000B3F0B84463848009749005B
:1011E8005E00DF0F490D9246760DB846814233D036
:1011F8003248864235D0002917D0002E1ED1341C23
:1012080067463A4353425341002C1ED00020002B1E
:1012180004D14046002816D10120404203B03CBC0E
:1012280090469946A246AB46F0BD009804436042FA
:101238006041041C002EE3D00028EAD1C14515D036
:101248004F46002FE8D10120E8E7002BF6D04B46A7
:101258000120002BE2D0DFE7009F02202743DDD1E9
:10126800C6E7674602201743D8D1C4E7B14204DD78
:1012780048460028D0D10120D0E7B14204DA4B46D5
:10128800002BC9D00120C9E7009F674509D80DD0B8
:10129800009F00206745C1D24F46002FBCD00120D7
:1012A800BCE74B46002BB7D10120B7E70198504562
:1012B800F7D8019B00205345EED3AFE7FF070000A6
:1012C800F0B5564644465F464D46F0B41F1C0B0326
:1012D8001B0B9A464B0087B0041C80465B0DC80F59
:1012E800161C02938146002B68D0694B02999942DB
:1012F80032D08022534652031A43D200630F1A4356
:101308009246644AE000891880460291002400252C
:101318003B031B0B7800F90F321C9B46400D0391D1
:1013280000D175E05A4B984269D080225B4652033F
:101338001A43D200730F1A439346F200554E002306
:10134800801903994E4671401C430F2C00D9ABE01D
:10135800514EA4003459A74653461C4300D086E09A
:101368000025AA46A84608240225D1E74946022DA9
:101378006BD0032D00D115E2012D00D056E10D40B0
:10138800EDB20024A9460023A04600200021250331
:101398000A0D1C052D0B1205404B2A43134023430D
:1013A8005B004C465B08E207191C4046114307B036
:1013B8003CBC90469946A246AB46F0BD53462343F3
:1013C8004FD05346002B00D182E1504600F0E2FD99
:1013D800031E272B00DD74E128210D1A211C083B70
:1013E8005246E9409A400D1C1543221C9A40AA46D1
:1013F80090462B4B00241B1A0293002588E75B4676
:101408001E430323002E9CD1B3460022022398E7F3
:10141800334321D05846002800D14DE100F0BAFDF1
:10142800272800DD41E128210F1A021C311C083A47
:101438005B46F94093400F1C1F43331C9340BB4647
:101448001A1C174B181A00237BE701230B400024B2
:101458009946A0460E4B98E70027BB460022012379
:101468006FE70020042482468046012550E70C24BB
:1014780003254DE701235B4200259846A946094C00
:10148800034B82E7DA46904603991D1C6FE7C04676
:10149800FF07000001FCFFFF64B90008FFFF0F8091
:1014A8000DFCFFFFFFFF0F00029F160C3818049079
:1014B8004046070C0004000C1204120C031C534392
:1014C800041C3D1C7443554398463B1C73436419E4
:1014D800A44644460293230C63449D4204D9029DCA
:1014E800802464022D1902951D0C039545462C0491
:1014F8001B04240C1C1905945C46230C051C58433A
:101508002404240C8446381C604365435F438146A9
:10151800CC44280C6044BB46814502D980277F0211
:10152800BB442D04070C2D0C000440195546BC463D
:101538002F04E3448446280C3D0C2F1C5743B8461F
:101548002F1C77434243B94647463F0C9144BA465D
:10155800D14446434A4502D980225202B6184F4622
:101568003A0CB6183A0447463F043F0CB8462F1CBD
:1015780067435D434443584365190190380C2D185F
:101588004244B846AC4204D9019880235B02C01893
:1015980001900398029C604400196045A4414346A9
:1015A8006442A4462F041C048018B946240C4C44F9
:1015B800904292415C445242A04691466444A246FD
:1015C80032194F46D419E2459B41D845BF415B4289
:1015D8007F421F432D0C7F19B24292414C45AD41C9
:1015E80052426D421543019E7D19AB19E20D5B0213
:1015F800059F134342023A439A46531E9A41C30D2C
:10160800101C18436402204380465046C0010DD583
:10161800454601225646049C6B082A401A43F307A4
:1016280001341A43760804949046B246049F6348EE
:101638003B18002B61DD424652070BD00F2244466F
:101648002240042A06D042460432424580414042A4
:10165800824490465546ED0107D5594B5646049F9E
:1016680080201E40C000B2463B18564A934200DD17
:10167800EBE644465546E2086807104301226C022F
:101688005B050A408046240B5B0D91467DE6DA46F1
:1016980090461D1C6BE680242403574627421CD124
:1016A8003C432403240B484B6FE6031C283B311CA6
:1016B80099408B460022C4E6301C00F06BFC2030B9
:1016C800AEE6283B211C994000228A46904690E6C7
:1016D800201C00F05FFC20307AE65846204207D1F3
:1016E8000443039D2403240BA9469046364B4CE63D
:1016F8003C432403240B344B47E6344B049E9B1B8A
:10170800382B06DD01230B4000249946A046002310
:101718003BE61F2B25DC2E4A049F4446B818524648
:10172800DC408240224344468440201C5546441EE7
:10173800A041DD4002432B1C560709D00F20104062
:10174800042805D0101D9042924152429B18021C59
:101758001F021AD501230B4000249946A0460123F5
:1017680013E61C48049E5746801BC740381C202B94
:1017780016D0194B5446F2189440221C45462A4369
:10178800531E9A4102430023D6E758075B02D2084A
:101798001C0B01230B401043994680460023F4E5B7
:1017A8000022EBE780242403504601230443194018
:1017B8002403240B8946044BE7E5C046FF030000D9
:1017C800FFFFFFFEFE070000FF07000002FCFFFF0F
:1017D8001E040000E2FBFFFF3E040000F8B55F4670
:1017E800564644464D46F0B40C034D00CF0F610AEF
:1017F800440F2143C4001803DE0F8046B446464612
:101808005800760A530F3343D600D14A6D0DBA46B5
:10181800400DB346904200D1F5E062460126724081
:101828009446674500D1ABE02F1A002F00DC11E188
:1018380000283ED15846184300D0F1E0600700D197
:1018480097E00F232340042B00D122E1221DA2425E
:10185800A4416442802309191B04012750460B4008
:101868000740141C002B00D179E0B94B01359D428B
:1018780000D10BE1B74BE40819404807490204437B
:101888000B0B002000211B031A0B0B0D6D051B050C
:1018980013436A08B04DFF071D4015436D006D08DE
:1018A800291C3943201C3CBC90469946A246AB46AD
:1018B800F8BDA7488542C1D0802000040343382FD3
:1018C80000DDFDE01F2F00DD31E12020C01B1A1CC8
:1018D8005E468240FE40324394465A468240101C7F
:1018E800421E9041FB40624602431F1CA21A9442CA
:1018F800A4416442C91B091B141C0A029ED5490253
:101908004F0A002F00D1D6E0381C00F043FB021C20
:10191800083A1F2A00DDC3E02821231C091A974032
:10192800CB401F439440954200DDC0E0551B691C25
:101938001F2900DDEAE01F22551B3B1C221CAB407F
:10194800CA40AC40651EAC411343CF401C43391C10
:10195800002573E7082481497D4D002764427C4BAC
:101968004807E4080443C9089D4250D009030B0BFB
:1019780087E780231B04012752460B40174071E775
:101988002E1AB446002E00DCA1E0002854D070487E
:10199800854200D152E7802000040343604638287E
:1019A80000DD10E11F2800DD59E162462020801A81
:1019B8001E1C8640B1465E46D6404A4632435E46C5
:1019C80086409046301C421E904142460243604683
:1019D800C3401219A242A441644259180919141C9F
:1019E8000E0200D42AE75A4B01359D4200D133E15B
:1019F800584B60081940012323401C1C0443CB07A3
:101A08001C4349081AE71E4300D00AE705E7231CD0
:101A18000B433BD080231B030B431B031B0B30E7FB
:101A2800013F002F6DD15846221A9442A4416442C6
:101A3800C91A091B141C60E75846184300D1FDE673
:101A48000120404284446246002A00D0D2E05E462B
:101A58003219BFE7002F00D082E0681C4005400D16
:101A6800012800DCEAE05A46A21A9442BF41C81A8B
:101A78007F42C71B3E0200D49AE05846041BA34588
:101A88009241591A52428F1AE2463AE7002300243B
:101A9800F7E680231B04012756460B403740E1E652
:101AA800271C283887400024954200DC3EE7294956
:101AB800AD1A3940C2E6201C00F06CFA203026E747
:101AC8005A461A43531E9A41D2B200270EE7002EF7
:101AD80000D0E0E0681C4205520D012A00DC92E0CB
:101AE8001B4DA84200D1F7E05D462A19A242A44145
:101AF800644259180919CC07520814434908051CAF
:101B08009CE61348854200D0D9E697E62B1C1F3B7C
:101B18003E1CDE40331C202971D03F22551BAF40AC
:101B28003C43601E84411C430021002586E6381C86
:101B380020381E1CC640301C202F62D04022D71BE4
:101B4800BB405A461A43531E9A4102430027CDE62A
:101B5800FF070000FFFF7FFFFFFF0F80FFFF7F00F1
:101B6800002D37D0B64DA84200D18FE080252D0436
:101B78007F422943382F00DDA8E01F2F00DD25E133
:101B88002025ED1B0E1CAE40B046261CFE404246EA
:101B9800AC401643651EAC413443F9405A46141B09
:101BA800A34592415B1A5242991A051CE246A4E6E3
:101BB800131C3B43141C002B00D0A2E60027002175
:101BC80000240025CBE65A461A43531E9A41D2B246
:101BD8000023FEE60D1C254358D0FF43002F51D1AA
:101BE8005D462C1BA3459241591A5242891A051C7D
:101BF800E24682E69248854200D0CFE61EE60027FC
:101C08008EE700239DE7081C2043002D00D0C3E089
:101C1800002800D1F0E05846184300D10EE65E4691
:101C28003219A242A441644259180919141C080225
:101C380000D403E6834B01251940FFE5081C204327
:101C4800002D38D1002870D15946194303D0191CEA
:101C58005C46E246F2E50027002100247FE6604664
:101C680020381A1CC2406646101C202E00D1ABE05A
:101C78004022921B93405A461A43531E9A410243EC
:101C88000023A6E66E4DA84200D073E7191C5C46F7
:101C9800051CE246D2E5002D22D10D1C254377D044
:101CA800F543002D71D15C445C459241591852426C
:101CB8008918051C94E600284DD15946194300D1CE
:101CC80048E6191C5C46E2465D4DB7E50C43611ECB
:101CD8008C41E4B2002161E7051C002100243EE6A6
:101CE800574DA84254D066468022754216043143A7
:101CF800382D7BDC1F2D00DD8CE02022561B0A1CB2
:101D0800B446B240261CEE403243904662469440A8
:101D1800661EB44142461443E9405C445C45924126
:101D2800CB1852429918051C5AE65846184300D158
:101D380084E55E46A71BBC429241C81A5242801AEB
:101D4800060260D55846041BA3459241591A5242CF
:101D5800891AE24672E55846184333D04807E40822
:101D680004438020C9080003014208D0DD08054269
:101D780005D15946CA085C071443291CE246630F7B
:101D8800C9001943E4002E4D58E52D4A9042AFD1C1
:101D9800191C5C46051C51E5002830D058461843EC
:101DA80010D080254807E408C9082D0304432942B8
:101DB800E5D0D8082842E2D15946CA085C0714433E
:101DC800011CDCE71E4D39E5002354E73D1C203D8E
:101DD8000E1CEE40351C202F2ED04026F71BB94094
:101DE8000C43611E8C412C430021D7E60C43611E35
:101DF8008C41E4B2002190E7191C5C461EE5191CD1
:101E08005C460F4D1AE5031C3B4300D123E7011C38
:101E18003C1C13E52026764276190A1CF2409046AF
:101E2800202D0BD04026751BA9400C43611E8C4108
:101E380041460C43002170E70021D1E70021F4E777
:101E4800FF070000FFFF7FFF70B50B1C124C090352
:101E58000E0B5900021C490DDD0F0020A14211DDB7
:101E68000E4881420FDC8020400306430C48401A8C
:101E78001F280BDD0B4A521AD640321C5042002D47
:101E880000D1101C70BD084BE818FBE7074BC24097
:101E9800C9188E403243F1E7FE0300001D0400001C
:101EA8003304000013040000FFFFFF7FEDFBFFFF7A
:101EB800F8B5041E31D0C70F00D04442201C00F0F2
:101EC80069F8184D2D1A0A2819DD0B3884402403A7
:101ED8006D05240B6D0D3A1C0026002000210B0D0A
:101EE8002403240B1B0523430F4C2D051C402C43B6
:101EF80064006408D307211C301C1943F8BD061C74
:101F08001536231CB3401E1C0B23181AC440240387
:101F18006D05240B6D0D3A1CDFE700220025002417
:101F28000026DAE71E040000FFFF0F8010B5041E2C
:101F380028D000F02FF8154A121A0A2815DD0B3898
:101F4800844024035205240B520D00230020002155
:101F58002403181C0B0D240B1B0523430C4C1205E2
:101F68001C4014436400610810BD031C1533211C78
:101F780099400B1C0B21081AC44024035205240B5A
:101F8800520DE3E7002200240023DFE71E040000CF
:101F9800FFFF0F801C2101231B04984201D3000C72
:101FA80010391B0A984201D3000A08391B099842C4
:101FB80001D30009043902A2105C40187047C046DA
:101FC80004030202010101010000000000000000FA
:101FD80008B5034B011C186800F00EF808BDC04690
:101FE8001004002008B5034B011C186800F086FB9C
:101FF80008BDC04610040020F0B5564644465F466A
:102008004D46F0B40C1C0B3483B0061C162C2BD98F
:1020180007239C432BD4A14229D8301C00F008FB8D
:10202800F823FF339C4226D8E208CB4DD300EB18A7
:10203800DF689F4200D1B7E178680323FA68B9687E
:1020480098433B18CA609160596801220A43301CC2
:102058005A6000F0EFFA381C083003B03CBC9046D8
:102068009946A246AB46F0BD1024A142D5D90C230F
:1020780033600020F1E7630A00D18EE0042B00D919
:102088003EE1A30938339C465900B34D89006918CD
:10209800CF68B94215D07A6803239A43101B0F28DA
:1020A80000DD8DE000287CDA032007E07A688243AF
:1020B800131B0F2B00DD83E0002B72DAFF68B94297
:1020C800F4D1012294442B1C2F6908339F4200D17C
:1020D8005FE1786803229043021C011B0F2900DD91
:1020E80046E16B612B6100295FDA9C4B984200D96D
:1020F80010E1C3089A100121DB00EB1891406868D1
:102108000A1C99680243FB60B9606A609F60CF60EF
:1021180061468B1001219940914255D811420DD149
:10212800032360469843031C043349009C4611422C
:1021380004D1042349009C441142FAD0032080466C
:102148006246D3005B199A46181CE146C768B84234
:1021580007D120E1002B00DB2FE1FF68B84200D156
:1021680019E17A6843469A43131B0F2BF2DD0121CC
:102178003A190C437C60F868BC680835E06019437C
:102188008460EA60AA60301CD56095605160D350C5
:1021980000F050FA381C08305FE73F227E21944651
:1021A80073E7FB68B968CB609960BA185168012376
:1021B8000B43301C536000F03DFA381C08304CE7E4
:1021C8000120404284447CE7AF6803237868984341
:1021D8008146A04203D3031B0F2B00DD82E0494652
:1021E80079185F4A01915F49106892468A682318F6
:1021F8008B46013200D142E15B481B181B0B1B03C5
:1022080000930099301C00F017FA011C8046013138
:102218005DD0019A824200D9E6E0514600984968AB
:102228005246431801985360404500D130E1594661
:102238008968013100D13DE101994046421A9B1855
:102248005246536007234046034000D1FFE0C21ABC
:1022580008329046454AD31A009A301C4244120567
:10226800120D9A1A111C934600F0E6F9411C00D190
:102278001CE14246801A58440123184351464B68D2
:1022880042465B44AA604B605060AF4213D0484658
:102298000F2800D8E6E04A46786807210C3A8A43B6
:1022A80001210140114379600520B9184860886010
:1022B8000F2A00D902E15246D26A934201D9504608
:1022C800C3625146096B8B4201D952461363AF680A
:1022D80003237A689A43131B944200D9A9E00F2B71
:1022E80000DCA6E00122211C11433C19134379604C
:1022F800301CAC60636000F09DF9381C0830ACE617
:10230800142B69D9542B00D998E0230B6E339C46C3
:102318005900BAE6430A042B62D9142B00D9B1E05C
:10232800191C5B314800800040198368814683424C
:1023380000D18FE0032188465968404681438A428C
:1023480002D29B689945F7D1D9686A68F960BB6081
:102358008F60DF60DCE6C04600000020FF0100005F
:1023680060080020000400200F1000000810000082
:1023780001203A19044308437C606A612A6150606D
:10238800D3609360301C515000F054F9381C083069
:1023980063E66A68BCE60122914443464A4608302F
:1023A800134200D0D2E62CE03B1C7F69023208338E
:1023B8009446BB4200D186E63EE6BA18506801232F
:1023C80003435360FB68BA68301CD3609A6000F01E
:1023D80031F9381C083040E65B339C46590054E616
:1023E8008109383148009EE7AF4200D06FE714E713
:1023F8005346186801225242083B94448246984248
:1024080076D1434660460342F2D16B688B436B60DA
:102418004900994200D9D7E6002900D1D4E6CC4634
:10242800194200D08CE60422490094441942FAD09B
:1024380086E6301C00F0FEF800200EE6AA225200C4
:10244800934214D8E30B77339C4659001DE680234A
:102458005B0101E78910686801228A4002436A60CB
:10246800191C73E7012353604746002233E7214ACA
:10247800934217D8A30C7C339C46590005E61033C9
:102488000093BEE6542B21D8010B6E3148004AE771
:10249800020500D0CBE60098AA6848440121014310
:1024A800516008E77E23FC219C46EEE500230120CD
:1024B8009B46E3E642465B469A60C3E6391C083110
:1024C800301C00F01BF951464B68F4E6AA2149007C
:1024D8008B4203D8C10B7731480024E705498B426A
:1024E80003D8810C7C3148001DE7FC207E211AE7C7
:1024F8006B688DE754050000F0B50F2A35D9031C29
:102508000B439C0735D1161C103E36093501451979
:1025180010350C1C031C27681F6067685F60A7687C
:102528009F60E7681034DF601033AB42F3D1731C4F
:102538001B01C518C9180F231340032B1BD91C1FD7
:10254800A4080134A4000023CE58EE500433A3425B
:10255800FAD1ED18C91803231A4005D00023CC5C22
:10256800EC5401339342FAD1F0BD051C002AF5D191
:10257800FAE7051CF2E71A1CF8E7C046F0B547462B
:1025880080B482B083074FD0541E002A48D0CEB200
:10259800031C032503E0621E002C41D0141C0133E8
:1025A8005A1E16702B42F6D1032C31D9FF250D4047
:1025B8002A0215432A0415430F2C18D9271C103F4B
:1025C8003F093E01B0461026F618B44646461A1C86
:1025D8006644156055609560D5601032B242F8D1F6
:1025E80001373F010F22DB191440032C10D9271F94
:1025F8001E1DBF080196BE00B446019E1A1C664403
:1026080020C2B242FCD10137BF000322DB191440BB
:10261800002C05D0C9B21C1919700133A342FBD193
:1026280002B004BC9046F0BD031C141CBCE7C046B5
:102638007047C0467047C04638B5074C0023051C94
:10264800081C236000F012FA431C00D038BD236830
:10265800002BFBD02B60F9E7B8080020F8B50F1C59
:10266800041CFFF7E5FF204D204AAB685E68032392
:102678009E43F71BBF183F0B1D4B013F3F039F4273
:1026880007DD201C0021FFF7D7FFAA68931998429D
:1026980004D0201CFFF7CEFF0020F8BD7942201C93
:1026A800FFF7CAFF01300DD0AB68F61B01221643B5
:1026B8005E60104B201C1A68D71B1F60FFF7BAFF1B
:1026C8000120EAE7201C0021FFF7B6FFAB68C21A19
:1026D8000F2ADEDD08490968401A06490860012109
:1026E8000A435A60D5E7C04600000020EF0F0000FB
:1026F800FF0F00006408002008040020F0B54746DA
:1027080080B4051C0C1E55D0FFF792FF211C083918
:1027180048680127031CBB43CA1854688046032035
:102728008443201C534CA668964260D00026B446C9
:102738004646506037420AD10E68271C891B9B19F0
:102748008E680837BE426BD0CF68F760BE60161837
:10275800766801273E4207D11B18604600282CD016
:102768009068D268C26090600122181C10436646C7
:102778004860CB50002E1AD13F48834229D95A0AC3
:10278800042A50D89E0938367000800020188268C4
:1027980082424ED003265468B443A34202D29268C0
:1027A8009042F8D1D368CB608A609960D160281CC8
:1027B800FFF740FF04BC9046F0BD90682F4EB04232
:1027C800CFD11F43C1608160C86088604F60CB5023
:1027D800EDE7DB08981082406068DB000243626026
:1027E800E418A368CC608B60A160D960DFE7C318E8
:1027F8004046074206D10A68891A88689B18CA6841
:10280800C260906001221A434A601D4AA1601268A2
:102818009342CCD31B4B281C1968FFF71FFFC6E750
:102828000126B44693E7142A0CD8161C5B367000B0
:10283800ABE7B6100123B3401E1C63681E436660F5
:10284800131CB0E7542A03D81E0B6E3670009CE7A1
:10285800AA204000824203D8DE0B7736700094E746
:102868000948824203D89E0C7C3670008DE7FC2014
:102878007E268AE700000020FF01000008000020F3
:102888000C04002060080020540500000C48854610
:10289800002103E00B4B5B58435004310A480B4BB3
:1028A80042189A42F6D30A4A02E00023136004321F
:1028B800084B9A42F9D300F011F803F0FDFCFEE74B
:1028C80000200020C0BD00080000002044080020AF
:1028D80044080020BC080020FEE7000080B500AFD7
:1028E8001B4B1B4A126801210A431A60184B184AED
:1028F8005168184A0A405A60154B154A1168164A19
:102908000A401A60124B124A1168144A0A401A60A7
:102918000F4B0F4A5168124A0A405A600C4B0C4A36
:10292800D26A0F218A43DA62094B094A116B0D4AB0
:102938000A401A63064B064A526B01218A435A63BE
:10294800034B00229A6000F00FF8BD4680BDC046D8
:10295800001002400CB8FFF8FFFFF6FEFFFFFBFF78
:10296800FFFFC0FFACFEFFFF80B500AF1D4B11227B
:102978001A601D4B1C4A52685A601B4B1A4A52680F
:102988005A60194B184A5168184A0A405A60164B3F
:10299800154A5268A02189030A435A60124B124A09
:1029A8001268802149040A431A60C0460E4B1A680F
:1029B80080239B041340F9D00B4B0B4A5268032128
:1029C8008A435A60084B084A526802210A435A60EF
:1029D800C046054B5A680C231340082BF9D1BD4655
:1029E80080BDC0460020024000100240FF7FC0FFAB
:1029F80080B582B000AF78607B68181CFFF7E8FAF2
:102A0800031C181CBD4602B080BDC04680B582B00C
:102A180000AF786039603B68181CBD4602B080BDC5
:102A280080B582B000AF78607B68181CFFF7D0FAD9
:102A3800031C181CBD4602B080BDC04680B582B0DC
:102A480000AF78607B68181CFFF7CCFABD4602B06F
:102A580080BDC04680B582B000AF78607B68181C26
:102A6800FFF7C0FABD4602B080BDC04680B584B04D
:102A780000AF78600A4B1B68002B02D1084B094A4B
:102A88001A60074B1B68FB60054B1A687B68D218F5
:102A9800034B1A60FB68181CBD4604B080BDC046D5
:102AA80094080020BC08002080B582B000AF786090
:102AB8007A68064B101C00211A1C0D2303F0B6F986
:102AC8007B68181CBD4602B080BDC046A4B900088A
:102AD80080B500AF80235B01181C002108F0B8FC0A
:102AE800BD4680BD80B582B000AF78607B681B684A
:102AF800181C002108F0C6FBBD4602B080BDC046C8
:102B080080B582B000AF786039607A683B68101C85
:102B1800191C00F005F87B68181CBD4602B080BD82
:102B280080B582B000AF786039603B681A887B68EE
:102B38001A803B685A887B685A80BD4602B080BDBF
:102B480080B584B000AFF860B9607A603B60F9681E
:102B58000E4A0F4B081C111C1A1C152303F066F9AA
:102B6800FB681A1C0E32BB69101C191CFFF7C8FF42
:102B7800FB68BA685A61FB687A689A61FB683A68C8
:102B8800DA61FB68181CBD4604B080BDAE5F2E003C
:102B9800F4B9000880B582B000AF78607B68181C73
:102BA80000F040F87B68181CBD4602B080BDC046E6
:102BB80080B582B000AF78607B68181CFFF7EAFF29
:102BC8007B68181CBD4602B080BDC04680B5A4B065
:102BD80000AF786039603A1C08323B68101C191C39
:102BE80002F0E6FE78687B681A1C0E327B685B6927
:102BF800391C083103F030F93B1C0833181CFFF767
:102C0800D7FFBD4624B080BD80B582B000AF7860E4
:102C18007B68181C00F01AF87B68181CBD4602B0C7
:102C280080BDC04690B583B000AF78607B681C68F3
:102C3800002C05D0201CFFF7E7FF201CFFF7FEFE45
:102C48007B68181CBD4603B090BDC04680B582B0F5
:102C580000AF78607B68181CFFF744FFFFF738FF68
:102C68007B68181CBD4602B080BDC04680B500AF69
:102C78001020012108F00AFCBD4680BD80B582B055
:102C880000AF786039607B683A681A647B68181C02
:102C9800BD4602B080BDC04680B584B000AFF860C4
:102CA8007A603B1C0B330A1C1A703B1C0B331A78D6
:102CB800FB6892007968D150BD4604B080BDC0461B
:102CC80080B582B000AF78607B681B6C181CBD466D
:102CD80002B080BD80B582B000AF786039607B6893
:102CE8003A681A603B68181CFFF7EAFF021C7B6809
:102CF8005A607B68181CBD4602B080BD80B582B0A2
:102D080000AF78607B685B89181CBD4602B080BD47
:102D180080B582B000AF78607B685B68181CBD46E0
:102D280002B080BD80B582B000AF78600A1CFB1C81
:102D38001A70FB1C1B780122111C99400B1C9AB2BB
:102D48007B685A81BD4602B080BDC04680B500AFE1
:102D580080231B03181CBD4680BDC04680B500AF4C
:102D68008023DB03181CBD4680BDC04680B582B0F9
:102D780000AF78607B68181CBD4602B080BDC046B5
:102D880080B582B000AF786039603B68181CFFF7E7
:102D9800BFFF021C7B681A603B68181CFFF7AEFF78
:102DA800031C1A1C7B689A807B68181CBD4602B0FD
:102DB80080BDC04680B582B000AF78607B681A6875
:102DC8007B689B88101C191C08F070FC031C5A1E99
:102DD8009341DBB2181CBD4602B080BD90B585B0EA
:102DE80000AF041C081C111C1A1CFB1D1C70BB1D09
:102DF80018707B1D19703B1D1A703B1C0C33FA1D93
:102E080012781A703B1C0C337A1D12785A703B1CCE
:102E18000C33BA1D12789A703B1C0C33181C08F03E
:102E280053FBBD4605B090BD80B582B000AF786059
:102E380039607B681A683B681A607B683A681A6070
:102E48003B68181CBD4602B080BDC04680B582B044
:102E580000AF786039607B683A681A607B68181C34
:102E6800BD4602B080BDC04680B582B000AF786074
:102E78007B681B681A687B681A60BD4602B080BD13
:102E880080B582B000AF786039607B681A683B68AB
:102E98001B68D31A5A1E9341DBB2181CBD4602B0F8
:102EA80080BDC04680B582B000AF78607B680022E4
:102EB8001A607B6800225A607B6800229A607B68EF
:102EC800181CBD4602B080BD80B582B000AF7860E6
:102ED80039607B683A680433043203CA03C33B6829
:102EE8001A687B681A60BD4602B080BD80B582B0A2
:102EF80000AF786039607B683A681A607B68043391
:102F0800181C07F045FF7B68181CBD4602B080BD41
:102F180080B584B000AFF860B960111C1A1CBB1DE5
:102F280019803B1D1A80FB68BA689A60FB68BA1D55
:102F380012889A80FB683A1D12889A81FB683A1CAD
:102F480018321288DA80FB681A68FB680433101C90
:102F5800191C07F0A5FEBD4604B080BD80B586B03B
:102F680002AFF860B9607A601A1CBB1C1A80FB6853
:102F78001B69181CB968FDF701F9031C9BB2013BDA
:102F88009BB2F9687A68B81C00880090081C111C6C
:102F98001A1C0023FFF7BCFFBD4604B080BDC04625
:102FA80080B582B000AF786039607B683A681A6192
:102FB800BD4602B080BDC04680B582B000AF786023
:102FC8007B681B68181CBD4602B080BD80B582B006
:102FD80000AF78607B681B68181C012107F0F0FEC1
:102FE800BD4602B080BDC04680B582B000AF7860F3
:102FF80039607B683A681A607B68181CBD4602B065
:1030080080BDC04680B582B000AFBB1D18807B1D57
:1030180019703B1D1A70BB1D1A88012313400AD072
:10302800064B074A1A607B1D1B78112001211A1CC8
:103038000023FFF7D3FEBD4602B080BDA4080020E0
:10304800D1A7000880B584B000AF786039607A688D
:103058003B68101C191CFFF7C7FF1F4B5A68E02379
:10306800DB0013408022D20093420FD08022D2008E
:10307800934202D8002B09D016E0A022D200934236
:1030880008D0C022D200934209D00DE0134B1B6830
:10309800FB600EE0114B1B685B08FB6009E00F4BFF
:1030A8001B689B08FB6004E00C4B1B68DB08FB609B
:1030B800C0463B68181CFFF77FFF031C181C08F06C
:1030C8002BF83A68FB68101C191CFFF769FF7B682E
:1030D800181CBD4604B080BD001002404008002006
:1030E80090B585B000AF78607C683B1C0C33181C29
:1030F80000F0B6F93B1C0C33201C191C00F0C4F975
:103108003B1C0C33181C00F0B5F97B68181CBD4635
:1031180005B090BDB0B5B6B000AF78607B68181C3C
:10312800FFF7DEFF7B680433181C00F0BDF97B68ED
:103138002C3302241D1C04E0281CFFF717FE083559
:10314800013C631CF8D13B1CD73300221A7018E0ED
:103158003B1CD7331A78796840238A18D318002281
:103168001A713B1CD7331A78796840238A18D31808
:103178000022DA713B1CD7331A783B1CD733013253
:103188001A703B1CD7331A7803239A42E0D33B1CAE
:103198000833181C00F0AAF93B1C0833181C00213E
:1031A80000F0C0F9031C3A1CA832101C191CFFF7C8
:1031B800E7FD7A683B1CA833111C2C311A1C062326
:1031C800081C111C1A1CFFF797F93B1C0833181C24
:1031D800012100F0A7F9031C3A1CB032101C191C7D
:1031E800FFF7CEFD7A683B1CB033111C34311A1C32
:1031F8000623081C111C1A1CFFF77EF93B1C5833C8
:10320800181C00F0ABF93B1C5833181C0E2100F0B9
:10321800C1F9031C3A1CB832101C191CFFF7B0FD89
:103228007A683B1CB833111C3C311A1C0623081C55
:10323800111C1A1CFFF760F97B681C1C24343B1C0A
:10324800CC331A4A1A603B1CCC3300225A60391C12
:10325800C0317A683B1CCC33081C111C1A685B68A7
:1032680000F0B4F93B1CC033201C191C00F0CEF947
:103278003B1CC033181C00F0BFF97B681A1D0C4BAF
:10328800101C191C31226023FFF768FE7B6820336D
:10329800181C012100F0C8F97B680433181CFFF7DB
:1032A80095FE7B68181CBD4636B0B0BDBD3200081F
:1032B8008813000080B584B000AF7860FB1C1970DB
:1032C800BB1C1A70FB1C1B78042B00D0C5E03B1CF0
:1032D8000F3300221A70B9E03B1C0F331B780533FB
:1032E800DB007A68D3180433181CFFF763FD031C4E
:1032F800002B00D191E03B1C0E3300221A703B1CBE
:103308000F331A78796840238A18D3181B79012B50
:103318000FD004D3022B1AD0032B44D06AE03B1CF5
:103328000F331A78796840238A18D31801221A7142
:1033380060E03B1C0F331A78796840238A18D31849
:1033480002221A713B1C0E3301221A7052E03B1CF8
:103358000F331B7879684022C9188A18D27901324C
:10336800D2B278684021C3185B18DA713B1C0F335E
:103378001A78796840238A18D318DB793C2B11D145
:103388003B1C0F331A78796840238A18D318002217
:10339800DA713B1C0F331A78796840238A18D318DE
:1033A80003221A7126E03B1C0F331B7879684022F0
:1033B800C9188A18D2790132D2B278684021C31864
:1033C8005B18DA713B1C0F331A78796840238A1826
:1033D800D318DB790F2B0CD13B1C0E3301221A704A
:1033E8003B1C0F331A78796840238A18D3180022B7
:1033F800DA71C0463B1C0E331B78002B1FD07A684D
:103408003B1C0D33391C0F31097819703B1C0D33E7
:10341800101C191C00F030F911E03B1C0F331A780E
:10342800796840238A18D31800221A713B1C0F337D
:103438001A78796840238A18D3180022DA713B1C5D
:103448000F331A783B1C0F3301321A703B1C0F33B1
:103458001A7803239A4200D23EE7BD4604B080BDE5
:1034680080B582B000AF78607B68181CBD4602B09A
:1034780080BDC04680B582B000AF78607B68181CFC
:10348800BD4602B080BDC04680B582B000AF78604E
:1034980039607A683B68101C191C00F01FF97B68BA
:1034A800181CBD4602B080BD80B582B000AF786000
:1034B8007A680D4B101C191C00F024F97B681A1C43
:1034C80018327B68101C191CFFF7BCFD7B681A1C9E
:1034D8001C327B68101C191C00F04CF97B68181C06
:1034E800BD4602B080BDC0460010004090B583B014
:1034F80000AF78607C687B68181C00F05DF9031CDD
:10350800201C191CFFF7BAFB7B681A1C44327B6825
:10351800101C191C00F062F97B68181CBD4603B02A
:1035280090BDC04680B582B000AF78600A1CFB1C15
:103538001A70FB1C1A787B689200D258FB1C1B7807
:10354800101C191CFFF7EEFBFB1C1A787B68920015
:10355800D358181CBD4602B080BDC04690B583B094
:1035680000AF78607C687B68181C00F057F9031C72
:10357800201C191CFFF782FB7B681A1C44327B68ED
:10358800101C191C00F05CF97B68181CBD4603B0C0
:1035980090BDC04680B582B000AF78600A1CFB1CA5
:1035A8001A70FB1C1A787B689200D258FB1C1B7897
:1035B800101C191CFFF7B6FBFB1C1A787B689200DD
:1035C800D358181CBD4602B080BDC04680B584B033
:1035D80000AFF860B960391C0A604B60F968BA68D6
:1035E8003B1C081C111C1A685B6800F049F9F86854
:1035F800BD4604B080BDC04680B582B000AF7860DB
:103608007B68181CBD4602B080BDC04680B582B03C
:1036180000AF786039607A683B68101C191C00F0AC
:1036280065F9BD4602B080BD80B582B000AF786054
:103638000A1CBB1C1A807B681A89BB1C1B88134395
:103648009AB27B681A817B689B7ABA1C1288101C14
:10365800191C0022FFF7D6FC7B681B68181CFFF7B3
:10366800ABFC021CBB1C1B88101C191C012207F098
:10367800DFFCBD4602B080BD80B584B000AF786085
:1036880039607B68181C00F045F9031CBB6010E02A
:103698003B1C0833181C00F071F9021C3B68101C15
:1036A800191C00F077F93B1C0833181C002100F0A6
:1036B80053F97B68181C00F03FF9031CFB603A1CA7
:1036C80008323B1C0C33101C191CFFF7D9FB031CD8
:1036D800002BDDD1BD4604B080BDC04680B582B0A8
:1036E80000AF786039607A683B68101C191C00F0DC
:1036F80061F97B6800221A607B68181CBD4602B01D
:1037080080BDC04680B582B000AF786039607A6805
:103718003B68101C191C00F057F97B68181CBD4643
:1037280002B080BD90B585B000AF78607C683B1C66
:103738000C33181C00F060F93B1C0C33201C191CBE
:1037480000F06EF93B1C0C33181C00F05FF97B6825
:10375800181CBD4605B090BD80B582B000AF78603A
:103768007B68181CFFF7DEFF7B68181CBD4602B09B
:1037780080BDC04680B582B000AF786039607A6895
:103788003B68101C191CFFF72FFC7B680433181CBE
:10379800FFF7E2FF7B6800221A817B6800229A7299
:1037A8007B681A1D034B1A607B68181CBD4602B063
:1037B80080BDC0469C08002080B582B000AF78600C
:1037C800FFF7CCFA031C181C012107F023FE024B5B
:1037D800181CBD4602B080BD0014004880B584B0F6
:1037E80000AF786039607A683B68101C191CFFF7D5
:1037F80071FA0023FB603B1C0C33181C00F020F905
:10380800FB689BB27A68101C191C0322002300F085
:1038180029F97B68181CBD4604B080BD80B582B00C
:1038280000AF7860FFF792FA031C181C012107F01B
:10383800F1FD024B181CBD4602B080BD00080048CF
:1038480080B584B000AF786039607A683B68101C36
:10385800191CFFF73FFA0023FB603B1C0C33181CB4
:1038680000F060F9FB689BB27A68101C191C0322EF
:10387800002300F065F97B68181CBD4604B080BDC4
:1038880080B584B000AFF860B960391C0A604B603D
:10389800F968BA683B1C081C111C1A685B6800F0C0
:1038A800AFF9FB68181CBD4604B080BD80B582B076
:1038B80000AF786039607A683B68101C191C00F00A
:1038C800C3F97B68181CBD4602B080BD80B582B0C4
:1038D80000AF786039607A683B68101C191CFFF7E4
:1038E800E5FF7B68181CBD4602B080BD90B583B06B
:1038F80000AF786039607C687A683B68101C191CD6
:1039080000F0B8F9031C201C191CFFF78DFABD46FE
:1039180003B090BD80B584B000AF78607B681B6849
:103928003A1C0C32101C191C00F0BEF9FB68181C5C
:10393800BD4604B080BDC04680B584B000AF786095
:103948003B1C0C33181C002100F0AEF9FB68181C56
:10395800BD4604B080BDC04680B584B000AF786075
:1039680039607B681B68FB607B68181CFFF77CFA72
:10397800FB68181CBD4604B080BDC04680B582B047
:1039880000AF78607B681B680433181CBD4602B022
:1039980080BDC04680B582B000AF786039607A6873
:1039A8003B681B78101C191C00F08EF9BD4602B04C
:1039B80080BDC04680B582B000AF786039607B6852
:1039C800181CBD4602B080BD80B582B000AF7860DB
:1039D80039607A683B68101C191CFFF787FA7B6806
:1039E800044A5A61FFF742F97B68181CBD4602B0C9
:1039F80080BDC046FFFF000080B582B000AF786090
:103A08007B68181CBD4602B080BDC04680B582B038
:103A180000AF78607B68181CBD4602B080BDC04608
:103A280080B582B000AF786039607A683B68101C56
:103A3800191C00F07FF97B68181CBD4602B080BDD8
:103A480080B582B000AF78607B681B6801221A439A
:103A58007B681A607B68181C00F080F9BD4602B0CC
:103A680080BDC04680B586B000AF7860081C111CC8
:103A78001A1CBB1C18807B1C19703B1C1A707B68B5
:103A8800BA1C12881A813B1C0C337A1C12785A71A2
:103A98003B1C0C3300221A713B1C1B78002B07D0EF
:103AA8003B1C1B78012B01D1012302E0022300E01B
:103AB80000233A1C0C32D371BB1C1A883B1C0C33F4
:103AC8001A607B685A683B1C0C33101C191C07F0E1
:103AD80051FD3B1C173300221A701AE0BB1C1A88D0
:103AE8003B1C17331B781A41012313400AD07B680B
:103AF80019687B683A1C17321278081C111C1A1CAA
:103B0800FFF7CAF83B1C17331A783B1C17330132EE
:103B18001A703B1C17331B780F2BDFD9BD4606B034
:103B280080BDC04680B582B000AF78607B681B68F6
:103B38008022D2011A437B681A60BD4602B080BD5C
:103B480080B586B000AF7860081C111C1A1CBB1C1D
:103B580018807B1C19703B1C1A707B68BA1C128871
:103B68001A813B1C0C337A1C12785A713B1C0C339B
:103B780000221A713B1C1B78002B07D03B1C1B78BA
:103B8800012B01D1012302E0022300E000233A1CAB
:103B98000C32D371BB1C1A883B1C0C331A607B682F
:103BA8005A683B1C0C33101C191C07F0E3FC3B1C27
:103BB800173300221A701AE0BB1C1A883B1C1733F3
:103BC8001B781A41012313400AD07B6819687B6867
:103BD8003A1C17321278081C111C1A1CFFF75CF8E3
:103BE8003B1C17331A783B1C173301321A703B1CE5
:103BF80017331B780F2BDFD9BD4606B080BDC046F2
:103C080080B584B000AFF860B960391C0A604B60B9
:103C1800F968BA683B1C081C111C1A685B6800F03C
:103C2800ABF8FB68181CBD4604B080BD80B582B0F7
:103C380000AF78607B68181CFFF734F97B68181CA4
:103C4800BD4602B080BDC04680B582B000AF786086
:103C580039607B68181CFFF7E9FF79683B687A6868
:103C6800081C111C1A1C00F0A5F87B68181CBD461E
:103C780002B080BD80B584B000AF786039607B68E1
:103C8800181C00F0A7F8031CFB60FB681A1D3B68B2
:103C9800101C191C00F0AAF8FB6800221A60FB68C7
:103CA800181CBD4604B080BD80B582B000AF7860F6
:103CB80039607A683B68101C191CFFF7C7F87B68E5
:103CC800181CBD4602B080BD90B585B000AF7860C5
:103CD8000A1CFB1C1A707B68181C00F0A3F8041C53
:103CE8007B683A1C0832101C191C00F08DF83B1C2C
:103CF80008335A680123134003D13B1C08331B685F
:103D08000AE03B1C08335B685B10E3181A683B1C2D
:103D180008331B68D3181B683A1C083252685210C3
:103D2800A118FA1C1278081C111C9847BD4605B04A
:103D380090BDC04680B582B000AF786039607A68BF
:103D48003B68101C191C00F08FF87B6800221A6071
:103D58007B68181CBD4602B080BDC04680B582B0E5
:103D680000AF78607B681B6802221A437B681A6080
:103D7800BD4602B080BDC04690B585B000AFF860C2
:103D8800B960391C0A604B60FB68181CFFF74EFFCE
:103D9800FC68BB68181C00F071F8021C3B1C201C56
:103DA800111C1A685B6800F073F8FB68181CBD46A4
:103DB80005B090BD80B584B000AFF860B9607A6096
:103DC800FA687B68101C191CFFF77EF8BD4604B022
:103DD80080BDC04680B582B000AF7860012000F099
:103DE8006FF8031C181CBD4602B080BD80B582B0B8
:103DF80000AF786039607A683B68101C191C00F0C5
:103E080073F8BD4602B080BD80B582B000AF78605F
:103E180039607B683A68043203CA03C37868BD46D0
:103E280002B080BD80B582B000AF78607B681B6847
:103E3800181CBD4602B080BD80B584B000AF786064
:103E48007B68181CFEF7C4F8031CFB60FB68002B9A
:103E580005D17B68181C00F05BF8031CFB60FB684D
:103E6800181CBD4604B080BD80B582B000AF786034
:103E780039607B68181CBD4602B080BD80B582B031
:103E880000AF78607B68181CBD4602B080BDC04694
:103E980090B585B000AFF860B960391C0A604B6016
:103EA800FB681C1DBA683B1C101C19685A68231C47
:103EB80000F04EF8021CFB681A60BD4605B090BDC4
:103EC80080B582B000AF78607B68002B06D07B6835
:103ED8001B01181CFFF7B0FF031C00E00023181C8F
:103EE800BD4602B080BDC04680B582B000AF7860E4
:103EF80039607B680C20191CFEF788FD021C3B68A2
:103F0800101C191CFFF7E2FCBD4602B080BDC0467C
:103F180080B584B000AF78600C4B1B68FB60FB6811
:103F2800002B00D1FEE7FB6898477B68181CFEF75A
:103F38004FF8031CBB60BB68002B01D0BB6800E0D6
:103F4800EAE7181CBD4604B080BDC04698080020AA
:103F580080B584B000AFF860381D016042603B60F6
:103F68003B683A1D03CA03C3FB68181CBD4604B06E
:103F780080BDC04680B500AF024B1B68181CBD460B
:103F880080BDC046A008002080B584B000AF78602E
:103F9800084B1A687B68D318FB60C046054B1A6843
:103FA800FB689A429B415B42DBB2002BF6D1BD46CF
:103FB80004B080BDA008002080B582B000AF786052
:103FC80039607B68181C00F00BF8031C3A689A42A9
:103FD8009B415B42DBB2181CBD4602B080BDC046A7
:103FE80080B584B000AF7860FFF7C4FF031CFB60A6
:103FF800FA687B689A4203D9FA687B68D31A02E0A8
:10400800FA687B68D31A181CBD4604B080BDC04648
:1040180080B582B000AF7860BB1C19803B1C1A8049
:104028007B68BA1C12881A807B683A1C12885A80EE
:104038007B68181CBD4602B080BDC04680B584B000
:1040480000AFF860081C111C1A1C3B1C0A331880AE
:104058003B1C08331980BB1D1A80FB683A1C0A32C6
:1040680012881A80FB683A1C083212885A80FB684A
:10407800BA1D12889A80FB683A1C18321288DA80B6
:10408800FB68181CBD4604B080BDC04680B582B030
:1040980000AF786039607A683B68101C191C00F022
:1040A80005F87B68181CBD4602B080BD80B582B09B
:1040B80000AF786039603B681A887B681A803B6873
:1040C8005A887B685A803B689A887B689A803B68E4
:1040D800DA887B68DA80BD4602B080BD80B582B0E0
:1040E80000AF78607B685B68181CBD4602B080BD75
:1040F80080B582B000AF78600A1CFB1C1A707B6820
:104108009A68FB1C1B789BB2101C191C00F0FEFB64
:10411800BD4602B080BDC04680B582B000AF7860B1
:104128007B685A697B68DB699A4204D27B685B6961
:104138005A1C7B685A617B68181CBD4602B080BD5A
:1041480080B582B000AF78607B685A697B689B69EC
:104158009A4204D97B685B695A1E7B685A617B68FE
:10416800181CBD4602B080BD80B582B000AF786033
:104178007B685B69181CBD4602B080BD90B589B0EC
:1041880000AF786039603B68181C00F003FAFFF74D
:10419800F1FE031CFB61FA69FA239B00101C191C31
:1041A800FFF70AFF031C002B07D03B68181C00F020
:1041B80051FAFFF7DFFE031CFB613B68DB68DBB2EB
:1041C800002B47D03B68DB681B041B0EDBB2012BBE
:1041D80008D002D3022B0AD039E03B68181C00F043
:1041E8003FF834E03B68181C00F0AAF82FE03B6861
:1041F800181C00F015F9031C002B27D03B68283346
:10420800181CFFF7B1FF021C3B1C0C331A603B68FB
:104218004833181CFFF7A8FF021C3B1C0C335A60DC
:104228003B686833181CFFF79FFF021C3B1C0C33CC
:104238009A603B68DA7B3B1C0C331A737B683A1C28
:104248000C3213CA13C312681A6004E0C0463B68F4
:1042580000221A739FE77868BD4609B090BDC04632
:1042680080B582B000AF78607B681B7C002B36D0AD
:104278007B689B7B052B13D0062B20D0042B00D00A
:104288002CE07B682833181CFFF75AFF7B681A1C40
:1042980028327B681B68101C191CFEF797FC1DE070
:1042A8007B684833181CFFF74BFF7B681A1C4832A1
:1042B8007B681B68101C191CFEF788FC0EE07B68E5
:1042C8006833181CFFF73CFF7B681A1C68327B6850
:1042D8001B68101C191CFEF779FCC0462AE07B6895
:1042E800181C002100F00CFA7B689B7B062B1CD85D
:1042F8009A00124BD3181B689F467B6806229A7354
:1043080013E07B6800229A730FE07B6801229A739E
:104318000BE07B6802229A7307E07B6804229A7399
:1043280003E07B6805229A73C0467B68181C01214C
:1043380000F0E6F9BD4602B080BDC04644BA0008A8
:1043480080B582B000AF78607B681B7C002B36D0CC
:104358007B689B7B052B13D0062B20D0042B00D029
:104368002CE07B682833181CFFF7D6FE7B681A1CE4
:1043780028327B681B68101C191CFEF727FC1DE0FF
:104388007B684833181CFFF7C7FE7B681A1C483245
:104398007B681B68101C191CFEF718FC0EE07B6874
:1043A8006833181CFFF7B8FE7B681A1C68327B68F4
:1043B8001B68101C191CFEF709FCC0462AE07B6824
:1043C800181C002100F09CF97B689B7B062B1CD8ED
:1043D8009A00124BD3181B689F467B6801229A7378
:1043E80013E07B6802229A730FE07B6804229A73B9
:1043F8000BE07B6805229A7307E07B6806229A73B4
:1044080003E07B6800229A73C0467B68181C012170
:1044180000F076F9BD4602B080BDC04660BA00081B
:1044280080B5A4B000AF78607B681B7C002B08D0F7
:104438007B6800221A747B68181C012100F060F95F
:104448003DE07B689B7B062B38D89A001E4BD3181F
:104458001B689F467B681B7C01225340DAB27B684D
:104468001A747B68181C012100F04AF927E07B6860
:104478001B683A1C0832101C191C01F099FA7B6859
:104488009B7B5A425341DAB27B68DA737A683B1CE9
:104498000833101C191C00F085F93B1C0833181C44
:1044A800FEF786FB0BE07B685B7C002B04D07B6807
:1044B800181C00F00BF802E0012301E0C0460023BD
:1044C800181CBD4624B080BD7CBA000880B5AAB0CF
:1044D80002AF78607B681B683A1C0832101C191CF4
:1044E80001F066FA7B681B68181CFFF7F7FD031CD0
:1044F8009822D2191360391C9031BB235A003223F9
:10450800FF331A200090081C111C1A1C1A23FFF7ED
:1045180095FD9823DB191A681D4B101C191C00F017
:1045280047FA3B1C9F3300221A7023E09823DB19BB
:104538001A683B1C9033101C191C00F04BFAFA2324
:104548005B00181CFFF720FD381C0830391C90311F
:10455800BA23DA01A923DB0001F04EFAFA235B0043
:10456800181CFFF711FD3B1C9F331A783B1C9F3327
:1045780001321A703B1C9F331B78042BD6D93B1C85
:104588000833181CFEF714FBBD4628B080BDC04692
:104598008C827A0080B5A8B002AF78607B681B680F
:1045A8003A1C0832101C191C01F002FA7B68181C0E
:1045B80002F01EFF3B1C903318220092181C142195
:1045C80014225B23FFF73AFD381C0830391C903160
:1045D800D223DA011D4B01F00FFA78680723DBB20A
:1045E800391C08311A4A02F0DDFD7A683B1C083391
:1045F800101C191C012200F06BF87B681A1C283269
:104608007B681B68101C191CFEF7E0FA7B681A1CF3
:1046180048327B681B68101C191CFEF7D7FA7B68A8
:104628001A1C68327B681B68101C191CFEF7CEFA2E
:104638007B681B68181C5F21FFF75AFD3B1C083379
:10464800181CFEF7B5FABD4626B080BD1011000053
:1046580098BA000890B5A9B000AF78603B1C9433B5
:10466800181C02F055FA031C1A1C3B1C98331A60DC
:104678003B1C98339B785A1E9341DAB27B685A7474
:104688007B681B683A1C0C32101C191C01F090F94D
:104698007B681C1C1434391C9C31B0235A003E23FF
:1046A800FF33081C111C1A1CFFF7B2FC391C0C3113
:1046B8003A1C9C323B1C9833201C05F00FFF3B1C16
:1046C8000C33181CFEF774FABD4629B090BDC046DD
:1046D80080B584B000AFF860B960FB1D1A70FA6845
:1046E800FB1D1B78101C191C00F00AF8FA68BB683F
:1046F800101C191C00F056F8BD4604B080BDC04619
:10470800B0B588B002AF78600A1CFB1C1A707B68D1
:104718009B7B1A1C131C9B009B18DB001F4A9B18D1
:104728007B617B685A68FB1C1B78002B08D07B6870
:104738001B7C002B02D0FF231B0202E0184B00E079
:104748000023101C191C00F033F97B685C687B6936
:104758001B88053B9BB299B27B695B88053B9BB282
:104768009AB27B699B880A339BB29BB27869C088EE
:104778000A3080B285B2381C0C3009B212B21BB2B2
:104788002DB20095FFF75AFC3B1C0C33201C191C5A
:1047980000F03EF9BD4606B0B0BDC04698BA000864
:1047A80000A5FF0080B586B004AF786039607B68EB
:1047B800DB7B002B10D079683A68BC231B02A92048
:1047C800C00000900E48019001200290081C111CA6
:1047D800002200F019F80FE079683A68CC231B0230
:1047E800A920C00000900748019000200290081CF2
:1047F800111C012200F008F8BD4602B080BDC04679
:1048080099CD0000D2C3000090B58BB002AFF8601C
:10481800B9603B60FB1D1A70FB1D1A783A49131CDE
:104828009B009B18DB00595AFB1D1A783648131C4D
:104838009B009B18DB00C3189B88CB189BB2213BBD
:104848009BB298B2FB1D1A782F49131C9B009B182A
:10485800DB00CB185B8807339BB29BB2391C103145
:1048680002B21BB21A200090081C111C1A1C1A2331
:10487800FFF7E4FBB868391C10313A683B6B01F06C
:10488800BBF8FB685A687B6B101C191C00F090F889
:10489800FB685C683B1C38331A781B49131C9B0067
:1048A8009B18DB00595A3B1C38331A781648131CDE
:1048B8009B009B18DB00C3189B88CB189BB2213B3D
:1048C8009BB298B23B1C38331A780F49131C9B00D3
:1048D8009B18DB00CB185B8807339BB29BB2391C53
:1048E800183102B21BB21A200090081C111C1A1CA5
:1048F8001A23FFF7A3FB3B1C1833201C191C00F0DC
:1049080069F8BD4609B090BD98BA000880B584B072
:1049180000AF78600A1CBB1C1A80BB1C1A88131CC9
:104928001B029B1A181C6421FBF776FC031C1A1C3B
:104938003B1C0F331A703B1C0E3301221A703B1CB0
:104948000D3300221A707B685B68181CB92100F0CF
:1049580021F97B685B68181C012100F035F97B6838
:104968005A683B1C0F331B789BB2101C191C00F0B3
:104978002BF97B685B68181C032100F025F97B681C
:104988005A68391C0E313B1C0D3309781B780B43D0
:10499800DBB218210B43DBB2101C191C00F014F910
:1049A8007B68BA1C12881A80BD4604B080BDC04618
:1049B80080B582B000AF7860396079687B68103361
:1049C8003A68081C111C1A1C00F07EF8BD4602B09B
:1049D80080BDC04680B582B000AF786039607B6822
:1049E8001A1D3B68101C191C00F090F879683B6888
:1049F8009B881BB23A68D28812B25A437B6810333C
:104A0800081C111C1A1C00F0ABF8BD4602B080BD92
:104A180080B584B000AF786039603A1C08323B68D2
:104A2800101C191CFFF732FB3B1C08330122DA80EB
:104A38007A683B1C0833101C191CFFF7CBFF3B1C82
:104A480008335B889AB23B68DB889BB2D3189BB269
:104A5800013B9BB29AB23B1C08335A807A683B1CD4
:104A68000833101C191CFFF7B5FF3B68DA883B1C9C
:104A78000833DA803B685A883B1C08335A803B1C51
:104A8800083301229A807A683B1C0833101C191CD1
:104A9800FFF7A0FF3B1C08331B889AB23B689B8832
:104AA8009BB2D3189BB2013B9BB29AB23B1C083312
:104AB8001A807A683B1C0833101C191CFFF78AFF00
:104AC800BD4604B080BDC04680B584B000AFF86074
:104AD800B9607A60BA68F8231B041340DB0C9AB2F9
:104AE800B968FC231B020B405B099BB213439AB2C3
:104AF800BB6899B2F8230B409BB21B029BB21343CD
:104B08009AB27B681A80BD4604B080BD90B585B066
:104B180002AF786039603B6819883B685A883B68FF
:104B28001B8898B23B689B889BB2C3189BB2013B19
:104B38009BB29BB23868408884B23868C08880B21B
:104B4800201880B2013880B284B2786809B212B2F3
:104B58001BB224B2009400F04FF8BD4603B090BDDC
:104B680080B584B000AFF860B9607A60FB681B68F4
:104B7800181C2C2100F00EF8FB6819687B681B884C
:104B8800BA68081C111C1A1C00F0A8F8BD4604B02D
:104B980080BDC046B0B582B000AF78600A1CBB1CAF
:104BA8001A807B685A687B6819687B689B68786894
:104BB80080897C68E489BD1C2D881D6014601060A4
:104BC8000860BD4602B0B0BDB0B582B000AF786035
:104BD8000A1CBB1C1A807B685A687B6819687B684A
:104BE8009B6802200424BD1C2D881D600C60106089
:104BF8000860BD4602B0B0BD80B584B000AFF860B3
:104C0800081C111C1A1C3B1C0A3318803B1C083357
:104C18001980BB1D1A80FB681A683B1C0A330021E7
:104C28005B5E1B129BB2101C2A211A1C00F01CF997
:104C3800FB681A683B1C0A331988FF230B409BB298
:104C4800101C191CFFF7C0FFFB681A68BB1D002168
:104C58005B5E1B129BB2101C191CFFF7B5FFFB68AB
:104C68001A68BB1D1988FF230B409BB2101C191C26
:104C7800FFF7AAFFFB681A683B1C083300215B5E3C
:104C88001B129BB2101C2B211A1C00F0EDF8FB68BC
:104C98001A683B1C08331988FF230B409BB2101C71
:104CA800191CFFF791FFFB681A683B1C1833002199
:104CB8005B5E1B129BB2101C191CFFF785FFFB687B
:104CC8001A683B1C18331988FF230B409BB2101C31
:104CD800191CFFF779FFBD4604B080BD90B585B0BB
:104CE80000AFF860B960BB1D1A80FB681968FB68E3
:104CF80098680423BA1D128802600B60FB685A6822
:104D0800FB681968FB6818690223BC68282C52D311
:104D180013600B6013600B6013600B6013600B6013
:104D280013600B6013600B6013600B6013600B6003
:104D380013600B6013600B6013600B6013600B60F3
:104D480013600B6013600B6013600B6013600B60E3
:104D580013600B6013600B6013600B6013600B60D3
:104D680013600B6013600B6013600B6013600B60C3
:104D780013600B6013600B6013600B6013600B60B3
:104D880013600B6013600B6013600B6013600B60A3
:104D980013600B6013600B6013600B6013600B6093
:104DA80013600B6013600B6013600B6013600B6083
:104DB800283C282CACD22B48A400001B013000470B
:104DC80013600B6013600B6013600B6013600B6063
:104DD80013600B6013600B6013600B6013600B6053
:104DE80013600B6013600B6013600B6013600B6043
:104DF80013600B6013600B6013600B6013600B6033
:104E080013600B6013600B6013600B6013600B6022
:104E180013600B6013600B6013600B6013600B6012
:104E280013600B6013600B6013600B6013600B6002
:104E380013600B6013600B6013600B6013600B60F2
:104E480013600B6013600B6013600B6013600B60E2
:104E580013600B6013600B6013600B60BD4605B0F8
:104E680090BD0000644E000880B582B000AF786045
:104E7800BB1C19803B1C1A807A68BB1C1B88101C41
:104E8800191CFFF787FE7A683B1C1B88101C191C2D
:104E9800FFF79AFEBD4602B080BDC04680B584B01B
:104EA80000AFF860B9607A603B60FB68BA689A60E6
:104EB800BB681A047B681A43FB681A60FB683A6887
:104EC8005A600023181CBD4604B080BD80B500AFF1
:104ED80080235B01181C012106F0BAFABD4680BD8B
:104EE80080B584B000AFF860B960FB1D1A70BA686D
:104EF800FB1D1B78101C191C06F002FABD4604B0F5
:104F080080BDC04680B582B000AF786039603B682C
:104F1800181C06F019FA031C181CBD4602B080BD07
:104F280080B582B000AF78607B68181CBD4602B0BF
:104F380080BDC04680B584B000AFF860B9607A60C3
:104F48003B60FB68181CFFF7EBFFFB687A685A6048
:104F5800FB68BA681A60FB683A689A60FB683A1C92
:104F6800183212889A81FB68181CBD4604B080BDAF
:104F780080B582B000AF78607B681B68181C01217F
:104F880006F080F9BD4602B080BDC04680B582B04B
:104F980000AF78607B681B68181CBD4602B080BDF6
:104FA80090B585B000AF78607B681B683C1C0F34F7
:104FB800181C702106F00AFA031C23703B1C0F33DF
:104FC8001B785A1E9341DBB2002B0DD03B1C0F33CC
:104FD8001B78084A101C16210122FFF75FFF031CEB
:104FE80001225340DBB200E00023181CBD4605B087
:104FF80090BDC046A808002080B582B000AF786098
:105008000A1CFB1C1A70FB1C1B78002B09D07B6840
:105018005A687B689B689BB2101C191C06F06AFBD7
:1050280008E07B685A687B689B689BB2101C191C57
:1050380006F06EFBBD4602B080BDC04690B585B097
:1050480000AFF860B9607A603DE008E0FB68181CC2
:10505800FFF7A6FF031C002B01D000233CE0FB68F0
:10506800181C00F03DF8031C01225340DBB2002B52
:10507800ECD1FB681B68FA68101C191C0022FFF7AA
:105088002FFF08E0FB68181CFFF78AFF031C002BA2
:1050980001D0002320E0FB681B68181C012106F0E2
:1050A80095F9031C5A425341DBB2002BEAD1BC6884
:1050B800631CBB60FB681B68FA68101C191CFFF7AF
:1050C80021FF031C23707B685A1E7A605A1E934185
:1050D800DBB2002BB9D10123181CBD4605B090BD29
:1050E80080B582B000AF78607B681B68181C02210D
:1050F80006F06CF9031C5A1E9341DBB2181CBD461E
:1051080002B080BD90B585B000AFF860B9607A6034
:105118003B6050E008E0FB68181CFFF741FF031CE8
:10512800002B01D000234FE0FB68181CFFF7D8FFC5
:10513800031C01225340DBB2002BECD1FB681A6838
:10514800BB68591CB9601B78F968081C111C1A1C2B
:10515800FFF7C6FEFB689B89002B2CD108E0FB6893
:10516800181CFFF71DFF031C002B01D000232BE0A8
:10517800FB681B68181C012106F028F9031C5A4219
:105188005341DBB2002BEAD13B68002B0CD03C68C2
:10519800631C3B60FB681B68FA68101C191CFFF74E
:1051A800B1FE031C237006E0FB681B68FA68101C3C
:1051B800191CFFF7A7FE7B685A1E7A605A1E934196
:1051C800DBB2002BA6D10123181CBD4605B090BD4B
:1051D80080B582B000AF786039607B683A681A6041
:1051E8007B68181CBD4602B080BDC04680B582B041
:1051F80000AF786039607B683A681A607B681B6822
:10520800181C0021FFF7F8FE7B68181CBD4602B089
:1052180080BDC04680B582B000AF78607B681B68EF
:10522800181C0121FFF7E8FE7B68181CBD4602B078
:1052380080BDC046B0B586B000AF78607B68181CEA
:10524800002100F0D3F93B1C0833181C00F0DCF9EE
:105258003B1C0833822252005A803B1C0833002230
:105268009A803B1C0833E022D200DA813B1C0833C9
:1052780000221A813B1C083300225A817D681420C1
:10528800FDF7B6FB041C3B1C0833201C191C00F05E
:10529800DFF9281C211C00F0F3F97B68181CBD46B7
:1052A80006B0B0BD90B585B000AF78603B1C083340
:1052B80020221A703B1C08330F225A703B1C0833FB
:1052C800F0229A703B1C08330022DA707B68181CA5
:1052D80000F05EF9031C01225340DBB2002B01D021
:1052E80000232FE07B68181C00F0E4F9031C181C4D
:1052F8000021FFF781FE7B68181C00F0DBF9031C16
:105308001A1C3C1C0F343B1C0833101C191C0422AB
:105318000023FFF7F7FE031C23707B68181C00F0BE
:10532800C9F9031C181C0121FFF766FE3B1C0F334B
:105338001B78002B05D07B68181C00F009F9031CAA
:1053480000E00023181CBD4605B090BDB0B584B080
:1053580000AF786039603B1C0C3302221A703B1C8A
:105368000C330F225A703B1C0C33F0229A703B1CF2
:105378000C330022DA707B68181C00F009F9031C52
:1053880001225340DBB2002B01D0002448E07B68A7
:10539800181C00F099F9031C3A1C0832101C191C3F
:1053A800FFF724FF7B68181C00F084F9031C1A1C03
:1053B8003B1C0C33101C191C04220023FFF7A2FE0F
:1053C800031C01225340DBB2002B02D0002400252D
:1053D80018E07B68181C00F06DF9031C191C3A686A
:1053E80080235B00081C111C1A1C0023FFF78AFE8F
:1053F800031C01225340DBB2002B02D000240025FD
:1054080000E001253B1C0833181CFFF703FF012DA2
:1054180006D1C0467B68181C00F09AF8031C1C1CB7
:10542800231C181CBD4604B0B0BDC04690B585B05D
:1054380000AF786039603B1C0C3303221A703B1CA8
:105448000C330F225A703B1C0C33F0229A703B1C11
:105458000C330022DA707B68181C00F035F9031C45
:105468003A1C0832101C191CFFF7C0FE7B68181C78
:1054780000F020F9031C1A1C3B1C0C33101C191CCF
:1054880004220023FFF73EFE031C01225340DBB237
:10549800002B01D000240FE07B68181C00F00AF9EB
:1054A800031C191C3A6880235B00081C111C1A1C79
:1054B800FFF7C4FD031C1C1C3B1C0833181CFFF71A
:1054C800A9FE231C181CBD4605B090BD90B585B03B
:1054D80000AF786039603B1C0F3305221A707B6877
:1054E800181C00F0F1F8031C3A1C0832101C191C97
:1054F800FFF77CFE7B68181C00F0DCF8031C1A1C04
:105508003B1C0F33101C191C01220023FFF7FAFD66
:10551800031C01225340DBB2002B01D000240DE014
:105528007B68181C00F0C6F8031C1A1C3B68101C8A
:10553800191C0122FFF782FD031C1C1C3B1C0833AD
:10554800181CFFF767FE231C181CBD4605B090BD4C
:1055580080B584B000AF78607A683B1C0F33101CAC
:10556800191CFFF7B3FF031C01225340DBB2002BC9
:1055780001D0002307E03B1C0F331B781A1C0123C2
:105588001340E9D10123181CBD4604B080BDC046B4
:1055980090B585B000AF78603B1C0F3306221A70B7
:1055A8007B68181C00F090F8031C3A1C0832101C89
:1055B800191CFFF71BFE7B68181C00F07BF8031C06
:1055C8001A1C3B1C0F33101C191C01220023FFF767
:1055D80099FD031C1C1C3B1C0833181CFFF71AFE02
:1055E800231C181CBD4605B090BDC04680B582B0CE
:1055F80000AF786039607B683A681A607B68181C6D
:10560800BD4602B080BDC04680B582B000AF7860AC
:105618007B68E022D200DA817B6800221A807B68EE
:10562800822252005A807B6818229A807B68002266
:10563800DA807B6802221A817B6801225A817B68A2
:1056480007229A817B68181CBD4602B080BDC046FF
:1056580080B582B000AF786039607A683B68101C0A
:10566800191C00F03BF87B681A1C10327B68101C70
:10567800191C00F097F87B68181CBD4602B080BD65
:1056880090B583B000AF786039607B681A683B6872
:105698009A420CD07B681C68002C05D0201CFDF7B2
:1056A800B3FA201CFDF7CAF97B683A681A60BD4650
:1056B80003B090BD80B582B000AF78607B681B688E
:1056C800181CBD4602B080BD80B582B000AF7860BE
:1056D8007B681B68181CBD4602B080BD80B58AB0C7
:1056E80002AF7860396079683B6818882C4A902343
:1056F800DB050090081C111C1A1C0823FFF71AFC74
:10570800FFF7E4FB3B685B88181C00F067F83B1C5C
:105718000C33181C05F010FD3B681A883B1C0C3331
:105728001A803B685A883B1C0C335A803B68DA89DC
:105738003B1C0C339A803B681A893B1C0C33DA807B
:105748003B685A893B1C0C331A813B1C0C33802262
:1057580092005A813B689A883B1C0C339A813B68BB
:10576800DA883B1C0C33DA813B689A893B1C0C3382
:105778001A827B681A683B1C0C33101C191C05F034
:10578800FFFC7B68181C0121FFF736FC7B68181C9E
:10579800FFF7EEFB7B68181CBD4608B080BDC0460D
:1057A8000030014080B582B000AF786039607A6817
:1057B8003B68101C191CFFF70BFD3B68181CFFF712
:1057C800E5FB021C80235B01101C191C05F07AFD07
:1057D8007B68181CBD4602B080BDC04680B586B047
:1057E80004AF021CBB1D1A809023DB050222009225
:1057F8000122019200220292181C20210322032375
:1058080005F048F99023DB0502220092012201925B
:1058180000220292181C80210322032305F03AF982
:105828009023DB05022200920122019200220292BB
:10583800181C40210322032305F02CF9BB1D1A88EC
:1058480082235B009A420CD19023DB050022009250
:1058580001220192181C08210022032305F064F993
:105868000BE09023DB050022009201220192181C14
:1058780008210122032305F057F9BD4602B080BD77
:1058880080B500AF0120012105F0C4FDBD4680BDF3
:1058980080B584B000AFF860B9607A603B60FB689F
:1058A800BA681A60FB687A685A60FB683A689A6056
:1058B800FB68BA69DA60FB68181CBD4604B080BD95
:1058C80080B582B000AF78607B685B68181C05F013
:1058D800EDFF031C5A1E9341DBB2002B05D07B68F9
:1058E800181C00F021F8012300E00023181CBD4615
:1058F80002B080BD80B582B000AF78607B689B68DD
:10590800181C05F0D3FF031C5A1E9341DBB2002B71
:1059180005D07B68181C00F013F8012300E0002371
:10592800181CBD4602B080BD80B582B000AF78605B
:105938007B685B68181C05F0D9FFBD4602B080BDC6
:1059480080B582B000AF78607B689B68181C05F052
:10595800CDFFBD4602B080BD80B582B000AF786093
:105968007B681B68181CBD4602B080BD80B582B03C
:1059780000AF786039607B683A681A607B68181CE9
:10598800BD4602B080BDC04680B582B000AF786029
:105998007B680433181CBD4602B080BD80B582B058
:1059A80000AF78607B681B68181CBD4602B080BDDC
:1059B80080B582B000AF786039607B68181CFFF74B
:1059C80039FC7B680433181C00F004F97B68443305
:1059D800181C00F01FF97A6884233968D1507B6855
:1059E8005433181CFFF7D0FF031C00225A617B6850
:1059F800181CBD4602B080BD80B5704FBD4400AFD5
:105A0800F860B9607A603B60FA688423D358181C40
:105A1800FEF764FB031C6A48C0190360FA68842314
:105A2800D358181CFFF7BAFF031C8421C900C919F1
:105A38000B60634AD21913681A1DBB68101C191C25
:105A4800FFF764F85E48C0190368181C00F002F9F3
:105A58008321C9007B1803221A707B681B0CDAB2F9
:105A68008320C0003B185A707B681B0ADAB2832176
:105A7800C9007B189A707B68DAB28320C0003B1893
:105A8800DA70FB68181CFFF71FFE031C4D497A18D3
:105A9800101C191CFFF7AAFBFB68181CFFF70AFE6D
:105AA800031C1A1C8320C0003B18101C191C04225C
:105AB8000023FFF727FB44497B1800221A7050E0A7
:105AC800FB68191C14313A1C14328023DB00081CB3
