:020000040800F2
:10000000002000208D960008D9960008D996000897
:1000100000000000000000000000000000000000E0
:10002000000000000000000000000000D996000859
:100030000000000000000000D9960008E9990008BF
:10004000D9960008D9960008D9960008D9960008D4
:10005000D9960008D9960008D9960008D9960008C4
:10006000D9960008D9960008D9960008D9960008B4
:10007000D9960008D9960008D9960008D9960008A4
:10008000D99600084599000800000000D99600089C
:10009000D9960008D9960008D9960008D996000884
:1000A000D9960008D9960008D9960008D996000874
:1000B000D996000800000000D99600080000000052
:0400C0005FF808F1EC
:1000C80008B5064B064803331B1A062B00D808BD93
:1000D800044B002BFBD09847F9E7C0465408002092
:1000E800540800200000000008B50748074B1B1AF9
:1000F8009B10DA0FD318591000D108BD044A002A02
:10010800FBD09047F9E7C046540800205408002067
:100118000000000010B5074C2378002B09D1FFF729
:10012800CFFF054B002B02D0044800E000BF01239D
:10013800237010BD54080020000000000CA6000821
:1001480008B5094B002B03D00848094900E000BF57
:1001580008480368002B03D0074B002B00D09847B2
:10016800FFF7C2FF08BDC046000000000CA600084B
:1001780058080020540800200000000002B471460E
:1001880049084900095C49008E4402BC7047C046D2
:10019800002934D00123002210B488422CD3012432
:1001A8002407A14204D2814202D209011B01F8E7C7
:1001B800E400A14204D2814202D249005B00F8E780
:1001C800884201D3401A1A434C08A04202D3001BAC
:1001D8005C0822438C08A04202D3001B9C082243DF
:1001E800CC08A04202D3001BDC082243002803D01D
:1001F8001B0901D00909E3E7101C10BC704700284F
:1002080001D00020C04307B4024802A14018029060
:1002180003BDC046190000000029F0D003B5FFF760
:10022800B9FF0EBC4243891A1847C0467047C046FA
:100238008446101C62468C46191C634600E0C04682
:100248001FB500F065FF002801D40021C8421FBD7A
:1002580010B500F099FE4042013010BD10B500F015
:1002680057FF002801DB002010BD012010BDC0464B
:1002780010B500F04DFF002801DD002010BD012061
:1002880010BDC04610B500F0C9FE002801DC0020F2
:1002980010BD012010BDC04610B500F0BFFE0028FB
:1002A80001DA002010BD012010BDC046000000008A
:1002B80038B50E4B0C4A041C0D1CFFF7EDFF002847
:1002C80004D1201C291C01F06BFD38BD074B064AE0
:1002D800201C291C01F02EFA01F062FD80231B0668
:1002E800C018F2E7C046C046000000000000E04128
:1002F800F8B55F46564644464D46F0B40C034D00EB
:10030800CE0F610A440F2143C400180380465800E9
:10031800400D8246D80F84464046400A530F034397
:10032800D0006D0D371C83465246664500D1A4E0C7
:10033800AF1A002F00DC09E1002A3BD1184300D096
:10034800EAE0630700D187E00F232340042B00D1A4
:1003580082E0221DA242A4416442802309191B04A1
:100368000B40371C141C002B00D17CE0CE4B013510
:100378009D4200D105E1CD4BE408194048074902E8
:1003880004430B0B002000211B031A0B0B0D6D05FA
:100398001B0513436A08C64DFF071D4015436D0032
:1003A8006D08291C3943201C3CBC90469946A2463E
:1003B800AB46F8BDBC488542C3D080200004034347
:1003C800382F00DDF0E01F2F00DD24E12020C01BC6
:1003D8001A1C814682405846F840024394465846C3
:1003E8004A469040421E9041FB40624602431F1C11
:1003F800A21A9442A4416442C91B091B141C0B0293
:100408009FD549024F0A002F00D1C8E0381C01F0DF
:100418006DFD021C083A1F2A00DDB5E02821091AE3
:10042800201C9740C84007439440954200DDB2E045
:10043800551B691C1F2900DDDCE01F22551B3B1CD6
:10044800221CAB40CA40AC40651EAC411343CF40B0
:100458001C43391C002574E780231B040B40371C00
:10046800002B00D082E7904B4807E4080443C908F2
:100478009D4248D009030B0B84E7AA1A9446002A28
:1004880000DC98E05046002852D08748854200D1C9
:1004980057E78020000403436246382A00DDFCE069
:1004A8001F2A00DD4AE120226046101A1A1C8240E9
:1004B8008246914658466246D0404A460243904694
:1004C800584652469040421E90414246024360467A
:1004D800C3401219A242A441644259180919141CB4
:1004E800080200D42DE7704B01359D4200D122E16E
:1004F8006E4B60081940012323401C1C0443CB07A2
:100508001C4349081DE7231C0B433AD080231B03D7
:100518000B431B031B0B35E7013F002F65D15846E2
:10052800221A9442A4416442C91A091B141C66E7A2
:100538005846184300D104E70122524294446046C9
:10054800002800D0C5E058460219C3E7002F73D130
:10055800681C4005400D012800DCDEE05A46A21A5E
:100568009442BF41C81A7F42C71B380200D489E0B1
:100578005A46141BA3459241591A52428F1A66468D
:1005880041E700230024FDE6271C28388740002483
:10059800954200DC4CE74549AD1A3940D1E6201CAC
:1005A80001F0A4FC203034E75A461A43531E9A41FE
:1005B800D2B200271CE7002A00D0DCE0681C420504
:1005C800520D012A00DC8DE0374DA84200D1F3E03E
:1005D8005D462A19A242A441644259180919CC0758
:1005E800520814434908051CABE62F48854200D041
:1005F800E6E6A6E62B1C1F3B3A1CDA40131C202912
:100608006CD03F22551BAF403C43601E84411C43C5
:100618000021002595E6381C20381A1CC240101C01
:10062800202F5DD04022D71BBB405A461A43531E89
:100638009A4102430027DBE6002D3BD01A4DAA451C
:1006480000D193E080252D047F422943382F00DD17
:10065800ACE01F2F00DD29E12025ED1B081C261C1E
:10066800A840FE40AC400643651EAC413443F94007
:100678005D462C1BA34592415B1A5242991A554676
:100688006646BCE6131C3B43141C002B00D0BAE69C
:100698000027002100240025E5E65A461A43531E88
:1006A8009A41D2B2002314E7FF070000FFFF7FFF43
:1006B800FFFF0F800D1C254358D0FF43002F51D159
:1006C800041BA3459241591A5242891A5546664657
:1006D80095E69648854200D0DEE632E6002793E7A5
:1006E8000023A2E7081C2043002D00D0C4E0002806
:1006F80000D1F7E05846184300D122E658460219BF
:10070800A242A441644259180919141C0A0200D4CF
:1007180017E6874B0125194013E6081C2043002DD6
:1007280039D1002871D15946194303D0191C5C46A8
:10073800664606E600270021002494E66046203835
:100748001A1CC24060469146202800D1ACE04022E5
:10075800121A93405A461A43531E9A414B461A435B
:100768000023B6E6714DAA4500D06FE7191C5C4618
:1007780055466646E5E5002D22D10D1C254377D068
:10078800D543002D71D15C445C45924159185242C1
:1007980089185546A4E600284DD15946194300D179
:1007A80094E0191C5C466646604DCAE50C43611E20
:1007B8008C41E4B200215BE7051C0021002452E6CD
:1007C8005A4DAA4554D05542802210040143382D71
:1007D80000DD81E01F2D00DD92E02022501B0A1C65
:1007E80084468240201CE84002439046624694407A
:1007F800601E844142461443E9405C445C45924192
:10080800CB185242991855466AE65846184300D103
:1008180097E55846271ABC429241C81A5242801A94
:10082800020266D55846041BA3459241591A524202
:10083800891A664685E55846184333D04807E408C0
:1008480004438020C9080003014208D0DD0805429E
:1008580005D15946CA085C071443291C6646630F2C
:10086800C9001943E400314D6BE5304A9245AED1D9
:10087800191C5C46554664E5002836D0584618438E
:1008880010D080254807E408C9082D0304432942ED
:10089800E5D0D8082842E2D15D46EA085C0714434F
:1008A800011CDCE7214D4CE5002353E73D1C203DAE
:1008B8000A1CEA40151C202F34D04026F71BB940EB
:1008C8000C43611E8C412C430021D1E608240027EB
:1008D80018496442154DC6E50C43611E8C41E4B2CB
:1008E80000218AE7191C5C462BE5191C5C460F4D54
:1008F80027E5031C3B4300D11CE7011C3C1C20E5F9
:100908002020404240190A1CC2409046202D0BD09E
:100918004020451BA9400C43611E8C4141460C43B5
:1009280000216AE70021CBE70021F4E7FF07000078
:10093800FFFF7FFFFFFF7F00F0B5564644465F4646
:100948004D46F0B41F1C0B031B0B98464B0087B099
:10095800041C81465B0DC80F161C9A460090002B9C
:1009680051D06B4B9A4531D08022414652030A43FD
:10097800630FD2001A43674B90460025E200914668
:100988009A44002402953B031B0B9B46FD0F7B00FA
:10099800311C5B0D019560D05D4A934254D0802193
:1009A800584649030143720FC9001143594A8B46FF
:1009B8009B18F1000020009A04436A4003920F2C10
:1009C80000D9B1E0544EA4003459A7464046044328
:1009D8006ED1002102250824884689460295D2E76F
:1009E800009C0298C34649460194022864D0032813
:1009F80000D1AFE2012800D03CE2019A0024024075
:100A08000025A14660E0434623434AD040460028DB
:100A180000D1C4E101F06AFA031E272B00DDB7E11B
:100A280028210D1A211C083B4246E9409A400D1C1A
:100A38001543221C9A40A8469146384B00251B1A9C
:100A48009A46002402959EE75A4616430320002E34
:100A5800B1D1B34600210220ADE75A4632431BD03C
:100A68005B46002B00D18EE1584601F03FFA27285B
:100A780000DD81E12822171A011C321C08395B4667
:100A8800FA408B40171C1F43331C8B40BB46191C74
:100A9800224B1B1A00208EE70027BB4600210120AD
:100AA80089E70020012504248046814602956AE7EB
:100AB80003250C24029566E7019E0396039F0122F5
:100AC8000024134D3A40A146002000212403260BA0
:100AD8000C0D2405124B34432D0523402B435B009A
:100AE8005B08D207191C4846114307B03CBC904626
:100AF8009946A246AB46F0BD01235B420022094C51
:100B08009946034DE0E700240025A146DCE7C046EE
:100B1800FF07000001FCFFFF50A100080DFCFFFFCC
:100B2800FFFF0F80FFFF0F005546ED1A0495D845CB
:100B380000D953E100D14EE1049C0025013C4E460A
:100B480004944746A946584603020C0E1C43090262
:100B5800250C23041B0C0091381C291C0193FFF75A
:100B680017FB019983464143381C8A46291CFFF725
:100B780053FB330C090419438A450CD95B46091900
:100B8800013B8C4200D947E18A4500D844E1022262
:100B98005242934409195346CB1A181C291C9846EB
:100BA800FFF7F6FA071C0198291C7843824640464D
:100BB800FFF732FB36040B04360C33439A4509D948
:100BC8001B197A1E9C4200D924E19A4500D821E1DC
:100BD800023F1B195E4632041743380CBB46009E81
:100BE800009F51463F0C32045B1A5946BA46120C14
:100BF8000F043F0C904651467A434F4341464143C8
:100C080056467043CF19160CBE19B14202D9802737
:100C18007F02C019310C12043604120C4018B618A1
:100C2800834200D2C4E000D1BEE0191A4846861BB0
:100C3800B145BF417F42CF1BA74200D113E1291C18
:100C4800381CFFF7A5FA019902904143381C8946E0
:100C5800291CFFF7E1FA330C0904194389450CD91B
:100C6800029B0919013B8C4200D9FFE0894500D855
:100C7800FCE0029F0919023F02974F46CF1B381C20
:100C8800291C0597FFF784FA071C0198291C78434B
:100C980081460598FFF7C0FA36040904360C0E435E
:100CA800B14509D936197B1EB44200D9E0E0B145F7
:100CB80000D8DDE0023F3619029D4946761A29041C
:100CC80039430B0457460A0C1B0C4046454658430B
:100CD80055437B437A43EB18070CDB199D4202D935
:100CE80080256D0252191D0C00041B04000C5219BA
:100CF8001B18964235D300D1FCE001231943049E0A
:100D0800994FF519002D00DCA1E0480709D00F2301
:100D18000B40042B05D00B1D8B42894149428B4463
:100D2800191C5A46D20107D5904B5C46049E802771
:100D38001C40FF00A346F5198D4B9D427ADD039CAC
:100D48000122224000248B4DA146BDE680242403C5
:100D5800474627424CD13C432403240B009A854D37
:100D6800B2E63619481EB4425ED9011C9642C4D177
:100D7800009E9E42C1D1C2E7031C283B311C99400A
:100D88008B46002184E6301C01F0B0F820306EE676
:100D9800283B211C99400022884691464DE6201C9C
:100DA80001F0A4F8203037E60021B14500D33DE733
:100DB800009F5A46B944B945BF417F423F19FB18C5
:100DC800013A9C421ED2984200D97EE000D1B5E09B
:100DD800191A93462AE7894500D8ADE6484646469B
:100DE80042467708D3074608C0071E438146AAE64D
:100DF8005846204212D1044324032A1C240B894656
:100E08005C4D61E6A342E3D1009F4F45DBD9211A2F
:100E180093460BE7171CDDE69B46BCE63C432403E0
:100E2800240B009A534D4FE6B24259D800D18AE0BC
:100E3800011C62E75E46C9087307039F0B437402EF
:100E48006D0501229946240B6D0D3A403CE64A4B4C
:100E5800049C1B1B382B10DD039D012200242A4013
:100E6800A146002530E60121494248E7029304E7FC
:100E78001F1C21E7019C039441E71F2B40DC049EC3
:100E88003E4F0C1CF21958469140DC4090402043DC
:100E98000A1C511E8A41011C5846D8401143031CA4
:100EA800480709D00F220A40042A05D00A1D8A42A1
:100EB800894149425B18111C1A0234D5039C01224E
:100EC800224000240125A146FEE5009F0221494257
:100ED800B9448B44B945894149420919CB18A4E65C
:100EE800009D881E6900A942AD416D422C19361932
:100EF80000913AE7002B00D033E70024009437E74D
:100F08001F4A049C5D46121BD5402A1C202B1FD06B
:100F18001C4E5F46A3199F403B1C19434B1E994129
:100F280011430023BCE75A07C9080A43039D9146A9
:100F38005B0201222A401C0B0025C5E54E45C4D89A
:100F48009346002172E6009F9F42C9D3011C0FE718
:100F58000023E2E780242403584604432403240B97
:100F6800019A8946034DAFE5FF030000FFFFFFFE2E
:100F7800FE070000FF07000002FCFFFF1E04000040
:100F8800E2FBFFFF3E040000F0B55F4656464D46C3
:100F98004446F0B40D1C041C8046E80F8146180333
:100FA8000F03000B3F0B83B084461B480097490092
:100FB8005E00DF0F490D9246760DBB4681420CD08C
:100FC8001548864210D00120B14215D003B03CBC70
:100FD80090469946A246AB46F0BD009F01202743A4
:100FE800F4D10D488642EED1604602430120002A22
:100FF800ECD10120B142E9D1009B6345E6D1D0454F
:10100800E4D1D94506D00029E0D11C43201C441E58
:10101800A041DBE70020D9E7FF070000F0B55F46F5
:1010280056464D464446F0B4CD0FDE0FAC461D0380
:101038002D0BB146354E0F034C00AB465D00804684
:101048003F0B640D92466D0DB44231D02F4EB54220
:1010580034D0002C0ED1384341424141081C002DA8
:101068000BD0002919D1CC452CD06646002E17D1BB
:10107800012017E0002DF6D1281C59460A43534297
:101088005341002806D1002BEDD065460120002DE4
:1010980008D005E00020002B04D14B46002BE7D1F7
:1010A800012040423CBC90469946A246AB46F0BD62
:1010B8003E1C0643CAD002204042F3E75E46164370
:1010C800C7D0F8E7AC4205DC09DA6346002BE7D065
:1010D8000120E7E761460029E2D10120E2E75F4508
:1010E80008D80CD000205F45DCD26646002ED7D049
:1010F8000120D7E76546002DD2D10120D2E7D0459F
:10110800F8D80020D045F0D3CCE7C046FF07000050
:10111800F0B556464D4644465F46F0B40D1C83B0C4
:10112800041C0190E80F814618030F03000B3F0BC6
:1011380084463848009749005E00DF0F490D924603
:10114800760DB846814233D03248864235D00029E0
:1011580017D0002E1ED1341C67463A4353425341E0
:10116800002C1ED00020002B04D14046002816D1A8
:101178000120404203B03CBC90469946A246AB468B
:10118800F0BD0098044360426041041C002EE3D087
:101198000028EAD1C14515D04F46002FE8D10120DB
:1011A800E8E7002BF6D04B460120002BE2D0DFE722
:1011B800009F02202743DDD1C6E767460220174378
:1011C800D8D1C4E7B14204DD48460028D0D1012077
:1011D800D0E7B14204DA4B46002BC9D00120C9E759
:1011E800009F674509D80DD0009F00206745C1D2F0
:1011F8004F46002FBCD00120BCE74B46002BB7D18F
:101208000120B7E701985045F7D8019B00205345C6
:10121800EED3AFE7FF070000F0B5564644465F46F9
:101228004D46F0B41F1C0B031B0B9A464B0087B0AE
:10123800041C80465B0DC80F161C02938146002BC8
:1012480068D0694B0299994232D0802253465203A2
:101258001A43D200630F1A439246644AE000891881
:1012680080460291002400253B031B0B7800F90FF0
:10127800321C9B46400D039100D175E05A4B9842B1
:1012880069D080225B4652031A43D200730F1A4377
:101298009346F200554E0023801903994E4671403B
:1012A8001C430F2C00D9ABE0514EA4003459A7467B
:1012B80053461C4300D086E00025AA46A8460824C9
:1012C8000225D1E74946022D6BD0032D00D115E246
:1012D800012D00D056E10D40EDB20024A9460023AF
:1012E800A0460020002125030A0D1C052D0B120520
:1012F800404B2A43134023435B004C465B08E207FC
:10130800191C4046114307B03CBC90469946A2467A
:10131800AB46F0BD534623434FD05346002B00D174
:1013280082E1504600F0E2FD031E272B00DD74E148
:1013380028210D1A211C083B5246E9409A400D1CF1
:101348001543221C9A40AA4690462B4B00241B1A90
:101358000293002588E75B461E430323002E9CD199
:10136800B3460022022398E7334321D05846002889
:1013780000D14DE100F0BAFD272800DD41E1282128
:101388000F1A021C311C083A5B46F94093400F1CA7
:101398001F43331C9340BB461A1C174B181A0023D3
:1013A8007BE701230B4000249946A0460E4B98E7A3
:1013B8000027BB46002201236FE700200424824651
:1013C8008046012550E70C2403254DE701235B42A5
:1013D80000259846A946094C034B82E7DA46904611
:1013E80003991D1C6FE7C046FF07000001FCFFFFC3
:1013F80090A10008FFFF0F800DFCFFFFFFFF0F000B
:10140800029F160C381804904046070C0004000C84
:101418001204120C031C5343041C3D1C7443554313
:1014280098463B1C73436419A44644460293230C14
:1014380063449D4204D9029D802464022D190295BB
:101448001D0C039545462C041B04240C1C190594FB
:101458005C46230C051C58432404240C8446381C81
:10146800604365435F438146CC44280C6044BB46D7
:10147800814502D980277F02BB442D04070C2D0C1F
:10148800000440195546BC462F04E3448446280C02
:101498003D0C2F1C5743B8462F1C77434243B9468F
:1014A80047463F0C9144BA46D14446434A4502D97F
:1014B80080225202B6184F463A0CB6183A044746EC
:1014C8003F043F0CB8462F1C67435D4344435843D1
:1014D80065190190380C2D184244B846AC4204D91D
:1014E800019880235B02C01801900398029C604415
:1014F80000196045A44143466442A4462F041C04D5
:101508008018B946240C4C44904292415C445242A3
:10151800A04691466444A24632194F46D419E24582
:101528009B41D845BF415B427F421F432D0C7F1929
:10153800B24292414C45AD4152426D421543019E23
:101548007D19AB19E20D5B02059F134342023A4332
:101558009A46531E9A41C30D101C18436402204337
:1015680080465046C0010DD5454601225646049C8A
:101578006B082A401A43F30701341A437608049487
:101588009046B246049F63483B18002B61DD4246F3
:1015980052070BD00F2244462240042A06D0424666
:1015A8000432424580414042824490465546ED010E
:1015B80007D5594B5646049F80201E40C000B246AE
:1015C8003B18564A934200DDEBE644465546E2088E
:1015D8006807104301226C025B050A408046240B11
:1015E8005B0D91467DE6DA4690461D1C6BE680242D
:1015F8002403574627421CD13C432403240B484B61
:101608006FE6031C283B311C99408B460022C4E638
:10161800301C00F06BFC2030AEE6283B211C9940C2
:1016280000228A46904690E6201C00F05FFC20309D
:101638007AE65846204207D10443039D2403240B2D
:10164800A9469046364B4CE63C432403240B344BC6
:1016580047E6344B049E9B1B382B06DD01230B40C9
:1016680000249946A04600233BE61F2B25DC2E4A82
:10167800049F4446B8185246DC4082402243444600
:101688008440201C5546441EA041DD4002432B1CCB
:10169800560709D00F201040042805D0101D90428D
:1016A800924152429B18021C1F021AD501230B407B
:1016B80000249946A046012313E61C48049E574679
:1016C800801BC740381C202B16D0194B5446F218E3
:1016D8009440221C45462A43531E9A410243002344
:1016E800D6E758075B02D2081C0B01230B401043B6
:1016F800994680460023F4E50022EBE78024240382
:1017080050460123044319402403240B8946044B03
:10171800E7E5C046FF030000FFFFFFFEFE070000ED
:10172800FF07000002FCFFFF1E040000E2FBFFFFB2
:101738003E040000F8B55F46564644464D46F0B4B0
:101748000C034D00CF0F610A440F2143C400180356
:10175800DE0F8046B44646465800760A530F334398
:10176800D600D14A6D0DBA46400DB346904200D11D
:10177800F5E06246012672409446674500D1ABE029
:101788002F1A002F00DC11E100283ED158461843DB
:1017980000D0F1E0600700D197E00F232340042B2D
:1017A80000D122E1221DA242A441644280230919EA
:1017B8001B04012750460B400740141C002B00D186
:1017C80079E0B94B01359D4200D10BE1B74BE408F4
:1017D80019404807490204430B0B002000211B0352
:1017E8001A0B0B0D6D051B0513436A08B04DFF0757
:1017F8001D4015436D006D08291C3943201C3CBC55
:1018080090469946A246AB46F8BDA7488542C1D046
:10181800802000040343382F00DDFDE01F2F00DD8A
:1018280031E12020C01B1A1C5E468240FE40324334
:1018380094465A468240101C421E9041FB40624624
:1018480002431F1CA21A9442A4416442C91B091BEB
:10185800141C0A029ED549024F0A002F00D1D6E077
:10186800381C00F043FB021C083A1F2A00DDC3E0C5
:101878002821231C091A9740CB401F4394409542C6
:1018880000DDC0E0551B691C1F2900DDEAE01F22AE
:10189800551B3B1C221CAB40CA40AC40651EAC41EA
:1018A8001343CF401C43391C002573E708248149A2
:1018B8007D4D002764427C4B4807E4080443C9086F
:1018C8009D4250D009030B0B87E780231B04012797
:1018D80052460B40174071E72E1AB446002E00DC22
:1018E800A1E0002854D07048854200D152E78020FA
:1018F800000403436046382800DD10E11F2800DD9E
:1019080059E162462020801A1E1C8640B1465E4678
:10191800D6404A4632435E4686409046301C421EB8
:101928009041424602436046C3401219A242A44174
:10193800644259180919141C0E0200D42AE75A4B9C
:1019480001359D4200D133E1584B6008194001230D
:1019580023401C1C0443CB071C4349081AE71E43B9
:1019680000D00AE705E7231C0B433BD080231B0369
:101978000B431B031B0B30E7013F002F6DD158466B
:10198800221A9442A4416442C91A091B141C60E734
:101998005846184300D1FDE601204042844462467F
:1019A800002A00D0D2E05E463219BFE7002F00D0EF
:1019B80082E0681C4005400D012800DCEAE05A4638
:1019C800A21A9442BF41C81A7F42C71B3E0200D4E4
:1019D8009AE05846041BA3459241591A52428F1A5D
:1019E800E2463AE700230024F7E680231B04012798
:1019F80056460B403740E1E6271C2838874000242C
:101A0800954200DC3EE72949AD1A3940C2E6201C60
:101A180000F06CFA203026E75A461A43531E9A41C2
:101A2800D2B200270EE7002E00D0E0E0681C420585
:101A3800520D012A00DC92E01B4DA84200D1F7E0CC
:101A48005D462A19A242A441644259180919CC07D3
:101A5800520814434908051C9CE61348854200D0E7
:101A6800D9E697E62B1C1F3B3E1CDE40331C202981
:101A780071D03F22551BAF403C43601E84411C433C
:101A88000021002586E6381C20381E1CC640301C64
:101A9800202F62D04022D71BBB405A461A43531E00
:101AA8009A4102430027CDE6FF070000FFFF7FFFB2
:101AB800FFFF0F80FFFF7F00002D37D0B64DA842F3
:101AC80000D18FE080252D047F422943382F00DD87
:101AD800A8E01F2F00DD25E12025ED1B0E1CAE40E0
:101AE800B046261CFE404246AC401643651EAC413B
:101AF8003443F9405A46141BA34592415B1A52429B
:101B0800991A051CE246A4E6131C3B43141C002B3F
:101B180000D0A2E60027002100240025CBE65A4683
:101B28001A43531E9A41D2B20023FEE60D1C2543E8
:101B380058D0FF43002F51D15D462C1BA34592413D
:101B4800591A5242891A051CE24682E69248854291
:101B580000D0CFE61EE600278EE700239DE7081C8D
:101B68002043002D00D0C3E0002800D1F0E0584603
:101B7800184300D10EE65E463219A242A4416442DF
:101B880059180919141C080200D403E6834B0125CF
:101B98001940FFE5081C2043002D38D1002870D1DA
:101BA8005946194303D0191C5C46E246F2E5002762
:101BB800002100247FE6604620381A1CC240664691
:101BC800101C202E00D1ABE04022921B93405A46B5
:101BD8001A43531E9A4102430023A6E66E4DA842BB
:101BE80000D073E7191C5C46051CE246D2E5002DBF
:101BF80022D10D1C254377D0F543002D71D15C44CB
:101C08005C459241591852428918051C94E60028EF
:101C18004DD15946194300D148E6191C5C46E246A5
:101C28005D4DB7E50C43611E8C41E4B2002161E7CC
:101C3800051C002100243EE6574DA84254D06646B4
:101C48008022754216043143382D7BDC1F2D00DDC0
:101C58008CE02022561B0A1CB446B240261CEE40DB
:101C68003243904662469440661EB441424614434D
:101C7800E9405C445C459241CB1852429918051CD6
:101C88005AE65846184300D184E55E46A71BBC4275
:101C98009241C81A5242801A060260D55846041B5F
:101CA800A3459241591A5242891AE24672E55846AA
:101CB800184333D04807E40804438020C9080003C8
:101CC800014208D0DD08054205D15946CA085C071B
:101CD8001443291CE246630FC9001943E4002E4D42
:101CE80058E52D4A9042AFD1191C5C46051C51E5B8
:101CF800002830D05846184310D080254807E408FB
:101D0800C9082D0304432942E5D0D8082842E2D166
:101D18005946CA085C071443011CDCE71E4D39E527
:101D2800002354E73D1C203D0E1CEE40351C202F9F
:101D38002ED04026F71BB9400C43611E8C412C4322
:101D48000021D7E60C43611E8C41E4B2002190E7E4
:101D5800191C5C461EE5191C5C460F4D1AE5031C50
:101D68003B4300D123E7011C3C1C13E520267642A7
:101D780076190A1CF2409046202D0BD04026751B80
:101D8800A9400C43611E8C4141460C43002170E779
:101D98000021D1E70021F4E7FF070000FFFF7FFFE4
:101DA80070B50B1C124C09030E0B5900021C490D8F
:101DB800DD0F0020A14211DD0E4881420FDC80209A
:101DC800400306430C48401A1F280BDD0B4A521AE1
:101DD800D640321C5042002D00D1101C70BD084B5B
:101DE800E818FBE7074BC240C9188E403243F1E7B9
:101DF800FE0300001D04000033040000130400006B
:101E0800FFFFFF7FEDFBFFFFF8B5041E31D0C70FC2
:101E180000D04442201C00F069F8184D2D1A0A28F9
:101E280019DD0B38844024036D05240B6D0D3A1C15
:101E38000026002000210B0D2403240B1B0523433F
:101E48000F4C2D051C402C4364006408D307211C4B
:101E5800301C1943F8BD061C1536231CB3401E1C44
:101E68000B23181AC44024036D05240B6D0D3A1C6E
:101E7800DFE70022002500240026DAE71E04000020
:101E8800FFFF0F8010B5041E28D000F02FF8154A68
:101E9800121A0A2815DD0B38844024035205240B36
:101EA800520D0023002000212403181C0B0D240BC5
:101EB8001B0523430C4C12051C40144364006108A5
:101EC80010BD031C1533211C99400B1C0B21081A4B
:101ED800C44024035205240B520DE3E700220024DA
:101EE8000023DFE71E040000FFFF0F801C210123F1
:101EF8001B04984201D3000C10391B0A984201D3E5
:101F0800000A08391B09984201D30009043902A2C2
:101F1800105C40187047C046040302020101010129
:101F2800000000000000000008B5034B011C186801
:101F380000F00EF808BDC0461004002008B5034B99
:101F4800011C186800F08EFB08BDC0461004002074
:101F5800F0B5564644465F464D46F0B40C1C0B346B
:101F680083B0061C162C2BD907239C432BD4A142E3
:101F780029D8301C00F008FBF823FF339C4226D8F0
:101F8800E208CB4DD300EB18DF689F4200D1B7E1E0
:101F980078680323FA68B96898433B18CA60916067
:101FA800596801220A43301C5A6000F0EFFA381CC5
:101FB800083003B03CBC90469946A246AB46F0BDFB
:101FC8001024A142D5D90C2333600020F1E7630A1D
:101FD80000D18EE0042B00D93EE1A30938339C469A
:101FE8005900B34D89006918CF68B94215D07A688D
:101FF80003239A43101B0F2800DD8DE000287CDAAC
:10200800032007E07A688243131B0F2B00DD83E06F
:10201800002B72DAFF68B942F4D1012294442B1CD8
:102028002F6908339F4200D15FE17868032290430B
:10203800021C011B0F2900DD46E16B612B610029A1
:102048005FDA9C4B984200D910E1C3089A1001212D
:10205800DB00EB18914068680A1C99680243FB6032
:10206800B9606A609F60CF6061468B10012199401A
:10207800914255D811420DD1032360469843031C61
:10208800043349009C46114204D1042349009C446E
:102098001142FAD0032080466246D3005B199A4663
:1020A800181CE146C768B84207D120E1002B00DBC5
:1020B8002FE1FF68B84200D119E17A6843469A4394
:1020C800131B0F2BF2DD01213A190C437C60F868D1
:1020D800BC680835E06019438460EA60AA60301C77
:1020E800D56095605160D35000F050FA381C083024
:1020F8005FE73F227E21944673E7FB68B968CB60AF
:102108009960BA18516801230B43301C536000F0E2
:102118003DFA381C08304CE70120404284447CE7F3
:10212800AF680323786898438146A04203D3031B12
:102138000F2B00DD82E0494679185F4A01915F491B
:10214800106892468A6823188B46013200D142E112
:102158005B481B181B0B1B0300930099301C00F0F5
:1021680017FA011C804601315DD0019A824200D9DC
:10217800E6E0514600984968524643180198536072
:10218800404500D130E159468968013100D13DE12F
:1021980001994046421A9B1852465360072340460D
:1021A800034000D1FFE0C21A08329046454AD31ACC
:1021B800009A301C42441205120D9A1A111C9346BB
:1021C80000F0E6F9411C00D11CE14246801A58444F
:1021D8000123184351464B6842465B44AA604B6052
:1021E8005060AF4213D048460F2800D8E6E04A4670
:1021F800786807210C3A8A4301210140114379602C
:102208000520B918486088600F2A00D902E15246B3
:10221800D26A934201D95046C3625146096B8B4238
:1022280001D952461363AF6803237A689A43131B94
:10223800944200D9A9E00F2B00DCA6E00122211C62
:1022480011433C1913437960301CAC60636000F0A3
:102258009DF9381C0830ACE6142B69D9542B00D9E9
:1022680098E0230B6E339C465900BAE6430A042BC8
:1022780062D9142B00D9B1E0191C5B3148008000E9
:10228800401983688146834200D18FE00321884644
:102298005968404681438A4202D29B689945F7D1E2
:1022A800D9686A68F960BB608F60DF60DCE6C046A9
:1022B80000000020FF01000070080020000400203A
:1022C8000F1000000810000001203A1904430843C9
:1022D8007C606A612A615060D3609360301C515001
:1022E80000F054F9381C083063E66A68BCE601223D
:1022F800914443464A460830134200D0D2E62CE0C7
:102308003B1C7F69023208339446BB4200D186E603
:102318003EE6BA185068012303435360FB68BA6865
:10232800301CD3609A6000F031F9381C083040E660
:102338005B339C46590054E68109383148009EE7D2
:10234800AF4200D06FE714E75346186801225242A3
:10235800083B94448246984276D1434660460342FD
:10236800F2D16B688B436B604900994200D9D7E67C
:10237800002900D1D4E6CC46194200D08CE60422CC
:10238800490094441942FAD086E6301C00F0FEF861
:1023980000200EE6AA225200934214D8E30B7733AA
:1023A8009C4659001DE680235B0101E78910686897
:1023B80001228A4002436A60191C73E701235360B3
:1023C8004746002233E7214A934217D8A30C7C33AF
:1023D8009C46590005E610330093BEE6542B21D8DD
:1023E800010B6E3148004AE7020500D0CBE60098A1
:1023F800AA68484401210143516008E77E23FC2173
:102408009C46EEE5002301209B46E3E642465B46F8
:102418009A60C3E6391C0831301C00F023F9514694
:102428004B68F4E6AA2149008B4203D8C10B7731E7
:10243800480024E705498B4203D8810C7C314800C9
:102448001DE7FC207E211AE76B688DE75405000024
:10245800F0B50F2A35D9031C0B439C0735D1161C40
:10246800103E36093501451910350C1C031C276828
:102478001F6067685F60A7689F60E7681034DF6067
:102488001033AB42F3D1731C1B01C518C9180F23B5
:102498001340032B1BD91C1FA4080134A4000023DC
:1024A800CE58EE500433A342FAD1ED18C9180323CD
:1024B8001A4005D00023CC5CEC5401339342FAD186
:1024C800F0BD051C002AF5D1FAE7051CF2E71A1C35
:1024D800F8E7C046F0B5474680B482B083074FD0CE
:1024E800541E002A48D0CEB2031C032503E0621E06
:1024F800002C41D0141C01335A1E16702B42F6D101
:10250800032C31D9FF250D402A0215432A0415430F
:102518000F2C18D9271C103F3F093E01B046102642
:10252800F618B44646461A1C664415605560956010
:10253800D5601032B242F8D101373F010F22DB19C2
:102548001440032C10D9271F1E1DBF080196BE007A
:10255800B446019E1A1C664420C2B242FCD101371F
:10256800BF000322DB191440002C05D0C9B21C1986
:1025780019700133A342FBD102B004BC9046F0BDF0
:10258800031C141CBCE7C0467047C0467047C046D1
:1025980038B5074C0023051C081C236007F062F8B7
:1025A800431C00D038BD2368002BFBD02B60F9E713
:1025B800C80800200023C25C0133002AFBD1581E42
:1025C8007047C046F8B50F1C041CFFF7DDFF204D0F
:1025D800204AAB685E6803239E43F71BBF183F0B76
:1025E8001D4B013F3F039F4207DD201C0021FFF7E1
:1025F800CFFFAA689319984204D0201CFFF7C6FFA2
:102608000020F8BD7942201CFFF7C2FF01300DD031
:10261800AB68F61B012216435E60104B201C1A683B
:10262800D71B1F60FFF7B2FF0120EAE7201C00213B
:10263800FFF7AEFFAB68C21A0F2ADEDD084909684A
:10264800401A0649086001210A435A60D5E7C04686
:1026580000000020EF0F0000FF0F000074080020AA
:1026680008040020F0B5474680B4051C0C1E55D060
:10267800FFF78AFF211C083948680127031CBB4360
:10268800CA185468804603208443201C534CA6680B
:10269800964260D00026B4464646506037420AD17A
:1026A8000E68271C891B9B198E680837BE426BD0A1
:1026B800CF68F760BE601618766801273E4207D1DA
:1026C8001B18604600282CD09068D268C2609060C1
:1026D8000122181C104366464860CB50002E1AD1C0
:1026E8003F48834229D95A0A042A50D89E093836C5
:1026F800700080002018826882424ED003265468F9
:10270800B443A34202D292689042F8D1D368CB6016
:102718008A609960D160281CFFF738FF04BC904696
:10272800F0BD90682F4EB042CFD11F43C160816089
:10273800C86088604F60CB50EDE7DB089810824096
:102748006068DB0002436260E418A368CC608B60B9
:10275800A160D960DFE7C3184046074206D10A687E
:10276800891A88689B18CA68C260906001221A4357
:102778004A601D4AA16012689342CCD31B4B281CA7
:102788001968FFF71FFFC6E70126B44693E7142A26
:102798000CD8161C5B367000ABE7B6100123B340AB
:1027A8001E1C63681E436660131CB0E7542A03D8D6
:1027B8001E0B6E3670009CE7AA204000824203D8A8
:1027C800DE0B7736700094E70948824203D89E0CE6
:1027D8007C3670008DE7FC207E268AE7000000200A
:1027E800FF010000080000200C04002070080020F1
:1027F8005405000010B50021041C034A0D2301F004
:10280800CDFC201C10BDC046D0A10008F8B50D1C99
:10281800171C1E1C0749084A1523041C01F0BEFC9E
:10282800069A201C1388E38153886561A761E661D5
:102838002382F8BDAE5F2E0020A2000810B584B038
:10284800041C684601F0C6FA221C0E326369694608
:10285800201C01F0A9FC684601F066F804B010BD20
:10286800F0B556465F464D464446F0B4824685B0BC
:10287800042906D005B03CBC90469946A246AB4612
:10288800F0BD282050448046022101204246574688
:1028980002AD81468B461068918840370026019525
:1028A80007F075F900281CD03B78012B38D0002B95
:1028B8002CD0022B1FD0032B05D1FB780133DBB2C0
:1028C800FB700F2B4BD001360822F6B2904401372B
:1028D800032ECFD042469188106807F058F9002897
:1028E800E2D101360822F6B23870F8709044013708
:1028F800032EEFD1BEE7FB780133DBB2FB703C2B34
:10290800E1D10023FB7003233B70DCE701364B4623
:102918000822F6B23B7090440137032EDAD1A9E7BA
:102928005D463D7053461C68002C09D1CBE75B100F
:10293800C81801688B58311C98472468002CC2D0ED
:10294800231C019A0833616821CB21C2039B4846A6
:10295800029A1842EBD15B10C818131CEBE700234E
:10296800FB70DFE7F0B556464D4644465F46F0B487
:1029780000230360904B061D4360AFB0041C301D5C
:10298800814607F0CBFA1020012107F015FA8B4B8E
:10299800A6615A68E023DB0013408022D2009342EC
:1029A80000D1F7E000D8F3E0A022D200934200D192
:1029B800E6E0C022D200934200D0E5E0804B1D68DB
:1029C800AD08606807F035FBE66100210026262384
:1029D80065612162A184221CE6547A4B20321A6078
:1029E8004023E6544323E6544123E6544423E65463
:1029F8004223E654802045238846E654C00301213B
:102A080007F0BEF970481AAD06AF03234C21032224
:102A18007B52B8647F648B46291C92466A712E717A
:102A2800EE7116901A9307F073F87A6C17AB13606F
:102A38005360069B01225A815B6828216354180A57
:102A480029216054180C2A2160541B0E2B21635431
:102A58002C23E25440462D23E0547B6802225A81FD
:102A68005B6830216354180A31216054180C3221F4
:102A780060541B0E332163543423E25441463523FA
:102A88008020E1540003012107F07AF980274F489C
:102A9800FF0103AE5A4641462864A8646D64534654
:102AA800AF523171F171311C7371039707F030F82F
:102AB8006B6C2BAA9A63AB6B38225F815B684020F2
:102AC800A354190A3922A154190C3A22A1541B0EF5
:102AD8003B22A3543C234246E2543D23E0543C4B62
:102AE800414604AF0193029101AB3A1C03CB03C2E8
:102AF8001020FFF719FA051E4FD0291D0C2006F0EB
:102B0800A3FD002141608160031D884606CF06C3EE
:102B1800424604602A60236A60692B602D49256259
:102B2800FDF736FB31230138E360208160234046FE
:102B3800208263816068494607F0B4F9A28C0123BA
:102B48001A43A284244825492622A25C0860112140
:102B5800301C31707270B37007F03CF8E3690122E1
:102B68001868012107F04AFA6068012107F0DFF9C7
:102B7800201C2FB03CBC90469946A246AB46F0BDFF
:102B88000F4B1D686D081CE70D4B1D68ED0818E715
:102B9800002BF9D10A4B1D6813E7114A904605E04E
:102BA80098471020FFF7C0F9051EA6D140460368D4
:102BB800002BF5D1FEE7C04600100040001002408F
:102BC80040080020A408002000140048000800481D
:102BD800692800088813000045990008C0080020EB
:102BE800A808002030B50368042485682A601C60A2
:102BF800426804690220282952D3106018601060C6
:102C0800186010601860106018601060186010601C
:102C1800186010601860106018601060186010600C
:102C280018601060186010601860106018601060FC
:102C380018601060186010601860106018601060EC
:102C480018601060186010601860106018601060DC
:102C580018601060186010601860106018601060CC
:102C680018601060186010601860106018601060BC
:102C780018601060186010601860106018601060AC
:102C8800186010601860106018601060186010609C
:102C98001860106018601060186028392829ACD2B4
:102CA800294C8900641A01342047106018601060AC
:102CB800186010601860106018601060186010606C
:102CC800186010601860106018601060186010605C
:102CD800186010601860106018601060186010604C
:102CE800186010601860106018601060186010603C
:102CF800186010601860106018601060186010602C
:102D0800186010601860106018601060186010601B
:102D1800186010601860106018601060186010600B
:102D280018601060186010601860106018601060FB
:102D380018601060186010601860106018601060EB
:102D480018601060186030BD4E2D0008F0B55F4661
:102D58004D4656464446F0B4041C91B021680CA870
:102D680001F038F8236868465B681A219B463222CE
:102D7800BB235B00FF328185C18566490385428597
:102D8800654E5846018205251A201A21634C06957E
:102D9800994609960890059207915F460B1C051CF9
:102DA8004A4692B290464344013B9BB29C46059BDF
:102DB8007E689BB203935B19013B9BB2B089049375
:102DC80032687368B168F689029001962A250D6009
:102DD8001E60186010604E4636B236120420022576
:102DE8000E6010601D601560FF264546301C2840A7
:102DF80080460426022045460D6016601860106063
:102E0800664636B23612042002250E6010601D6038
:102E18001560FF266546301C28408446042602209B
:102E280065460D601660186010602B260298019D9B
:102E38000E601D6018601060059E35B22D12AC46FC
:102E4800042602256046086016601D601560039818
:102E5800FF2528400225086016601D601560049D46
:102E680002202EB2361204250E601560186010601C
:102E78000498FF26064002200E6015601860106056
:102E880039682C258A468A89CB894E6808688968FA
:102E98000D60336032600260089A079D13B229B250
:102EA800099A59435046FFF79DFE2268F532FF32D2
:102EB80023689A42FCD89922A923D2020CA80AA90D
:102EC800DB0000F08FFF2268F532FF3223689A4258
:102ED800FCD8069B013BDBB20693002B10D06E4654
:102EE800684669466A46808DD28D3B8A368D498D03
:102EF8000993B146079005910892031C151C4FE7EA
:102F08000CA800F011FD11B03CBC90469946A246B1
:102F1800AB46F0BD0F8CFFFF0F8C0000C4080020EB
:102F2800F0B557464E464546E0B4C37B82B0041C14
:102F3800002B00D062E0604B081C00935F4B694691
:102F48000193A9235E4ADB0000F04CFF64685D4BE7
:102F5800606823820268436881688589C0892A2657
:102F680082460E6018601D60156000270420022646
:102F78000F6010601E601660AD270F6010601E6045
:102F8800166000270F6010601E601660C6270F606D
:102F980010601E6016602B2657460E601F601D606D
:102FA80015600026042502200E6015601860106068
:102FB80047260E6015601860106000260E601560C8
:102FC8001860106060260E60156018601060206838
:102FD8002C218389C289446805688668316022602B
:102FE80023602B60A921D62289001202FFF7FAFD7F
:102FF80002B01CBC90469946A246F0BD324B081C54
:1030080000932E4B69460193A923304ADB0000F058
:10301800E9FE64682E4B6068238202684368816811
:103028008589C0892A2682460E6018601D60156051
:10303800002004260227086016601F601760AD2074
:10304800086016601F6017600020086016601F6027
:103058001760C620086016601F6017602B26504650
:103068000E6018601D6015600026042502200E60A1
:10307800156018601060DB260E601560186010601F
:1030880000260E60156018601060F4260E6015604A
:103098001860106020682C218389C28944680568FB
:1030A80086683160226023602B60A9218900094A63
:1030B800FFF798FD9CE7C046AD00DB001A001A0038
:1030C8000043050000D6FFFFAD00470000330500B0
:1030D800609EFFFF609E0000F0B544465F4656467E
:1030E8004D46F0B4837B89B09A00D318074ADB00B9
:1030F800D318002244680192002909D0027C002AD2
:1031080000D1A2E1FC22D200019201E0C4A2000891
:10311800019E5D88998826821E88DB88053E0A31D3
:103128000A33B2B289B29BB207935318013B67685E
:103138009BB2053DADB2984613B2FE8903951B12AA
:10314800BD899BB28A46049339687B68B868029542
:10315800B4462A2707601E601D600D6004250226FC
:10316800049F07600D601E600E60FF252E1C164030
:10317800B146042702264A4602600F601E600E60B0
:1031880045462EB23612B6B205960426B3465F46B9
:103198000226059D05600F601E600E60FF264746EB
:1031A800374006970422022607600A601E600E60F8
:1031B800039D029F2EB23612B6B2B04662462B2647
:1031C80006601A601F600F600427022645460560E6
:1031D8000F601E600E60039EFF273E400296042784
:1031E8000226029D05600F601E600E6004260227FD
:1031F800424602600E601F600F6004250226029F8F
:1032080007600D601E600E60504600B2824620685E
:103218002C278189C28943680568866837601A60E7
:10322800196029605146019AFFF7DCFC039E079F4D
:10323800F5196668013DB08973683268B168F68926
:103248000390AFB2B4462A20039D08601E601D603B
:10325800156004260220049D0D6016601860106039
:103268004D460D60166018601060059D0D60166073
:1032780018601060069D0D601660186010603EB200
:103288003612B6B2019603982B2665460E601D606D
:103298001860106004260220019D0D6016601860F9
:1032A8001060FF200740B4460097022660460F6072
:1032B80010601E6016600425019F0F6015601E6077
:1032C8001660009D0D6010601E60166020682C213D
:1032D8008689C7894268036885682960176016600F
:1032E8001E60228A5146FFF77DFC66682A25F08910
:1032F80073683268B168B78984460D6018601F60CA
:10330800176004260220049D0D6016601860106086
:103318004D460D60166018601060049D0D601660C3
:10332800186010604D460D601660186010602B26FE
:1033380060460E6018601F6017600425022046462C
:103348000E601560186010600427029D0D601760FC
:10335800186010600426019F0F60166018601060E6
:103368000420844665460220009E0E6015601860A1
:103378001060079F20683FB2B9468189C2892C2313
:103388004568066887683B602A6029603160228A40
:103398004946FFF727FC60682A26C5894368026802
:1033A80081688789AC460E601D601F601760042025
:1033B8000225059E0E6010601D601560069E0E6059
:1033C80010601D601560059E0E6010601D60156020
:1033D800069E0E6010601D6015602B206546086013
:1033E8001D601F6017600426022047460F601660A4
:1033F800186010600420844665460220029E0E6014
:103408001560186010600427019D0D601760186032
:1034180010600426009F0F60166018601060206816
:103428002C218389C28945680668876839602A60C3
:103438002B603360228A4946FFF7D4FB09B03CBCB5
:1034480090469946A246AB46F0BD014D01955FE610
:103458003F05000010B5037C041C002B07D0837BBC
:10346800052B2ED0062B13D0042B1ED010BD002107
:10347800FFF732FEA37B062B05D81F4A9B00D358C3
:103488009F460623A373201C0121FFF725FEEDE7C5
:103498008022C36F8258934201D9013BC367201C25
:1034A80068302168FFF7CAF9E0E7C36B026C934202
:1034B80001D9013BC363201C28302168FFF7BEF9FE
:1034C800D4E7C36D026E934201D9013BC365201C4A
:1034D80048302168FFF7B2F9C8E70523A373D2E79C
:1034E8000223A373CFE70023A373CCE70123A373BD
:1034F800C9E70423A373C6E770A2000810B5037CCC
:10350800041C002B07D0837B052B2ED0062B13D051
:10351800042B1ED010BD0021FFF7DEFDA37B062B78
:1035280005D81F4A9B00D3589F460223A373201C2B
:103538000121FFF7D1FDEDE78422C36F8258934242
:1035480001D20133C367201C68302168FFF776F980
:10355800E0E7C36B426C934201D20133C363201C82
:1035680028302168FFF76AF9D4E7C36D426E9342A9
:1035780001D20133C365201C48302168FFF75EF98A
:10358800C8E70023A373D2E70423A373CFE701237B
:10359800A373CCE70523A373C9E70623A373C6E780
:1035A8008CA2000870B5041C86B0216802A800F03F
:1035B80011FC201C01F088F96A46142313805380FB
:1035C8005B2393801823D38002A86946254A264B9B
:1035D80000F008FC254A0723201C02A901F00AFC78
:1035E800201C0121FFF778FD201C02A9FFF798FC99
:1035F800201C21682830FFF721F9201C2168483059
:10360800FFF71CF9201C21686830FFF717F92368B9
:10361800B9269C6860684368026881688589C089A2
:103628000E6018601D6015600126042502200E60DA
:10363800156018601060F2260E6015601860106042
:1036480003260E6015601860106019260E6015605C
:10365800186010605F23238002A800F065F906B0A7
:1036680070BDC04600D4040010110000C4A20008B8
:10367800F0B54F464646C0B4814687B0081C0C1CBE
:10368800FFF790FF404D4149FA272E688846BF0052
:103698002B689B1BBB4222D8E368DBB2002BF7D018
:1036A800E3681B041B0E012B5ED0002B58D0022BA5
:1036B8000FD1237C002B5BD1A37B062B09D89B0061
:1036C8004246D3589F4601232374201C0121FFF74B
:1036D80003FD002323732B689B1BBB42DCD902A884
:1036E80000F072FE030CDBB25A1E93410090637423
:1036F800216802A800F06EFBB02301AA5B001380CA
:103708003E23FF33201C5380143002A96B4605F07A
:1037180099FE02A800F008F92E68BDE7216802A802
:1037280000F058FBA37B201C5A425341E37302A9C3
:10373800FFF7F6FB02A800F0F7F8CAE7637C002B56
:103748001DD1E36D4946E26F4B60E37BE46B48466D
:103758008A600C600B7307B00CBC90469946F0BDAC
:10376800201CFFF777FEB4E7201CFFF7C7FEB0E781
:1037780000232374201C0121FFF7AEFCA9E7201CBD
:10378800FFF7E4FAA5E7C046C4080020A8A200088D
:10379800F0B55F4656464D464446F0B4061C8BB01D
:1037A800142005F04DFF5C4B9025036008238360CF
:1037B80080230024ED055B01071C456084810121FD
:1037C800181C994606F0EAFA02239B460093012347
:1037D8009A460193281C029420210322032306F011
:1037E8003BF85B46009353460193281C02948021C2
:1037F8000322032306F030F85B46009353460193F7
:10380800281C029440210322032306F025F853467E
:1038180000220193281C082105AD0323009405F01C
:10382800BDFF281C06F0D6FA82235B006B80E023DC
:10383800DB00AB8080239B009A466B8138680723A6
:10384800291C2B822C80EC802C81AC81EC8106F029
:10385800CFFA3989786806F0A0F93868012106F0AE
:10386800F1FA494638683F6106F0F8FA37604020B7
:1038780005F0E6FE294B051C036020234360402326
:10388800836080239846C360254B28619B4643612B
:10389800434683629B0183630122C4620463C4615B
:1038A80044624463C46301211B48994606F0EAFA5E
:1038B8000121012006F064FA7560402005F0C0FE81
:1038C800184B051C0360534643608023DB0083606C
:1038D80080231B01C3605B46286143611023C361D9
:1038E800434683624B468363C46204634462446311
:1038F800C46301220848022106F0C4FA012001210C
:1039080006F03EFA301CB560AC620BB03CBC904689
:103918009946A246AB46F0BD003001401C0002406B
:103928000C3001403000024038B5041C406805F0F6
:1039380091FEA06805F08EFE2568002D0BD0286842
:10394800002106F07FFA80204001002106F026FAC7
:10395800281C05F07FFE201C38BDC046F0B54F4638
:103968004646C0B40568404B83B0071C8846686863
:103978002989019306F013F902AB3C6801AE994618
:103988002068022106F088FA002816D120687021E4
:1039980006F082FA0028F3D0344B16229A60344A93
:1039A80058601A6000246868298906F0F6F8201C17
:1039B80003B00CBC90469946F0BD3178206806F0FB
:1039C80057FAA389002B14D12068012106F064FA64
:1039D80000280BD12068702106F05EFA0028DBD1A0
:1039E8002068012106F058FA0028F3D0206806F074
:1039F80043FA01364E45C3D146463C68771CFF372B
:103A08002068022106F048FA00280DD120687021AC
:103A180006F042FA0028F3D0144B16229A60144A92
:103A280058601A600024BEE72068002106F020FADA
:103A38002068012106F030FA00280BD12068702197
:103A480006F02AFA0028E7D12068012106F024FAB6
:103A58000028F3D0206806F00FFA30700136BE4215
:103A6800CED101249FE7C046030FF000B408002020
:103A780001001600F8B50568071C0E1C686829893E
:103A880006F08DF83C682068022106F005FA002847
:103A980012D12068702106F0FFF90028F3D02D4BD1
:103AA80016229A602C4A58601A600024686829898E
:103AB80006F073F8201CF8BD2068052106F0D8F937
:103AC800A389002B14D03C682068022106F0E4F991
:103AD800002823D12068702106F0DEF90028F3D0F1
:103AE8001C4B16229A601C4A58601A600024DDE7B5
:103AF8002068012106F0D0F900280BD12068702138
:103B080006F0CAF90028CAD12068012106F0C4F9D4
:103B18000028F3D0206806F0AFF9D4E72068002128
:103B280006F0A6F92068012106F0B6F900280BD1A5
:103B38002068702106F0B0F90028D1D12068012151
:103B480006F0AAF90028F3D0206806F095F90124B8
:103B58003070ABE7B40800200100160070B50668A5
:103B6800041C3189706806F01AF82468206802215C
:103B780006F092F9002812D12068702106F08CF91D
:103B88000028F3D0154B16229A60154A58601A601F
:103B980000257068318906F000F8281C70BD20687F
:103BA800062106F065F9A3890125002BF1D12068CB
:103BB800012106F071F900280BD12068702106F068
:103BC8006BF90028DED12068012106F065F900288C
:103BD800F3D0206806F050F90125DAE7B408002090
:103BE80001001600F0B52B4B83B0051C0193FFF7BD
:103BF800B5FF002801D103B0F0BD2B6801AE5868AD
:103C0800198905F0CCFF2C6802AF2068022106F064
:103C180043F9002812D12068702106F03DF90028E8
:103C2800F3D01D4B16229A601C4A58601A602B6804
:103C38005868198905F0B1FF0020DCE73178206861
:103C480006F016F9A389002B0FD12068012106F090
:103C580023F9002806D12068702106F01DF90028F4
:103C6800DFD1F2E7206806F007F90136BE42CCD171
:103C78002B6801245868198905F08FFF03E06A460C
:103C880013781C42B7D0281C6946FFF7F3FE0028BA
:103C9800F5D1B0E7200FF000B408002001001600AD
:103CA800F0B54F464646C0B4474B83B0061C0F1CC0
:103CB8000193FFF753FF002804D103B00CBC9046D2
:103CC8009946F0BD35682989686805F068FF01AA3A
:103CD80002AB3468904699462068022106F0DCF869
:103CE800002811D12068702106F0D6F80028F3D0FA
:103CF800364B16229A60364A5860298968681A60D5
:103D080005F04BFF0020D8E742461178206806F0FE
:103D1800AFF8A389002B0FD12068012106F0BCF869
:103D2800002806D12068702106F0B6F80028DFD1F7
:103D3800F2E7206806F0A0F801239844C845CBD1E3
:103D48007B1CFF33346898462068022106F0A4F8EB
:103D580000280BD12068702106F09EF80028C7D1F2
:103D68002068022106F098F80028F3D039782068F6
:103D780006F07EF8A389002B14D001374745E3D11C
:103D88006868298905F009FF012404E06A46137868
:103D98001C4200D191E7301C6946FFF76BFE0028F2
:103DA800F4D18AE72068012106F076F8002806D1C8
:103DB8002068702106F070F8002899D1F2E7206891
:103DC80006F05AF8D9E7C046020FF000B408002000
:103DD8000100160038B5041C0D1CFFF7D9FCE5607E
:103DE800201C38BDF0B55F4656464D464446F0B4F3
:103DF8008BB00693C36881465C6808881B688D8809
:103E0800984683B25D19013DADB200954D88019386
:103E1800CB886768AEB2F31803950496BD89FE890E
:103E2800013B9BB207909A4639687B68B86805954C
:103E3800B3462A2707601E601D600D60079D042693
:103E48002FB23F120797079D022705600E601F607B
:103E58000F60019EFF273E40B446022704266546B0
:103E680005600E601F600F60009F3EB23612B446B8
:103E780004270226654605600F601E600E60009DDF
:103E8800FF263540022605600F601E600E602B2558
:103E9800059E5F4605601F601E600E60039D042638
:103EA8002FB23F12022507600E601D600D60049E50
:103EB800FF273740042607600E601D600D605546D9
:103EC8002FB23F12022507600E601D600D60FF27AC
:103ED80056463740042607600E601D600D60E36893
:103EE8002C26596818689C689D89DB8926600B60B8
:103EF8000D6005604F463F6809AC0323237078685E
:103F0800130C63703989130AA370E2700797029043
:103F180005F045FE49460D680AAE2868022105F0FD
:103F2800BBFF002800D0C3E02868702105F0B4FF6B
:103F38000028F2D0944B16229A60944A58601A606E
:103F48008020C00005F082FB232200236A441370FE
:103F5800069D8F4B04909D4200D894E080278021D5
:103F6800BF00C900C61905954718022504244A460A
:103F78005268049B802093611369C0001B689246B5
:103F880010620021181C9B4605F0A4FD51465846B6
:103F9800143105F081FD5846012105F09BFD494685
:103FA80089688023DB000B620B6923221B686A4443
:103FB8008A61181C8A4600219B4605F08BFD5146F4
:103FC8001431584605F068FD5846012105F082FD78
:103FD800BA464F46B1467E68B06805F089FD0028AC
:103FE800F9D05346B246514688684E46B9461F1C1A
:103FF80005F088FD42464346526899689446186819
:104008003A1C049B371C0E1C614694461A88326081
:1040180004600D60056002339F42F7D13B1CE24605
:104028004F4699467E68706805F062FD0028F9D011
:104038005346B246514648684E46B9461F1C05F0DD
:1040480061FD424652684346944618689968331C95
:1040580066469C461A880A6004603560056002332B
:104068009F42F7D105984B49494B40186646059041
:10407800984200D97BE7069D474E6A18AB195B0A40
:104088005B02D31A0693069F002F33D1049D002D9F
:1040980002D0281C05F0E2FA079D6868298905F016
:1040A8007CFD0BB03CBC90469946A246AB46F0BDA1
:1040B8002178286805F0DCFEAB89002B15D128682B
:1040C800012105F0E9FE00280CD12868702105F0CF
:1040D800E3FE002800D02DE72868012105F0DCFE6A
:1040E8000028F2D0286805F0C7FE0134B44200D099
:1040F80013E725E74E463468049D069E2068022192
:1041080005F0CAFE002820D12068702105F0C4FE01
:104118000028F3D01C4B16229A601C4A58601A607B
:10412800069F7B085A1E002BB0D04046049B476868
:1041380006688568022404201988296030603C607C
:1041480034600233013AF7D2A0E72068002105F075
:104158008FFE2068012105F09FFE00280BD1206802
:10416800702105F099FE0028D4D12068012105F0BE
:1041780093FE0028F3D0206805F07EFE013E2870EB
:104188000135002EBAD1CBE7B40800200100160093
:10419800FF03000000FEFFFF00FCFFFF10B5041C3A
:1041A80000F0DCF9201C10BD70B584B0061C0D1C95
:1041B800141C01A9181C05F09BFB301C291C221C8F
:1041C80001AB00F0D1F904B070BDC046044B0360E8
:1041D80006230371F023C38087235B0003817047A4
:1041E800DCA30008044B036006230371D223C380B9
:1041F80087235B0003817047F4A3000810B5802073
:1042080096B08002012105F0BBFD194B02AC4C228F
:104218006946A35203224A7190200122C0050A71FF
:1042280000221290A0648A71CA710093646405F038
:104238006FFC626C13ABD3601361D362E36808222E
:104248005A8158680821012205F0ABFC2369102225
:104258005A8158681021012205F0A3FCE36A8021E5
:10426800090159815868002205F09BFC16B010BD61
:1042780018080000F0B556465F464D464446F0B46F
:10428800A1B0FFF7BBFF0EA8FEF76CFB07A800F074
:10429800C7FD012005F0D4F907A9041C05F050F862
:1042A800201C05F0D7F9414802A901220AAC06AE44
:1042B80082468B469146201C04F032FF002804D128
:1042C8004B46A360636023602373882005F0B8F928
:1042D80007A90EAA051C00F047FA0223AB73237B3B
:1042E8004F46EB7300232B7416236F74338002231D
:1042F8005B42281C73802E495246102314300096C6
:1043080005F092F8FA235B009846338055237380B2
:10431800281C009621680022264B2830FEF776FAE2
:104328004146B62331807380281C009661680022BC
:10433800204B4830FEF76AFA8C2342465B003280F5
:104348007380281C009600221A4BA1686830FEF77B
:104358005DFA291C5846FFF78BF9231C5A4683CA75
:1043680083C31268281C1A6000F044FA281C05F060
:1043780071F9201C04F0B6FE482005F061F907A980
:10438800051C0EAA231C01F0FDFA281C04F060FE8F
:10439800002D90D0281C01F039FB281C05F05AF993
:1043A800201C04F0BDFE00288FD189E788A50008ED
:1043B8008C827A00E703000000B583B005F0EAFAC2
:1043C80001A8FFF757FFC046F0B54F464646C0B4B0
:1043D8005F4B8FB0002509AF90268020F6059846E0
:1043E8000993400110230121BD8101240B930A96F2
:1043F80005F0D4FC0223994600930194301C202137
:1044080003220323029505F027FA4B4600930194F3
:10441800301C802103220323029505F01DFA4B4628
:1044280000930194301C402103220323029505F0D8
:1044380013FA0022102103230194301C04AC0095C8
:1044480005F0ACF9201C05F0C5FC82235B006380F5
:10445800F0231B01A38080239B0063811823A38181
:1044680040460723211C23822580E5802581E5819C
:1044780005F0BEFC301C102105F08FFB40460121E1
:1044880005F0E0FC8021404649013F6105F0E6FC6B
:10449800301C102105F083FB2D48022105F0FCFC9F
:1044A800002826D12A48702105F0F6FC0028F3D010
:1044B800284B16229A605860274A9020C005102180
:1044C8001A6005F06AFB002323800223A3702048AA
:1044D800002105F0B7FC80204001002105F05EFCBA
:1044E80060882388000418430FB00CBC9046994696
:1044F800F0BD1748002105F0BDFC1548012105F065
:10450800CBFC00280BD11248702105F0C5FC00280F
:10451800CED10F48012105F0BFFC0028F3D00C488C
:1045280005F0ADFC051C9020C005102105F035FBF9
:1045380002222A40C7D104232B4005D16A04920DD8
:10454800053A2280A370C2E701232280A370BEE748
:1045580000300140B4080020010016000371002358
:104568000160826083817047F0B54D465F465646CC
:104578004446F0B41E1C8DB013885288041C0F1CCE
:1045880069464A853578227918B281460B85CA85ED
:10459800002D17D1D7E06E49A2686B18DB00D3183D
:1045A8009A796D46AA85381C1A680AA99B88FFF76C
:1045B80019FC2B8DAA8D0136D3189BB22B85357823
:1045C800002D07D02B1C303BDBB2092BE3D9A368A5
:1045D8005033E5E719B24D464A1B96B28B46009612
:1045E800A189914200DCA4E0FA68009F2568C91BF4
:1045F80089B2FC27566888B26A463F0290852F40E8
:104608002A027F09D20E3A43F8273D409BB29846CA
:104618002D022A43049041446846408D02927282DA
:1046280001396A46D28D89B28C4681B28B18776877
:10463800013B9BB205900691B889079339687B685E
:10464800BD68FF890892099001972A222A601F6095
:10465800186008605F463F12042002222F6008603D
:104668001A600A60FF274246381C1040804604271B
:10467800022042462A600F601860086067463FB211
:104688003F12042002222F6008601A600A60FF2788
:104698006246381C104084460427022062462A607D
:1046A8000F60186008602B270998019A2F601A601C
:1046B800186008600598042207B23F12B8464046C1
:1046C800022728600A601F600F60069AFF273A4099
:1046D8000427BC46604602272A6008601F600F60F6
:1046E800079A17B23F12B8460427BC46604602270D
:1046F80042462A6008601F600F600798FF2738400D
:104708000422022728600A601F600F6030682C2688
:104718008389C58947680168826816603D603B6087
:104728000B60049D089E2BB231B25943029AFEF7E2
:1047380059FA009F381CA7810DB03CBC9046994699
:10474800A246AB46F0BD0025CB460095002247E7C0
:10475800D0FFFF1FC36800B5DBB2002B02D10123D5
:104768000373417300BDC046F0B54F464646C0B41A
:1047780001604968051C87B041600023AA60171CC6
:104788001A4A037304A801920293021C01AB8146E2
:1047980042CB42C21020FDF7C7FB041E17D0211DD3
:1047A8000C2004F051FF002242608260031D4E4637
:1047B800904606CE06C34346056023603E68281C23
:1047C80026603C6007B00CBC90469946F0BD08488E
:1047D800804605E098471020FDF7A6FB041EDED1B1
:1047E80041460B68002BF5D1FEE7C0465D4700083F
:1047F800A808002070B5234B86B0019300230293CC
:1048080001AA04AB816860CA60C30A68041C059DDC
:104818000498002A12D0131C002803D120E01B683A
:10482800002B0BD05E68B442F9D19E688642F6D15F
:10483800DE68AE4207D01B68002BF3D1201C06B0FF
:1048480070BD111C12689A4208D0002AF9D110686C
:10485800002103680B60FDF771FBEFE7101CF8E718
:10486800012002E01B68002BE8D05E68B442F9D151
:104878009E68002EF6D1DE68AE42E4D02E43304268
:10488800F0D1E0E75D470008F0B5141C968AD58A98
:10489800D2886088520812186808121AA0882788D7
:1048A8004008C01983B07708C01B6F467A803880EB
:1048B800BE80FD801A1E00D12269081CA3696946C2
:1048C800FFF790FA03B0F0BDF0B5046857464E46BE
:1048D8004546E0B4A568B9276868436802688168F6
:1048E8008689C0890F6018601E601660012704263B
:1048F80002200F6016601860106000270F601660B5
:104908001860106003270F60166018601060192780
:104918000F601660186010602E4AFA201168002394
:1049280080002B80091813689942FCD8646800231A
:10493800606863820268436881688589C0892A261D
:1049480082460E6018601D6015600026042702204C
:104958000E601760186010600E60176018601060B5
:1049680002260E601760186010607F260E601760C0
:10497800186010602B2657460E601F601D6015607A
:10498800002604250E601560186010600E60156022
:104998001860106001260E601560186010606726A8
:1049A8000E6015601860106020682C218389C28908
:1049B8004468056886683160226023602B60E121C5
:1049C80089020022FEF70EF91CBC90469946A246C1
:1049D800F0BDC046C4080020F0B55F4656464D46B7
:1049E8004446F0B40368141C5D689368FC228BB0DD
:1049F80012021A4007911902C90E52090A43F821F6
:104A08000B401B021A432388A088009300996688EC
:104A180008180138B7B280B29BB2049787B20396E0
:104A280019B23EB206922A82B14200D169E1BB4670
:104A38008E4200DD63E1009F5946C31B1BB2D817A5
:104A48001B18434001339BB2059389B2059A0B1C8E
:104A5800013B6F68D3189BB2BE8988469C4639686B
:104A68007B68B868FF8902960197019A2A27076030
:104A78001A601E600E605E4636B2361204270222A5
:104A880006600F601A600A60FF264246371C17400E
:104A9800B84604260227424602600E601F600F6077
:104AA800664636B236120427022206600F601A6084
:104AB8000A60FF266246371C1740BC4604260227B8
:104AC800624602600E601F600F60049E2B2236B2A1
:104AD8003612B7B2BC46029E019F02601F601E607C
:104AE8000E6004270226624602600F601E600E6098
:104AF800039FFF263740BA4604220227564606601F
:104B08000A601F600F600427B846022266460660E6
:104B18000F601A600A6002274246564606600A601D
:104B28001F600F602F682C22BA46B889F9897B6804
:104B38003E68BF683A601960186030600598069A48
:104B480001B25046FEF74EF8E388A288013B9BB2BB
:104B5800218803920593FC22E36866881202029179
:104B68001A401902C90E01365209B6B20A43F82191
:104B78000196039F029E0B401B021A43F3190198EA
:104B88000599013B00922A829BB26A6898464318AD
:104B98009689D789013B9BB2049311685368906842
:104BA8000696BC462A2202601F601E600E60029EA6
:104BB800042736B23612022206600F601A600A60B5
:104BC800FF26029A371C1740BA4604260227524687
:104BD80002600E601F600F60464637B23F12BA4649
:104BE8000427B9464A460227564606600A601F60EF
:104BF8000F60FF2742463A400426022702600E60F3
:104C08001F600F602B27069A664607601E601A60B1
:104C18000A60019A042617B23F12B8464246022794
:104C280002600E601F600F60019EFF273E40B44681
:104C380002270426624602600E601F600F60049F10
:104C48003EB23612B44604270226624602600F605E
:104C58001E600E60049FFF263740BC4602260427CC
:104C6800624602600F601E600E6028682C258389EA
:104C7800C1894668076882681560316033603B60A7
:104C8800059D039E2BB231B25943009AFDF7AAFF46
:104C9800E188E38A6088490809185808091AA08831
:104CA800A28A25884008401955086F46401B388459
:104CB8007984BA84FB84079808A92269A369FFF755
:104CC80091F86088E18825884118A088228C638C37
:104CD800281807390738C91A801A6D463884798424
:104CE800AA84EB84E269A38C079808A9FFF77AF8ED
:104CF8000BB03CBC90469946A246AB46F0BD9B46DD
:104D080099E66A68091289B25368166897689089A3
:104D18008846D1890293B346019705908C462A228A
:104D28003A601960186030600423022602985946D8
:104D380042463A600B6006600E60009EFF231E40EC
:104D4800009604270220029A019B1E600F601060E3
:104D5800086004260227404618600E6017600F603E
:104D680004210222029E5F46009818603960326072
:104D78003A600499019A0BB21B129BB298460598A7
:104D88002B236146136031603060386004270223AA
:104D9800584641461160076033600360039AFF2359
:104DA8001A4092460423022701990A60036037607B
:104DB80007600422022347460F60026033600360E5
:104DC800042002275A4653460B601060376017606C
:104DD8002E682C21B246B789F08972683368B668A4
:104DE8003160106017601F6001215046069AFDF778
:104DF800F9FEA9E6F8B5051C0E1C141C002B0ED0F4
:104E0800013BDBB201339F00FF18FF00D719221CBA
:104E1800281C311C2834FFF7DFFDBC42F7D1F8BD50
:104E2800F0B55F4656464D464446F0B483468FB0CB
:104E3800142004F005FC0423C38102238381484B1A
:104E480001254360474B00260360474B041C8360E1
:104E580046490195464800220323009604F09EFC2B
:104E68009020002203230195C0050721009604F035
:104E780095FC90200221C00504F08FFE584604607E
:104E8800202004F0DDFB59460B6805720577394D83
:104E9800041C2A6803604360C3600A322B689A4284
:104EA800FCD89020C005012104F077FE2A6805325D
:104EB8002B689A42FCD89020C005012104F06FFEAF
:104EC8002A6832322B689A42FCD89020C00501210A
:104ED80004F063FE2A6832322B689A42FCD8E368F1
:104EE8009E895A6819689868DB8905969C466746C2
:104EF800B0230360176016600E600423042602279F
:104F080003600E6017600F60237A002B1CD0B92352
:104F1800059E67460360176016600E60012304262D
:104F2800022703600E6017600F60002303600E60A5
:104F380017600F60032303600E6017600F6018236B
:104F480003600E6017600F601123059E67460360BB
:104F5800176016600E602E68059F78360CE0C04614
:104F6800280000481800004814040048FFFF00000B
:104F780000040048C40800202B689E42FCD8C023C7
:104F880065460360156017600F6008260425022334
:104F980006600D6013600B609F2606600D6013604D
:104FA8000B60002606600D6013600B6006600D60E4
:104FB80013600B60022606600D6013600B6000260C
:104FC80006600D6013600B60012606600D601360BB
:104FD8000B60D02366460360166017600F600026DA
:104FE800022306600D6013600B60552606600D6095
:104FF80013600B60C02606600D6013600B608F267F
:1050080006600D6013600B6013236546036015602E
:1050180017600F6060684668076881688289C08980
:105028000596804606970791089236204346086001
:10503800336032603A60E02604250220059A0E604B
:105048003D601060386020683A268389C5890993D5
:10505800049547680168826816603D603B600B6094
:1050680005230425022613600D603E600E602A2782
:105078000599069A079B089D46461F600E600D60BD
:105088001560002704210222059D069E1F603160DD
:105098002A6032601F6031602A6032600223042572
:1050A8000226059F0699079A13600D603E600E6000
:1050B8007F2313600D603E600E602B27059B089DC3
:1050C800464617601E601D600D60002704210222FD
:1050D800069D079E376029601A602A60376029603C
:1050E8001A602A60012304250226059F0699079A5B
:1050F80013600D603E600E60672313600D603E60B4
:105108000E602C23476801688268099D049E13601D
:105118003E603D600D60E12189020022FDF762FDDD
:10512800E36829265A68196898689D89DB890660AA
:10513800136015600D605F467C6084490D220AA8E3
:10514800FDF786F90D2004F081FA0AA90D22041C46
:10515800FDF77EF97B68D8688589436802688168AD
:10516800C08908950990099EC82008601E601D60C6
:10517800156027786078B846E7788446A0783F01BC
:10518800074360792579000105430595A579207ABB
:105198000695E5790001A67A0543607A360106434B
:1051A8000396E67A049707950296207B0427022542
:1051B80046460E6017601D60156066460E601760F3
:1051C8001D601560049E0E6017601D601560059EC9
:1051D8000E6017601D601560069E0E6017601D60EA
:1051E8001560079E0E6017601D601560039E0E60B7
:1051F80017601D601560029E0E6017601D601560C7
:10520800086017601D6015600426022745460D607A
:1052180016601F60176065460D6016601F60176096
:10522800049D0D6016601F601760059D0D60166077
:105238001F601760069D0D6016601F601760079D50
:105248000D6016601F601760039D0D6016601F607B
:105258001760029D0D6016601F6017600860166079
:105268001F601760C925089E099F0D601F601E609A
:1052780016600425022647460F6015601E601660FA
:1052880067460F6015601E601660049F0F6015600A
:105298001E601660059F0F6015601E601660069FF1
:1052A8000F6015601E601660079F0F6015601E6016
:1052B8001660039F0F6015601E601660029F0F60E6
:1052C80015601E601660086015601E601660042771
:1052D800022546460E6017601D60156066460E6022
:1052E80017601D601560049E0E6017601D601560D4
:1052F800059E0E6017601D601560069E0E601760A3
:105308001D601560079E0E6017601D601560039E86
:105318000E6017601D601560029E0E6017601D60AC
:105328001560086017601D601560CA26089F099DF2
:105338000E601D601F6017600426022745460D6039
:1053480016601F601760654602E0C04640A100086D
:105358000D6016601F601760049D0D6016601F6069
:105368001760059D0D6016601F601760069D0D6033
:1053780016601F601760079D0D6016601F6017603C
:10538800039D0D6016601F601760029D0D6016601A
:105398001F601760086016601F60176004250226EA
:1053A80047460F6015601E60166067460F601560FF
:1053B8001E601660049F0F6015601E60166002274D
:1053C800059E0E6015601F6017600427BC46654681
:1053D8000227069E0E6015601F6017600427BC46F2
:1053E80065460227079E0E6015601F601760042738
:1053F800BC4665460227039E0E6015601F60176055
:1054080004270226029D0D6017601E6016600426A0
:105418000225086016601D601560082004F010F968
:105428005F465E4636687D68002346600380B86044
:1054380068686B828689436802688168C0890596B6
:1054480081462A270F6018601E6016600027042016
:1054580002260F6010601E6016600F6010601E60EC
:10546800166002270F6010601E6016607F270F60AD
:1054780010601E6016602B2705984E460F601E6050
:10548800186010600027042602200F60166018605C
:1054980010600F6016601860106001270F601660BA
:1054A8001860106067270F60166018601060286821
:1054B8002C218389C28947680568866831603A600B
:1054C8003B602B60E12189020022FDF78BFB201C49
:1054D80004F0C4F858460FB03CBC90469946A24622
:1054E800AB46F0BD0000000010B502604360029BAF
:1054F800039C8360C460049B059C03614461054B65
:10550800034A8261C3610262436210BDC046C0465D
:105518000000000000000000F0B5474680B484B0E9
:105528008046191C101C0A9A0B9BFCF703F9464687
:10553800326A736A041C0D1CFAF7DAFE3268736863
:105548003062716200900191201C291CFBF764FEF7
:10555800B268F3680290039100980199FBF75CFE2A
:10556800021C0B1C02980399FAF7C2FEB269F36990
:1055780002900391201C291CFCF7DCF8326973693E
:10558800FBF74AFE021C0B1C02980399FAF7B0FEBF
:10559800124B114A061C0F1CFAF774FE002809D199
:1055A800301C391C0E4A0F4BFAF76CFE00280DD13F
:1055B800002004E009490848FAF77AFEC0B24146DB
:1055C8008C61CD6104B004BC9046F0BD301C391C20
:1055D800F2E7C046C046C04600000000000059403F
:1055E8000000000000000000F0B5564644465F4643
:1055F8004D46F0B49246021C5B4B04329046043A86
:1056080008C28DB0061C40460C1C04F087FC8020A4
:105618000001012104F0C2FB544B76615A68E02373
:10562800DB0013408022D200934200D199E000D8D9
:1056380091E0A022D200934200D188E0C022D2009B
:10564800934200D089E04A4B1D68AD08306804F0E9
:10565800F0FC002701230222902080219946356121
:10566800019393460292B66136620097C00509011C
:105678000322032304F0F0F85246331C1068B46286
:1056880030330593FCF7FEFB5346041C58680D1C89
:10569800FCF7F8FB0090019152469068FCF7F2FB8A
:1056A800221C2B1C029003910598FFF71DFF3069FF
:1056B800B7673049FAF76CFD2F4D013807AC414602
:1056C800B080B5603068B781F78004F0EBFB201C30
:1056D80004F07CFC302323804B465A466380B36930
:1056E800A281A5601868211C04F03EFCB369002162
:1056F800186804F077FCB3690121186804F024FCE9
:10570800201C04F063FC602323804B466380B3694C
:10571800A760A7811868211C04F026FCB369002142
:10572800186804F05FFCB3690121186804F00CFCE8
:1057380000233377B3690021186804F051FC301C4A
:105748000DB03CBC90469946A246AB46F0BD084B0E
:105758001D686D087AE7002B03D0054B1D68ED081E
:1057680074E7034B1D6871E7002C014000100240EC
:1057780040080020102700008713000010B5002300
:1057880003778369041C0021186804F029FC206849
:10579800002104F0CCFBA06F002801D003F05EFFCD
:1057A80080200001002104F0F9FA201C10BDC04639
:1057B800F0B5264D244C4F464646C0B400225C2323
:1057C800C25200275E2383B0061CC7542430FEF75C
:1057D800FBFD019080B2FCF755FB34667566B06638
:1057E800F166B36A98461B6858889946FCF70CFB23
:1057F800221C2B1CFBF79EFF4B46041C18880D1C13
:10580800FCF702FB021C0B1C201C291CFBF794F85C
:10581800306771674346301C1989783003F0B6FC4D
:105828000B4B37771B680021B365B369186804F020
:10583800D7FB3068012104F07AFB03B00CBC90461A
:105848009946F0BDC046C04600000000000039403F
:10585800C4080020C046C04610B5002303778369FA
:10586800041C0021186804F0BBFB2068002104F028
:105878005EFB10BDF0B5474680B4414B061C196865
:10588800806DFA22091A86B000209200914222D92E
:105898001B685E22B365B36AB15C1C688800005B54
:1058A8005C24375BB8421AD0346E756E326F736FF2
:1058B8005C2101377752201C291CFAF719FD306644
:1058C8007166301C2430FEF77FFD030CDBB20490B8
:1058D800002B29D0022006B004BC9046F0BD01314F
:1058E800C9B2B1541A798A42F4D01B6889005B188E
:1058F80058889846346E756EFCF786FA2B1C221C65
:10590800FBF718FF4246029003911088C01BFCF772
:105918007BFA021C0B1C02980399FBF70DF8306701
:105928007167021C0B1CC3E704AB1888FCF7AAFAC2
:105938000B1C021C301CB266F36600920193326E97
:10594800736E3030FFF7E8FDB3693077021C1889B1
:105958006421013050431C68FAF71AFC0104090C51
:10596800201C04F03DFBB06EF16EFAF7A1FC7C221E
:10597800B35A591CB152B26F5B00D0520120AAE74A
:10598800C4080020F0B585B0041C1E1CFEF7ECFE10
:10599800012303ADA3730A2300272B80201C0F23A8
:1059A8006B801749174AE77326611C30009503F08E
:1059B8003BFD201C2F806F800F233030009510494D
:1059C800114A03F031FD337B0C20002B11D103F079
:1059D80037FE051CFEF7FAFB6561802003F030FEF8
:1059E8006169321C051CFFF7FFFD201CA56105B08D
:1059F800F0BD03F025FE051CFEF7F4FB6561ECE73E
:105A08009E489F00D0A4000830A5000838B58569D5
:105A1800041C002D05D0281CFFF7B0FE281C03F03D
:105A280019FE606903F016FE201CFEF7E3FE201C39
:105A380038BDC046F0B557464E464546E0B4036803
:105A480082B05C686846332303800A2343800F23AF
:105A58008380C380B423081C544A69465B00FEF760
:105A6800C1F96068524B026823828168436885895E
:105A7800C0892A2682460E6018601D6015600027BE
:105A8800042002260F6010601E6016602D270F602C
:105A980010601E60166002270F6010601E6016609E
:105AA80016270F6010601E6016602B2657460E6082
:105AB8001F601D6015600126042502200E60156018
:105AC8001860106049260E60156018601060012685
