:020000040800F2
:100000000020002089580008D5580008D55800085D
:1000100000000000000000000000000000000000E0
:10002000000000000000000000000000D55800089B
:100030000000000000000000D55800088D5B00089B
:10004000D5580008D5580008D5580008D5580008DC
:10005000D5580008D5580008D5580008D5580008CC
:10006000D5580008D5580008D5580008D5580008BC
:10007000D5580008D5580008D5580008D5580008AC
:10008000D5580008E95A000800000000D5580008BB
:10009000D5580008D5580008D5580008D55800088C
:1000A000D5580008D5580008D5580008D55800087C
:1000B000D558000800000000D558000800000000D6
:0400C0005FF808F1EC
:1000C80008B5064B064803331B1A062B00D808BD93
:1000D800044B002BFBD09847F9E7C04644080020A2
:1000E800440800200000000008B50748074B1B1A09
:1000F8009B10DA0FD318591000D108BD044A002A02
:10010800FBD09047F9E7C046440800204408002087
:100118000000000010B5074C2378002B09D1FFF729
:10012800CFFF054B002B02D0044800E000BF01239D
:10013800237010BD44080020000000002864000857
:1001480008B5094B002B03D00848094900E000BF57
:1001580008480368002B03D0074B002B00D09847B2
:10016800FFF7C2FF08BDC046000000002864000871
:1001780048080020440800200000000002B471462E
:1001880049084900095C49008E4402BC7047C046D2
:10019800002934D00123002210B488422CD3012432
:1001A8002407A14204D2814202D209011B01F8E7C7
:1001B800E400A14204D2814202D249005B00F8E780
:1001C800884201D3401A1A434C08A04202D3001BAC
:1001D8005C0822438C08A04202D3001B9C082243DF
:1001E800CC08A04202D3001BDC082243002803D01D
:1001F8001B0901D00909E3E7101C10BC704700284F
:1002080001D00020C04307B4024802A14018029060
:1002180003BDC046D90000000029F0D003B5FFF7A0
:10022800B9FF0EBC4243891A1847C046002941D07D
:1002380010B4041C4C40A44601230022002900D518
:100248004942002800D5404288422CD30124240783
:10025800A14204D2814202D209011B01F8E7E4005D
:10026800A14204D2814202D249005B00F8E78842E9
:1002780001D3401A1A434C08A04202D3001B5C0861
:1002880022438C08A04202D3001B9C082243CC08BE
:10029800A04202D3001BDC082243002803D01B091C
:1002A80001D00909E3E7101C6446002C00D5404240
:1002B80010BC7047002806D003DB0020C04340086C
:1002C80001E08020000607B4024802A1401802900D
:1002D80003BDC046190000000029EBD003B5FFF7A5
:1002E800A7FF0EBC4243891A1847C0467047C0464C
:1002F8008446101C62468C46191C634600E0C046C2
:100308001FB500F065FF002801D40021C8421FBDB9
:1003180010B500F099FE4042013010BD10B500F054
:1003280057FF002801DB002010BD012010BDC0468A
:1003380010B500F04DFF002801DD002010BD0120A0
:1003480010BDC04610B500F0C9FE002801DC002031
:1003580010BD012010BDC04610B500F0BFFE00283A
:1003680001DA002010BD012010BDC04600000000C9
:1003780038B50E4B0C4A041C0D1CFFF7EDFF002886
:1003880004D1201C291C01F06BFD38BD074B064A1F
:10039800201C291C01F02EFA01F062FD80231B06A7
:1003A800C018F2E7C046C046000000000000E04167
:1003B800F8B55F46564644464D46F0B40C034D002A
:1003C800CE0F610A440F2143C40018038046580029
:1003D800400D8246D80F84464046400A530F0343D7
:1003E800D0006D0D371C83465246664500D1A4E007
:1003F800AF1A002F00DC09E1002A3BD1184300D0D6
:10040800EAE0630700D187E00F232340042B00D1E3
:1004180082E0221DA242A4416442802309191B04E0
:100428000B40371C141C002B00D17CE0CE4B01354F
:100438009D4200D105E1CD4BE40819404807490227
:1004480004430B0B002000211B031A0B0B0D6D0539
:100458001B0513436A08C64DFF071D4015436D0071
:100468006D08291C3943201C3CBC90469946A2467D
:10047800AB46F8BDBC488542C3D080200004034386
:10048800382F00DDF0E01F2F00DD24E12020C01B05
:100498001A1C814682405846F84002439446584602
:1004A8004A469040421E9041FB40624602431F1C50
:1004B800A21A9442A4416442C91B091B141C0B02D2
:1004C8009FD549024F0A002F00D1C8E0381C01F01F
:1004D8006DFD021C083A1F2A00DDB5E02821091A23
:1004E800201C9740C84007439440954200DDB2E085
:1004F800551B691C1F2900DDDCE01F22551B3B1C16
:10050800221CAB40CA40AC40651EAC411343CF40EF
:100518001C43391C002574E780231B040B40371C3F
:10052800002B00D082E7904B4807E4080443C90831
:100538009D4248D009030B0B84E7AA1A9446002A67
:1005480000DC98E05046002852D08748854200D108
:1005580057E78020000403436246382A00DDFCE0A8
:100568001F2A00DD4AE120226046101A1A1C824028
:100578008246914658466246D0404A4602439046D3
:10058800584652469040421E9041424602436046B9
:10059800C3401219A242A441644259180919141CF3
:1005A800080200D42DE7704B01359D4200D122E1AD
:1005B8006E4B60081940012323401C1C0443CB07E1
:1005C8001C4349081DE7231C0B433AD080231B0317
:1005D8000B431B031B0B35E7013F002F65D1584622
:1005E800221A9442A4416442C91A091B141C66E7E2
:1005F8005846184300D104E7012252429444604609
:10060800002800D0C5E058460219C3E7002F73D16F
:10061800681C4005400D012800DCDEE05A46A21A9D
:100628009442BF41C81A7F42C71B380200D489E0F0
:100638005A46141BA3459241591A52428F1A6646CC
:1006480041E700230024FDE6271C283887400024C2
:10065800954200DC4CE74549AD1A3940D1E6201CEB
:1006680001F0A4FC203034E75A461A43531E9A413D
:10067800D2B200271CE7002A00D0DCE0681C420543
:10068800520D012A00DC8DE0374DA84200D1F3E07D
:100698005D462A19A242A441644259180919CC0797
:1006A800520814434908051CABE62F48854200D080
:1006B800E6E6A6E62B1C1F3B3A1CDA40131C202951
:1006C8006CD03F22551BAF403C43601E84411C4305
:1006D8000021002595E6381C20381A1CC240101C41
:1006E800202F5DD04022D71BBB405A461A43531EC9
:1006F8009A4102430027DBE6002D3BD01A4DAA455C
:1007080000D193E080252D047F422943382F00DD56
:10071800ACE01F2F00DD29E12025ED1B081C261C5D
:10072800A840FE40AC400643651EAC413443F94046
:100738005D462C1BA34592415B1A5242991A5546B5
:100748006646BCE6131C3B43141C002B00D0BAE6DB
:100758000027002100240025E5E65A461A43531EC7
:100768009A41D2B2002314E7FF070000FFFF7FFF82
:10077800FFFF0F800D1C254358D0FF43002F51D198
:10078800041BA3459241591A5242891A5546664696
:1007980095E69648854200D0DEE632E6002793E7E4
:1007A8000023A2E7081C2043002D00D0C4E0002845
:1007B80000D1F7E05846184300D122E658460219FE
:1007C800A242A441644259180919141C0A0200D40F
:1007D80017E6874B0125194013E6081C2043002D16
:1007E80039D1002871D15946194303D0191C5C46E8
:1007F800664606E600270021002494E66046203875
:100808001A1CC24060469146202800D1ACE0402224
:10081800121A93405A461A43531E9A414B461A439A
:100828000023B6E6714DAA4500D06FE7191C5C4657
:1008380055466646E5E5002D22D10D1C254377D0A7
:10084800D543002D71D15C445C4592415918524200
:1008580089185546A4E600284DD15946194300D1B8
:1008680094E0191C5C466646604DCAE50C43611E5F
:100878008C41E4B200215BE7051C0021002452E60C
:100888005A4DAA4554D05542802210040143382DB0
:1008980000DD81E01F2D00DD92E02022501B0A1CA4
:1008A80084468240201CE8400243904662469440B9
:1008B800601E844142461443E9405C445C459241D1
:1008C800CB185242991855466AE65846184300D143
:1008D80097E55846271ABC429241C81A5242801AD4
:1008E800020266D55846041BA3459241591A524242
:1008F800891A664685E55846184333D04807E40800
:1009080004438020C9080003014208D0DD080542DD
:1009180005D15946CA085C071443291C6646630F6B
:10092800C9001943E400314D6BE5304A9245AED118
:10093800191C5C46554664E5002836D058461843CD
:1009480010D080254807E408C9082D03044329422C
:10095800E5D0D8082842E2D15D46EA085C0714438E
:10096800011CDCE7214D4CE5002353E73D1C203DED
:100978000A1CEA40151C202F34D04026F71BB9402A
:100988000C43611E8C412C430021D1E6082400272A
:1009980018496442154DC6E50C43611E8C41E4B20A
:1009A80000218AE7191C5C462BE5191C5C460F4D93
:1009B80027E5031C3B4300D11CE7011C3C1C20E538
:1009C8002020404240190A1CC2409046202D0BD0DE
:1009D8004020451BA9400C43611E8C4141460C43F5
:1009E80000216AE70021CBE70021F4E7FF070000B8
:1009F800FFFF7FFFFFFF7F00F0B5564644465F4686
:100A08004D46F0B41F1C0B031B0B98464B0087B0D8
:100A1800041C81465B0DC80F161C9A460090002BDB
:100A280051D06B4B9A4531D08022414652030A433C
:100A3800630FD2001A43674B90460025E2009146A7
:100A48009A44002402953B031B0B9B46FD0F7B0039
:100A5800311C5B0D019560D05D4A934254D08021D2
:100A6800584649030143720FC9001143594A8B463E
:100A78009B18F1000020009A04436A4003920F2C4F
:100A880000D9B1E0544EA4003459A7464046044367
:100A98006ED1002102250824884689460295D2E7AE
:100AA800009C0298C34649460194022864D0032852
:100AB80000D1AFE2012800D03CE2019A00240240B4
:100AC8000025A14660E0434623434AD0404600281B
:100AD80000D1C4E101F06AFA031E272B00DDB7E15B
:100AE80028210D1A211C083B4246E9409A400D1C5A
:100AF8001543221C9A40A8469146384B00251B1ADC
:100B08009A46002402959EE75A4616430320002E73
:100B1800B1D1B34600210220ADE75A4632431BD07B
:100B28005B46002B00D18EE1584601F03FFA27289A
:100B380000DD81E12822171A011C321C08395B46A6
:100B4800FA408B40171C1F43331C8B40BB46191CB3
:100B5800224B1B1A00208EE70027BB4600210120EC
:100B680089E70020012504248046814602956AE72A
:100B780003250C24029566E7019E0396039F012234
:100B88000024134D3A40A146002000212403260BDF
:100B98000C0D2405124B34432D0523402B435B00D9
:100BA8005B08D207191C4846114307B03CBC904665
:100BB8009946A246AB46F0BD01235B420022094C90
:100BC8009946034DE0E700240025A146DCE7C0462E
:100BD800FF07000001FCFFFF046000080DFCFFFF99
:100BE800FFFF0F80FFFF0F005546ED1A0495D8450B
:100BF80000D953E100D14EE1049C0025013C4E464A
:100C080004944746A946584603020C0E1C430902A1
:100C1800250C23041B0C0091381C291C0193FFF799
:100C2800B7FA019983464143381C8A46291CFFF7C5
:100C3800F3FA330C090419438A450CD95B460919A0
:100C4800013B8C4200D947E18A4500D844E10222A1
:100C58005242934409195346CB1A181C291C98462A
:100C6800FFF796FA071C0198291C784382464046EC
:100C7800FFF7D2FA36040B04360C33439A4509D9E8
:100C88001B197A1E9C4200D924E19A4500D821E11B
:100C9800023F1B195E4632041743380CBB46009EC0
:100CA800009F51463F0C32045B1A5946BA46120C53
:100CB8000F043F0C904651467A434F434146414307
:100CC80056467043CF19160CBE19B14202D9802777
:100CD8007F02C019310C12043604120C4018B618E1
:100CE800834200D2C4E000D1BEE0191A4846861BF0
:100CF800B145BF417F42CF1BA74200D113E1291C58
:100D0800381CFFF745FA019902904143381C89467F
:100D1800291CFFF781FA330C0904194389450CD9BA
:100D2800029B0919013B8C4200D9FFE0894500D894
:100D3800FCE0029F0919023F02974F46CF1B381C5F
:100D4800291C0597FFF724FA071C0198291C7843EA
:100D580081460598FFF760FA36040904360C0E43FD
:100D6800B14509D936197B1EB44200D9E0E0B14536
:100D780000D8DDE0023F3619029D4946761A29045B
:100D880039430B0457460A0C1B0C4046454658434A
:100D980055437B437A43EB18070CDB199D4202D974
:100DA80080256D0252191D0C00041B04000C5219F9
:100DB8001B18964235D300D1FCE001231943049E49
:100DC800994FF519002D00DCA1E0480709D00F2341
:100DD8000B40042B05D00B1D8B42894149428B44A3
:100DE800191C5A46D20107D5904B5C46049E8027B1
:100DF8001C40FF00A346F5198D4B9D427ADD039CEC
:100E08000122224000248B4DA146BDE68024240304
:100E1800474627424CD13C432403240B009A854D76
:100E2800B2E63619481EB4425ED9011C9642C4D1B6
:100E3800009E9E42C1D1C2E7031C283B311C994049
:100E48008B46002184E6301C01F0B0F820306EE6B5
:100E5800283B211C99400022884691464DE6201CDB
:100E680001F0A4F8203037E60021B14500D33DE772
:100E7800009F5A46B944B945BF417F423F19FB1804
:100E8800013A9C421ED2984200D97EE000D1B5E0DA
:100E9800191A93462AE7894500D8ADE648464646DA
:100EA80042467708D3074608C0071E438146AAE68C
:100EB8005846204212D1044324032A1C240B894695
:100EC8005C4D61E6A342E3D1009F4F45DBD9211A6F
:100ED80093460BE7171CDDE69B46BCE63C43240320
:100EE800240B009A534D4FE6B24259D800D18AE0FC
:100EF800011C62E75E46C9087307039F0B4374022F
:100F08006D0501229946240B6D0D3A403CE64A4B8B
:100F1800049C1B1B382B10DD039D012200242A4052
:100F2800A146002530E60121494248E7029304E73B
:100F38001F1C21E7019C039441E71F2B40DC049E02
:100F48003E4F0C1CF21958469140DC40904020431B
:100F58000A1C511E8A41011C5846D8401143031CE3
:100F6800480709D00F220A40042A05D00A1D8A42E0
:100F7800894149425B18111C1A0234D5039C01228D
:100F8800224000240125A146FEE5009F0221494296
:100F9800B9448B44B945894149420919CB18A4E69B
:100FA800009D881E6900A942AD416D422C19361971
:100FB80000913AE7002B00D033E70024009437E78C
:100FC8001F4A049C5D46121BD5402A1C202B1FD0AB
:100FD8001C4E5F46A3199F403B1C19434B1E994169
:100FE80011430023BCE75A07C9080A43039D9146E9
:100FF8005B0201222A401C0B0025C5E54E45C4D8DA
:101008009346002172E6009F9F42C9D3011C0FE757
:101018000023E2E780242403584604432403240BD6
:10102800019A8946034DAFE5FF030000FFFFFFFE6D
:10103800FE070000FF07000002FCFFFF1E0400007F
:10104800E2FBFFFF3E040000F0B55F4656464D4602
:101058004446F0B40D1C041C8046E80F8146180372
:101068000F03000B3F0B83B084461B4800974900D1
:101078005E00DF0F490D9246760DBB4681420CD0CB
:101088001548864210D00120B14215D003B03CBCAF
:1010980090469946A246AB46F0BD009F01202743E3
:1010A800F4D10D488642EED1604602430120002A61
:1010B800ECD10120B142E9D1009B6345E6D1D0458E
:1010C800E4D1D94506D00029E0D11C43201C441E98
:1010D800A041DBE70020D9E7FF070000F0B55F4635
:1010E80056464D464446F0B4CD0FDE0FAC461D03C0
:1010F8002D0BB146354E0F034C00AB465D008046C4
:101108003F0B640D92466D0DB44231D02F4EB5425F
:1011180034D0002C0ED1384341424141081C002DE7
:101128000BD0002919D1CC452CD06646002E17D1FA
:10113800012017E0002DF6D1281C59460A435342D6
:101148005341002806D1002BEDD065460120002D23
:1011580008D005E00020002B04D14B46002BE7D136
:10116800012040423CBC90469946A246AB46F0BDA1
:101178003E1C0643CAD002204042F3E75E461643AF
:10118800C7D0F8E7AC4205DC09DA6346002BE7D0A4
:101198000120E7E761460029E2D10120E2E75F4547
:1011A80008D80CD000205F45DCD26646002ED7D088
:1011B8000120D7E76546002DD2D10120D2E7D045DE
:1011C800F8D80020D045F0D3CCE7C046FF07000090
:1011D800F0B556464D4644465F46F0B40D1C83B004
:1011E800041C0190E80F814618030F03000B3F0B06
:1011F80084463848009749005E00DF0F490D924643
:10120800760DB846814233D03248864235D000291F
:1012180017D0002E1ED1341C67463A43534253411F
:10122800002C1ED00020002B04D14046002816D1E7
:101238000120404203B03CBC90469946A246AB46CA
:10124800F0BD0098044360426041041C002EE3D0C6
:101258000028EAD1C14515D04F46002FE8D101201A
:10126800E8E7002BF6D04B460120002BE2D0DFE761
:10127800009F02202743DDD1C6E7674602201743B7
:10128800D8D1C4E7B14204DD48460028D0D10120B6
:10129800D0E7B14204DA4B46002BC9D00120C9E798
:1012A800009F674509D80DD0009F00206745C1D22F
:1012B8004F46002FBCD00120BCE74B46002BB7D1CE
:1012C8000120B7E701985045F7D8019B0020534506
:1012D800EED3AFE7FF070000F0B5564644465F4639
:1012E8004D46F0B41F1C0B031B0B9A464B0087B0EE
:1012F800041C80465B0DC80F161C02938146002B08
:1013080068D0694B0299994232D0802253465203E1
:101318001A43D200630F1A439246644AE0008918C0
:1013280080460291002400253B031B0B7800F90F2F
:10133800321C9B46400D039100D175E05A4B9842F0
:1013480069D080225B4652031A43D200730F1A43B6
:101358009346F200554E0023801903994E4671407A
:101368001C430F2C00D9ABE0514EA4003459A746BA
:1013780053461C4300D086E00025AA46A846082408
:101388000225D1E74946022D6BD0032D00D115E285
:10139800012D00D056E10D40EDB20024A9460023EE
:1013A800A0460020002125030A0D1C052D0B12055F
:1013B800404B2A43134023435B004C465B08E2073B
:1013C800191C4046114307B03CBC90469946A246BA
:1013D800AB46F0BD534623434FD05346002B00D1B4
:1013E80082E1504600F0E2FD031E272B00DD74E188
:1013F80028210D1A211C083B5246E9409A400D1C31
:101408001543221C9A40AA4690462B4B00241B1ACF
:101418000293002588E75B461E430323002E9CD1D8
:10142800B3460022022398E7334321D058460028C8
:1014380000D14DE100F0BAFD272800DD41E1282167
:101448000F1A021C311C083A5B46F94093400F1CE6
:101458001F43331C9340BB461A1C174B181A002312
:101468007BE701230B4000249946A0460E4B98E7E2
:101478000027BB46002201236FE700200424824690
:101488008046012550E70C2403254DE701235B42E4
:1014980000259846A946094C034B82E7DA46904650
:1014A80003991D1C6FE7C046FF07000001FCFFFF02
:1014B80044600008FFFF0F800DFCFFFFFFFF0F00D7
:1014C800029F160C381804904046070C0004000CC4
:1014D8001204120C031C5343041C3D1C7443554353
:1014E80098463B1C73436419A44644460293230C54
:1014F80063449D4204D9029D802464022D190295FB
:101508001D0C039545462C041B04240C1C1905943A
:101518005C46230C051C58432404240C8446381CC0
:10152800604365435F438146CC44280C6044BB4616
:10153800814502D980277F02BB442D04070C2D0C5E
:10154800000440195546BC462F04E3448446280C41
:101558003D0C2F1C5743B8462F1C77434243B946CE
:1015680047463F0C9144BA46D14446434A4502D9BE
:1015780080225202B6184F463A0CB6183A0447462B
:101588003F043F0CB8462F1C67435D434443584310
:1015980065190190380C2D184244B846AC4204D95C
:1015A800019880235B02C01801900398029C604454
:1015B80000196045A44143466442A4462F041C0414
:1015C8008018B946240C4C44904292415C445242E3
:1015D800A04691466444A24632194F46D419E245C2
:1015E8009B41D845BF415B427F421F432D0C7F1969
:1015F800B24292414C45AD4152426D421543019E63
:101608007D19AB19E20D5B02059F134342023A4371
:101618009A46531E9A41C30D101C18436402204376
:1016280080465046C0010DD5454601225646049CC9
:101638006B082A401A43F30701341A4376080494C6
:101648009046B246049F63483B18002B61DD424632
:1016580052070BD00F2244462240042A06D04246A5
:101668000432424580414042824490465546ED014D
:1016780007D5594B5646049F80201E40C000B246ED
:101688003B18564A934200DDEBE644465546E208CD
:101698006807104301226C025B050A408046240B50
:1016A8005B0D91467DE6DA4690461D1C6BE680246C
:1016B8002403574627421CD13C432403240B484BA0
:1016C8006FE6031C283B311C99408B460022C4E678
:1016D800301C00F06BFC2030AEE6283B211C994002
:1016E80000228A46904690E6201C00F05FFC2030DD
:1016F8007AE65846204207D10443039D2403240B6D
:10170800A9469046364B4CE63C432403240B344B05
:1017180047E6344B049E9B1B382B06DD01230B4008
:1017280000249946A04600233BE61F2B25DC2E4AC1
:10173800049F4446B8185246DC408240224344463F
:101748008440201C5546441EA041DD4002432B1C0A
:10175800560709D00F201040042805D0101D9042CC
:10176800924152429B18021C1F021AD501230B40BA
:1017780000249946A046012313E61C48049E5746B8
:10178800801BC740381C202B16D0194B5446F21822
:101798009440221C45462A43531E9A410243002383
:1017A800D6E758075B02D2081C0B01230B401043F5
:1017B800994680460023F4E50022EBE780242403C1
:1017C80050460123044319402403240B8946044B43
:1017D800E7E5C046FF030000FFFFFFFEFE0700002D
:1017E800FF07000002FCFFFF1E040000E2FBFFFFF2
:1017F8003E040000F8B55F46564644464D46F0B4F0
:101808000C034D00CF0F610A440F2143C400180395
:10181800DE0F8046B44646465800760A530F3343D7
:10182800D600D14A6D0DBA46400DB346904200D15C
:10183800F5E06246012672409446674500D1ABE068
:101848002F1A002F00DC11E100283ED1584618431A
:1018580000D0F1E0600700D197E00F232340042B6C
:1018680000D122E1221DA242A44164428023091929
:101878001B04012750460B400740141C002B00D1C5
:1018880079E0B94B01359D4200D10BE1B74BE40833
:1018980019404807490204430B0B002000211B0391
:1018A8001A0B0B0D6D051B0513436A08B04DFF0796
:1018B8001D4015436D006D08291C3943201C3CBC94
:1018C80090469946A246AB46F8BDA7488542C1D086
:1018D800802000040343382F00DDFDE01F2F00DDCA
:1018E80031E12020C01B1A1C5E468240FE40324374
:1018F80094465A468240101C421E9041FB40624664
:1019080002431F1CA21A9442A4416442C91B091B2A
:10191800141C0A029ED549024F0A002F00D1D6E0B6
:10192800381C00F043FB021C083A1F2A00DDC3E004
:101938002821231C091A9740CB401F439440954205
:1019480000DDC0E0551B691C1F2900DDEAE01F22ED
:10195800551B3B1C221CAB40CA40AC40651EAC4129
:101968001343CF401C43391C002573E708248149E1
:101978007D4D002764427C4B4807E4080443C908AE
:101988009D4250D009030B0B87E780231B040127D6
:1019980052460B40174071E72E1AB446002E00DC61
:1019A800A1E0002854D07048854200D152E7802039
:1019B800000403436046382800DD10E11F2800DDDD
:1019C80059E162462020801A1E1C8640B1465E46B8
:1019D800D6404A4632435E4686409046301C421EF8
:1019E8009041424602436046C3401219A242A441B4
:1019F800644259180919141C0E0200D42AE75A4BDC
:101A080001359D4200D133E1584B6008194001234C
:101A180023401C1C0443CB071C4349081AE71E43F8
:101A280000D00AE705E7231C0B433BD080231B03A8
:101A38000B431B031B0B30E7013F002F6DD15846AA
:101A4800221A9442A4416442C91A091B141C60E773
:101A58005846184300D1FDE60120404284446246BE
:101A6800002A00D0D2E05E463219BFE7002F00D02E
:101A780082E0681C4005400D012800DCEAE05A4677
:101A8800A21A9442BF41C81A7F42C71B3E0200D423
:101A98009AE05846041BA3459241591A52428F1A9C
:101AA800E2463AE700230024F7E680231B040127D7
:101AB80056460B403740E1E6271C2838874000246B
:101AC800954200DC3EE72949AD1A3940C2E6201CA0
:101AD80000F06CFA203026E75A461A43531E9A4102
:101AE800D2B200270EE7002E00D0E0E0681C4205C5
:101AF800520D012A00DC92E01B4DA84200D1F7E00C
:101B08005D462A19A242A441644259180919CC0712
:101B1800520814434908051C9CE61348854200D026
:101B2800D9E697E62B1C1F3B3E1CDE40331C2029C0
:101B380071D03F22551BAF403C43601E84411C437B
:101B48000021002586E6381C20381E1CC640301CA3
:101B5800202F62D04022D71BBB405A461A43531E3F
:101B68009A4102430027CDE6FF070000FFFF7FFFF1
:101B7800FFFF0F80FFFF7F00002D37D0B64DA84232
:101B880000D18FE080252D047F422943382F00DDC6
:101B9800A8E01F2F00DD25E12025ED1B0E1CAE401F
:101BA800B046261CFE404246AC401643651EAC417A
:101BB8003443F9405A46141BA34592415B1A5242DA
:101BC800991A051CE246A4E6131C3B43141C002B7F
:101BD80000D0A2E60027002100240025CBE65A46C3
:101BE8001A43531E9A41D2B20023FEE60D1C254328
:101BF80058D0FF43002F51D15D462C1BA34592417D
:101C0800591A5242891A051CE24682E692488542D0
:101C180000D0CFE61EE600278EE700239DE7081CCC
:101C28002043002D00D0C3E0002800D1F0E0584642
:101C3800184300D10EE65E463219A242A44164421E
:101C480059180919141C080200D403E6834B01250E
:101C58001940FFE5081C2043002D38D1002870D119
:101C68005946194303D0191C5C46E246F2E50027A1
:101C7800002100247FE6604620381A1CC2406646D0
:101C8800101C202E00D1ABE04022921B93405A46F4
:101C98001A43531E9A4102430023A6E66E4DA842FA
:101CA80000D073E7191C5C46051CE246D2E5002DFE
:101CB80022D10D1C254377D0F543002D71D15C440A
:101CC8005C459241591852428918051C94E600282F
:101CD8004DD15946194300D148E6191C5C46E246E5
:101CE8005D4DB7E50C43611E8C41E4B2002161E70C
:101CF800051C002100243EE6574DA84254D06646F4
:101D08008022754216043143382D7BDC1F2D00DDFF
:101D18008CE02022561B0A1CB446B240261CEE401A
:101D28003243904662469440661EB441424614438C
:101D3800E9405C445C459241CB1852429918051C15
:101D48005AE65846184300D184E55E46A71BBC42B4
:101D58009241C81A5242801A060260D55846041B9E
:101D6800A3459241591A5242891AE24672E55846E9
:101D7800184333D04807E40804438020C908000307
:101D8800014208D0DD08054205D15946CA085C075A
:101D98001443291CE246630FC9001943E4002E4D81
:101DA80058E52D4A9042AFD1191C5C46051C51E5F7
:101DB800002830D05846184310D080254807E4083A
:101DC800C9082D0304432942E5D0D8082842E2D1A6
:101DD8005946CA085C071443011CDCE71E4D39E567
:101DE800002354E73D1C203D0E1CEE40351C202FDF
:101DF8002ED04026F71BB9400C43611E8C412C4362
:101E08000021D7E60C43611E8C41E4B2002190E723
:101E1800191C5C461EE5191C5C460F4D1AE5031C8F
:101E28003B4300D123E7011C3C1C13E520267642E6
:101E380076190A1CF2409046202D0BD04026751BBF
:101E4800A9400C43611E8C4141460C43002170E7B8
:101E58000021D1E70021F4E7FF070000FFFF7FFF23
:101E680070B50B1C124C09030E0B5900021C490DCE
:101E7800DD0F0020A14211DD0E4881420FDC8020D9
:101E8800400306430C48401A1F280BDD0B4A521A20
:101E9800D640321C5042002D00D1101C70BD084B9A
:101EA800E818FBE7074BC240C9188E403243F1E7F8
:101EB800FE0300001D0400003304000013040000AA
:101EC800FFFFFF7FEDFBFFFFF8B5041E31D0C70F02
:101ED80000D04442201C00F069F8184D2D1A0A2839
:101EE80019DD0B38844024036D05240B6D0D3A1C55
:101EF8000026002000210B0D2403240B1B0523437F
:101F08000F4C2D051C402C4364006408D307211C8A
:101F1800301C1943F8BD061C1536231CB3401E1C83
:101F28000B23181AC44024036D05240B6D0D3A1CAD
:101F3800DFE70022002500240026DAE71E0400005F
:101F4800FFFF0F8010B5041E28D000F02FF8154AA7
:101F5800121A0A2815DD0B38844024035205240B75
:101F6800520D0023002000212403181C0B0D240B04
:101F78001B0523430C4C12051C40144364006108E4
:101F880010BD031C1533211C99400B1C0B21081A8A
:101F9800C44024035205240B520DE3E70022002419
:101FA8000023DFE71E040000FFFF0F801C21012330
:101FB8001B04984201D3000C10391B0A984201D324
:101FC800000A08391B09984201D30009043902A202
:101FD800105C40187047C046040302020101010169
:101FE800000000000000000008B5034B011C186841
:101FF80000F00EF808BDC0461004002008B5034BD9
:10200800011C186800F086FB08BDC04610040020BB
:10201800F0B5564644465F464D46F0B40C1C0B34AA
:1020280083B0061C162C2BD907239C432BD4A14222
:1020380029D8301C00F008FBF823FF339C4226D82F
:10204800E208CB4DD300EB18DF689F4200D1B7E11F
:1020580078680323FA68B96898433B18CA609160A6
:10206800596801220A43301C5A6000F0EFFA381C04
:10207800083003B03CBC90469946A246AB46F0BD3A
:102088001024A142D5D90C2333600020F1E7630A5C
:1020980000D18EE0042B00D93EE1A30938339C46D9
:1020A8005900B34D89006918CF68B94215D07A68CC
:1020B80003239A43101B0F2800DD8DE000287CDAEB
:1020C800032007E07A688243131B0F2B00DD83E0AF
:1020D800002B72DAFF68B942F4D1012294442B1C18
:1020E8002F6908339F4200D15FE17868032290434B
:1020F800021C011B0F2900DD46E16B612B610029E1
:102108005FDA9C4B984200D910E1C3089A1001216C
:10211800DB00EB18914068680A1C99680243FB6071
:10212800B9606A609F60CF6061468B100121994059
:10213800914255D811420DD1032360469843031CA0
:10214800043349009C46114204D1042349009C44AD
:102158001142FAD0032080466246D3005B199A46A2
:10216800181CE146C768B84207D120E1002B00DB04
:102178002FE1FF68B84200D119E17A6843469A43D3
:10218800131B0F2BF2DD01213A190C437C60F86810
:10219800BC680835E06019438460EA60AA60301CB6
:1021A800D56095605160D35000F050FA381C083063
:1021B8005FE73F227E21944673E7FB68B968CB60EE
:1021C8009960BA18516801230B43301C536000F022
:1021D8003DFA381C08304CE70120404284447CE733
:1021E800AF680323786898438146A04203D3031B52
:1021F8000F2B00DD82E0494679185F4A01915F495B
:10220800106892468A6823188B46013200D142E151
:102218005B481B181B0B1B0300930099301C00F034
:1022280017FA011C804601315DD0019A824200D91B
:10223800E6E05146009849685246431801985360B1
:10224800404500D130E159468968013100D13DE16E
:1022580001994046421A9B1852465360072340464C
:10226800034000D1FFE0C21A08329046454AD31A0B
:10227800009A301C42441205120D9A1A111C9346FA
:1022880000F0E6F9411C00D11CE14246801A58448E
:102298000123184351464B6842465B44AA604B6091
:1022A8005060AF4213D048460F2800D8E6E04A46AF
:1022B800786807210C3A8A4301210140114379606B
:1022C8000520B918486088600F2A00D902E15246F3
:1022D800D26A934201D95046C3625146096B8B4278
:1022E80001D952461363AF6803237A689A43131BD4
:1022F800944200D9A9E00F2B00DCA6E00122211CA2
:1023080011433C1913437960301CAC60636000F0E2
:102318009DF9381C0830ACE6142B69D9542B00D928
:1023280098E0230B6E339C465900BAE6430A042B07
:1023380062D9142B00D9B1E0191C5B314800800028
:10234800401983688146834200D18FE00321884683
:102358005968404681438A4202D29B689945F7D121
:10236800D9686A68F960BB608F60DF60DCE6C046E8
:1023780000000020FF010000600800200004002089
:102388000F1000000810000001203A190443084308
:102398007C606A612A615060D3609360301C515040
:1023A80000F054F9381C083063E66A68BCE601227C
:1023B800914443464A460830134200D0D2E62CE006
:1023C8003B1C7F69023208339446BB4200D186E643
:1023D8003EE6BA185068012303435360FB68BA68A5
:1023E800301CD3609A6000F031F9381C083040E6A0
:1023F8005B339C46590054E68109383148009EE712
:10240800AF4200D06FE714E75346186801225242E2
:10241800083B94448246984276D14346604603423C
:10242800F2D16B688B436B604900994200D9D7E6BB
:10243800002900D1D4E6CC46194200D08CE604220B
:10244800490094441942FAD086E6301C00F0FEF8A0
:1024580000200EE6AA225200934214D8E30B7733E9
:102468009C4659001DE680235B0101E789106868D6
:1024780001228A4002436A60191C73E701235360F2
:102488004746002233E7214A934217D8A30C7C33EE
:102498009C46590005E610330093BEE6542B21D81C
:1024A800010B6E3148004AE7020500D0CBE60098E0
:1024B800AA68484401210143516008E77E23FC21B2
:1024C8009C46EEE5002301209B46E3E642465B4638
:1024D8009A60C3E6391C0831301C00F01BF95146DC
:1024E8004B68F4E6AA2149008B4203D8C10B773127
:1024F800480024E705498B4203D8810C7C31480009
:102508001DE7FC207E211AE76B688DE75405000063
:10251800F0B50F2A35D9031C0B439C0735D1161C7F
:10252800103E36093501451910350C1C031C276867
:102538001F6067685F60A7689F60E7681034DF60A6
:102548001033AB42F3D1731C1B01C518C9180F23F4
:102558001340032B1BD91C1FA4080134A40000231B
:10256800CE58EE500433A342FAD1ED18C91803230C
:102578001A4005D00023CC5CEC5401339342FAD1C5
:10258800F0BD051C002AF5D1FAE7051CF2E71A1C74
:10259800F8E7C046F0B5474680B482B083074FD00D
:1025A800541E002A48D0CEB2031C032503E0621E45
:1025B800002C41D0141C01335A1E16702B42F6D140
:1025C800032C31D9FF250D402A0215432A0415434F
:1025D8000F2C18D9271C103F3F093E01B046102682
:1025E800F618B44646461A1C664415605560956050
:1025F800D5601032B242F8D101373F010F22DB1902
:102608001440032C10D9271F1E1DBF080196BE00B9
:10261800B446019E1A1C664420C2B242FCD101375E
:10262800BF000322DB191440002C05D0C9B21C19C5
:1026380019700133A342FBD102B004BC9046F0BD2F
:10264800031C141CBCE7C0467047C0467047C04610
:1026580038B5074C0023051C081C236003F000F95B
:10266800431C00D038BD2368002BFBD02B60F9E752
:10267800B8080020F8B50F1C041CFFF7E5FF204D33
:10268800204AAB685E6803239E43F71BBF183F0BC5
:102698001D4B013F3F039F4207DD201C0021FFF730
:1026A800D7FFAA689319984204D0201CFFF7CEFFE1
:1026B8000020F8BD7942201CFFF7CAFF01300DD079
:1026C800AB68F61B012216435E60104B201C1A688B
:1026D800D71B1F60FFF7BAFF0120EAE7201C002183
:1026E800FFF7B6FFAB68C21A0F2ADEDD0849096892
:1026F800401A0649086001210A435A60D5E7C046D6
:1027080000000020EF0F0000FF0F00006408002009
:1027180008040020F0B5474680B4051C0C1E55D0AF
:10272800FFF792FF211C083948680127031CBB43A7
:10273800CA185468804603208443201C534CA6685A
:10274800964260D00026B4464646506037420AD1C9
:102758000E68271C891B9B198E680837BE426BD0F0
:10276800CF68F760BE601618766801273E4207D129
:102778001B18604600282CD09068D268C260906010
:102788000122181C104366464860CB50002E1AD10F
:102798003F48834229D95A0A042A50D89E09383614
:1027A800700080002018826882424ED00326546848
:1027B800B443A34202D292689042F8D1D368CB6066
:1027C8008A609960D160281CFFF740FF04BC9046DE
:1027D800F0BD90682F4EB042CFD11F43C1608160D9
:1027E800C86088604F60CB50EDE7DB0898108240E6
:1027F8006068DB0002436260E418A368CC608B6009
:10280800A160D960DFE7C3184046074206D10A68CD
:10281800891A88689B18CA68C260906001221A43A6
:102828004A601D4AA16012689342CCD31B4B281CF6
:102838001968FFF71FFFC6E70126B44693E7142A75
:102848000CD8161C5B367000ABE7B6100123B340FA
:102858001E1C63681E436660131CB0E7542A03D825
:102868001E0B6E3670009CE7AA204000824203D8F7
:10287800DE0B7736700094E70948824203D89E0C35
:102888007C3670008DE7FC207E268AE70000002059
:10289800FF010000080000200C0400206008002050
:1028A8005405000010B50021041C034A0D2301F053
:1028B800CBF8201C10BDC04684600008F8B50F1C7A
:1028C800161C1D1C0749084A1523041C01F0BCF8F6
:1028D800069A201C1388E38153886761A661E56125
:1028E8002382F8BDAE5F2E00D46000081FB5041C1B
:1028F800684600F061FF221C0E3263696946201C9D
:1029080001F0A8F8684600F0A4FD1FBDF0B5071C4B
:1029180089B0042955D1391C061C18314030039060
:102928000491041C039AB18DA31ADBB2B06A059313
:1029380003F0ABF900281FD0207803281ED8FDF734
:102948001DFC0204071201230BE0022323701BE085
:10295800E3780133DBB2E3703C2B0FD10023E37043
:10296800032323700AE0E3780133DBB2E3700F2B13
:1029780004D10023E37007E02070E070049B083660
:1029880001349E42CED11CE03D68002DF6D06B6824
:10299800281C0830019306AA02900AC80AC20698A1
:1029A8000799844663464810CA0704D5019B6146C7
:1029B8001B5800935B58019A0599101898472D6881
:1029C800E3E709B0F0BD0000F0B50023051C08C519
:1029D8008C4B2E1D4360B3B0041C301C029603F0D0
:1029E80075FA0121102003F0BFF9874B80215A683E
:1029F800E023DB001340A561C900844A8B420ED056
:102A080002D8002B0BD00FE0A021C9008B4208D0C0
:102A1800C021C9008B4207D11668B60806E01668BF
:102A280004E01668760801E01668F608606803F0A6
:102A3800D8FA6661E31D0026E5612662A684221C99
:102A4800DE77734B20321A60231C4033DE701E7011
:102A580001331E70DE70802001331E70DE70C003EB
:102A6800012103F065F96B480AAD03271DAB1EA9C8
:102A78001F8028646D64A8644F710E71CE711E9713
:102A880003F0C4F86B6C01221BA9381C30411042BA
:102A980001D0B00019500136102EF6D10A9B01273B
:102AA8005F815B68221C2832190A13705170190C57
:102AB8001B0ED370231C917000272C3301221A702F
:102AC8005F706B6802225A815B68211C3031180ADA
:102AD8000B704870180C1B0ECB70231C8870343395
:102AE80080201A705F700003012103F021F94A4821
:102AF80080221EAED20107AD31AB3064B06476647B
:102B0800291C1A8003236B712F71EF71079203F050
:102B18007DF8736C381C9C4601272FAA8021C901B7
:102B28000141394202D0810063465A5001301028D1
:102B3800F4D1B36B8022D2015A815B68211C3831F1
:102B48001E0A0B704E701E0C1B0ECB70231C8E7051
:102B580000223C3340211A705970304B069205937D
:102B680005AA08ABC0CAC0C3089E099F019603976F
:102B7800FFF73AFA061E0AD1294F3B68002B00D10D
:102B8800FEE798471020FFF72FFA061EF5D0311DF3
:102B98000C2002F057FE039B019A002783604260D5
:102BA80004603760226A606932601E492662FDF758
:102BB800EFFA3123E3600138602320816381606884
:102BC8000299278203F046F9A38C01263343A38494
:102BD8001549164AE31DDB7F1160281C11222A7053
:102BE8006B70AE7003F074F8E369311C1868321C1E
:102BF80003F0DCF96068311C03F071F9201C33B074
:102C0800F0BDC046001000400010024040080020FF
:102C180094080020001400480008004815290008FE
:102C28009808002088130000E95A0008B00800201E
:102C38004369C26900B5934201D20133436100BDC3
:102C48004369826900B5934201D9013B436100BDE4
:102C580010B586B0041C02A801F03CF8030CDBB2E6
:102C68005A1E934100906374216802A800F0A4FDE5
:102C7800B02301AA5B0013803E23FF33201C53803E
:102C880002A96B46143002F0F4FC02A800F0E1FB44
:102C980006B010BD30B54368026884688589C0896C
:102CA800216018601D60156030BD30B5436802684A
:102CB800042580680224016015601C60146030BD22
:102CC80030B50368042485682A601C60426804697A
:102CD8000220282952D31060186010601860106014
:102CE800186010601860106018601060186010603C
:102CF800186010601860106018601060186010602C
:102D0800186010601860106018601060186010601B
:102D1800186010601860106018601060186010600B
:102D280018601060186010601860106018601060FB
:102D380018601060186010601860106018601060EB
:102D480018601060186010601860106018601060DB
:102D580018601060186010601860106018601060CB
:102D680018601060186010601860106018601060BB
:102D780018601060186028392829ACD2294C8900BD
:102D8800641A0134204710601860106018601060E1
:102D9800186010601860106018601060186010608B
:102DA800186010601860106018601060186010607B
:102DB800186010601860106018601060186010606B
:102DC800186010601860106018601060186010605B
:102DD800186010601860106018601060186010604B
:102DE800186010601860106018601060186010603B
:102DF800186010601860106018601060186010602B
:102E0800186010601860106018601060186010601A
:102E1800186010601860106018601060186010600A
:102E2800186030BD2A2E0008F0B50F888B88BAB21A
:102E3800D318013B87B09BB202934B88CE8801928E
:102E48009AB29619013EB6B205964668041C0D1C46
:102E5800301C2A2104920393FFF71CFF39B2091290
:102E6800301C89B2FFF721FF0199FF2631406068C5
:102E7800FFF71BFF029B606819B2091289B2FFF7BE
:102E880014FF029960683140FFF70FFF67682B2134
:102E9800381CFFF7FFFE039A381C11B2091289B2D9
:102EA800FFF703FF049960683140FFF7FEFE059BBA
:102EB800606819B2091289B2FFF7F7FE05996068D0
:102EC8003140FFF7F2FE0622AB5E0422AD5E2068B9
:102ED8005D432C21FFF7DEFE2068228A291CFFF7BC
:102EE800EFFE07B0F0BD0000F0B5041C87B0216804
:102EF80002A800F061FC23686A465E68BB235B0099
:102F080013803223FF3353801A239380D380134BCB
:102F1800134D33820524301C6946FFF785FF2B6863
:102F28002F1CF533FF333A689A42FCD3BA22A923FF
:102F3800DB0002A86946D20100F0A4FC2B68F53337
:102F4800FF333A689A42FCD3013CE4B2002CE2D148
:102F580002A800F07EFA07B0F0BDC0460F8CFFFF54
:102F6800B4080020F0B5837B28225343244A85B057
:102F7800D31800224468914206D0027C002A02D06D
:102F8800FF22120200E01F4AFC21090211404909F0
:102F9800D20C0A4322829A885E88DF880A321B880C
:102FA80092B20192053B6A461381053E019BB6B277
:102FB8000125201C02A956819381D581FFF734FF92
:102FC8006A4653890A37BFB2FB18013B201C02A985
:102FD8005381FFF729FF6B46201C02A9DF815E8120
:102FE8009D81FFF721FF6A461389019A201CD31897
:102FF800013B6A4602A91381FFF716FF05B0F0BD31
:103008002461000800A5FF0038B5017C041C0029D4
:1030180016D0837B052B06D0062B07D0042B2AD18C
:10302800051C283504E0051C483501E0051C6835F9
:10303800281CFFF705FE2168281CFFF757FC1AE03B
:10304800FFF790FFA07B062811D8FDF797F8040634
:1030580008100A0C0E00062308E0022306E00023ED
:1030680004E0012302E0042300E00523A373201CED
:103078000121FFF777FF38BD38B5017C041C002912
:1030880016D0837B052B06D0062B07D0042B2AD11C
:10309800051C283504E0051C483501E0051C683589
:1030A800281CFFF7C5FD2168281CFFF71FFC1AE044
:1030B800FFF758FFA07B062811D8FDF75FF8040634
:1030C80008100A0C0E00022308E0042306E001237E
:1030D80004E0052302E0062300E00023A373201C7C
:1030E8000121FFF73FFF38BDF0B585B0071C0CA8DC
:1030F80000781D4D019028204243AC186088525B2F
:10310800A48807301219213A6C46228160816A46E8
:103118001A249481D481081C1A1C02A90A9B0B9EAC
:1031280000F0B0FBFC22120232403302DB0E5209DF
:103138001A43F8231E403302161C1E43019B282203
:103148005A43AB185988525B9B8878680731D31863
:103158006A460682213B518102A913819481D48158
:10316800FFF762FE05B0F0BD246100081FB5A92273
:10317800C37BD2000092002B06D0084B002201939B
:1031880001230293BC2304E0054A02930192CC2355
:1031980001221B02FFF7A8FF05B000BD99CD000072
:1031A800D2C3000030B5057C85B0041C002D03D0C7
:1031B8000025057401210BE0807B062823D8FCF745
:1031C800DDFF0A0A1A220404040001212174201CCC
:1031D800FFF7C8FE17E02168684600F0EDFAA37B08
:1031E800201C5A425341E3736946FFF7BFFF684604
:1031F80000F02FF907E0637C002B03D0201CFFF7B9
:1032080073FE00E00125281C05B030BD38B50D1C43
:10321800041C111CFFF7A6FE291C201CFFF7A6FFA3
:1032280038BD000010B5041C86B0216802A800F063
:10323800C3FA201C00F0C6FF6A461423138053808B
:103248005B2393801823D380D22202A86946D20137
:103258001C4B00F017FB0723201C02A91A4A01F097
:1032680030F90122201C02A9FFF7D0FF201C216899
:103278002830FFF73BFB201C21684830FFF736FB5E
:10328800201C21686830FFF731FB2368B9219C684E
:103298006068FFF7FFFC60680121FFF706FD6068C2
:1032A800F221FFF702FD60680321FFF7FEFC60686A
:1032B8001921FFF7FAFC5F23238002A800F0C9F860
:1032C80006B010BD1011000024610008F8B5051CF7
:1032D800081C0C1CFFF7A6FF194F3E683A68FA2332
:1032E800921B9B009A4203D9201CFFF7B1FC3E6851
:1032F800E368DBB2002BF1D0E3681B041B0E012B43
:1033080008D0002B02D0022B08D00CE0201CFFF7BD
:103318007BFE08E0201CFFF7AFFE04E0201CFFF74F
:1033280041FF002802D100232373D7E7E36FE26D42
:10333800AB60E37BE46B281C6A602C602B73F8BDE0
:10334800B408002008B5702102F07EFD00239842E1
:1033580006D0044B16229A60034A58601A6001236B
:10336800181C08BDA40800200100160008B5031C9D
:103378001989406802F08FFC08BD70B5041C0D1C4B
:103388008E18B54222D02068022102F05DFD002887
:1033980006D12068FFF7D6FF0028F4D0002016E0F9
:1033A8002068002102F03CFD2068012102F04CFD5C
:1033B800002805D12068FFF7C5FF0028F4D0EDE705
:1033C800206802F031FD28700135DAE7012070BD70
:1033D800F7B58A18041C1E1C0D1C0192019B9D4206
:1033E8002CD02068022102F02FFD002806D1206889
:1033F800FFF7A8FF0028F4D0002020E029782068F3
:1034080002F00EFDA389002B16D12068012102F0DD
:103418001BFD002805D12068FFF794FF0028F4D091
:10342800EAE72068002E05D002F0FEFC771C307019
:103438003E1C01E002F0F8FC0135CFE70120FEBD9B
:1034480010B5041C01604868098902F026FC201C9C
:1034580010BD38B5041C406802F0FAF9A06802F003
:10346800F7F92568002D0BD02868002102F0C2FC6E
:1034780080204001002102F069FC281C02F0E8F9D4
:10348800201C38BD73B503236A46051C13700F232F
:1034980053700024F0230E1C01A829689370D4707F
:1034A800FFF7CEFF231C286869460422FFF790FF28
:1034B800041E06D080222868311C5200FFF75DFFE9
:1034C800041C0198FFF752FF201C76BD73B5052335
:1034D800051C6C46E3700E1C0334296801A8FFF72D
:1034E800AFFF211C286801220023FFF771FF041E8B
:1034F80005D02868311C0122FFF73FFF041C019802
:10350800FFF734FF201C76BD37B5051C6C46073421
:10351800281C211CFFF7DAFF002802D02378DA07DD
:10352800F4D43EBD37B50623051C6C46E370296804
:10353800033401A8FFF784FF211C28680122002317
:10354800FFF746FF041C0198FFF710FF201C3EBD43
:1035580073B5202301AD2B700F2300266B70F02369
:10356800041CAB70EE70FFF7DDFFB04201D1002004
:1035780013E023685868198902F08FFB291C20681A
:103588000422331CFFF724FF051C2068FFF7EEFE1A
:10359800002DECD0201CFFF7B7FF76BD73B50223D2
:1035A8006A4613700F2300255370F023041C0E1C69
:1035B8009370D570FFF7B6FFA8421FD0216801A805
:1035C800FFF73EFF2068694604222B1CFFF700FF27
:1035D800A8420FD080222068311C52002B1CFFF714
:1035E800F7FEA84206D00198FFF7C0FE201CFFF79F
:1035F8008BFF03E00198FFF7B9FE002076BDF0B518
:10360800032285B0012400250226071C9020131CE4
:10361800C005202100960194029502F01BFA0322AE
:103628009020131CC005802100960194029502F099
:1036380011FA03229020131CC00540210096019422
:10364800029502F007FA82239020A3400095019486
:10365800C00508212A1C9F4200D0221C032302F027
:103668009BF905B0F0BD0000F0B589B001901420B9
:1036780002F0E4F89023DB054360414B0026036029
:103688000823041C836086818227802001217F0013
:10369800400103AD02F05AFB381CFFF7B0FF281CAD
:1036A80002F070FBE0236F80DB008027291CAB80D1
:1036B800BF00072320682B822E80EE802E816F8129
:1036C800AE81EE8102F06CFB201CFFF74FFE2068F4
:1036D800012102F08FFB802120684901246102F05A
:1036E80095FB019B40201C6002F0A8F8254B802523
:1036F80003602023436040238360234B041CC56080
:103708002061436180239B0101210A1C8363C662F7
:103718000663C661466285624663C663184802F05E
:1037280089FB0120011C02F003FB019B40205C6027
:1037380002F084F8154B041C0360EB0083602B0136
:10374800C360114B4760206143611023C36180232C
:103758009B018363C6620663466285624663C663ED
:1037680001220748022102F065FB0120011C02F03A
:10377800DFFA019B181C9C60A66209B0F0BDC04628
:10378800003001401C0002400C3001403000024073
:1037980008B5702102F058FB0023984206D0044B6C
:1037A80016229A60034A58601A600123181C08BD43
:1037B800A40800200100160038B5041C0D1CFFF7F2
:1037C80053FFE560201C38BD70B5061C0D1C141C89
:1037D800002C06D02988301CFFF767FA013C023517
:1037E800F6E770BDF0B50F888B88BDB2EB18013BCA
:1037F80085B09BB200934B88CE8801939BB29E19EB
:10380800013EB6B203960668041C2A21301C0293B6
:10381800FFF740FA39B20912301C89B2FFF745FAAE
:10382800FF26291C31402068FFF73FFA009B2068DB
:1038380019B2091289B2FFF738FA009920683140A5
:10384800FFF733FA25682B21281CFFF723FA019B81
:10385800281C19B2091289B2FFF727FA02992068C1
:103868003140FFF722FA039B206819B2091289B286
:10387800FFF71BFA039920683140FFF716FA05B0E5
:10388800F0BD0000F0B587B00193C368051C5E6801
:103898001B68301D141C0393FFF7A4FFF0682C214C
:1038A800FFF7F8F905AE03232A683370230C737009
:1038B800230AB37053681189181CF470029200939C
:1038C80002F0EBF92C6800272068022102F0BCFA0C
:1038D80000280DD12068FFF75BFF0028F4D0802076
:1038E800C00001F0B1FF00226B46041CDA743DE011
:1038F800F15D206802F094FAA389002B0ED12068AC
:10390800012102F0A1FA002805D12068FFF740FF45
:103918000028F4D0E3E7206802F086FA0137042F84
:10392800D2D1DCE76E68B06802F060F90028F9D0FF
:10393800B06802F065F980220398211C5200FFF755
:1039480043FF6E68706802F051F90028F9D070687A
:1039580002F056F980229200A118802252000398A2
:10396800FFF732FF019B364A9B180193354B019AAA
:103978009A422AD96E6880223369D2001F6832625F
:10398800B461381C002102F023F9311C381C1431B1
:1039980002F000F9381C012102F01AF9AE686B46F2
:1039A8001333B3618023DB003362336900211F685E
:1039B800381C02F00DF9311C381C143102F0EAF8F9
:1039C800381C012102F004F9ACE7002A2CD02D683C
:1039D800261C1719BE420BD1019B03985A08211CBB
:1039E800FFF7F2FE20E02868FFF7D2FE0028F3D1A7
:1039F8002868022102F028FA0028F4D0286800215B
:103A080002F00EFA2868012102F01EFA002805D1FA
:103A18002868FFF7BDFE0028F4D0DDE7286802F02B
:103A280003FA30700136D5E7002C02D0201C01F0D3
:103A380013FF029A5068118902F02DF907B0F0BD02
:103A480000FEFFFFFF03000010B5041C00F0E4F9BE
:103A5800201C10BD7FB5061C0D1C141C01A9181CC8
:103A680002F018F8301C291C221C01AB00F052FA95
:103A780004B070BD044B036006230371F023C380B8
:103A880087235B00038170473C620008044B036096
:103A980006230371D223C38087235B000381704709
:103AA80054620008F0B5802097B0800201211D4EB5
:103AB80002F03EF915AB90206A4602ACC0051E80A4
:103AC8000025032301276946537117719571D57134
:103AD80020646464A064009602F098F8636C13AAEA
:103AE800311C2941394201D0A9005A500135102D05
:103AF800F6D1E368082159815868012202F0CFF80D
:103B08002369291C5D815868012202F0C8F8E36A1C
:103B18008021090159815868002202F0C0F817B0C5
:103B2800F0BDC04618080000F0B5A1B0FFF7BAFF15
:103B38000EA8FEF749FF07A800F0CAFD012001F012
:103B48007DFE07A9041C01F04FFD201C01F080FE3A
:103B58000AAC201C01F0FAFC002804D10123A36060
:103B680063600A932373882001F068FE07A90EAAF0
:103B7800041C0AAE00F07CFA0223A373337B06AD63
:103B8800E37300271623277467742B8002235B4294
:103B9800201C6B802F4900952F4A1023143001F008
:103BA8005BFDFA20400028805523201C6B800A9971
:103BB80000953A1C294B2830FEF780FEFA2149006F
:103BC800B62329806B80201C009571683A1C234B12
:103BD8004830FEF773FEFA228C2352005B002A80DD
:103BE8006B80201C00953A1C1C4BB16802AD6830F4
:103BF800FEF764FE211C281CFFF768FB331C07CD69
:103C080007C32D68201C1D6000F06CFA201C01F011
:103C18001FFE301C01F07CFC482001F00FFE07A9B4
:103C2800041C0EAA331C01F015F8201C01F02CFC12
:103C3800BC428DD0A569BD4205D0281C00F0D2FE3B
:103C4800281C01F005FE606901F002FE201C00F04E
:103C580049FA7AE78C827A00C4630008E703000017
:103C680007B501F069FF01A8FFF75EFFF0B5032271
:103C780085B0012400250226071C9020131CC005CE
:103C8800202100960194029501F0E4FE0322902081
:103C9800131CC005802100960194029501F0DAFEFC
:103CA80003229020131CC005402100960194029520
:103CB80001F0D0FE82239020A34000950194C00516
:103CC80010212A1C9F4200D0221C032301F064FE0D
:103CD80005B0F0BDF0B590218DB000254B4E07AC76
:103CE800C9058020822710220891400101217F0008
:103CF800A5810992079602F029F8381CFFF7B6FF4C
:103D080002A802F03FF86B461D815F81F0236946E7
:103D18001B018B8180239B004B8218238B820723F6
:103D28000B83CD810D82CD82301C02A902F038F8B8
:103D38009020C005102101F0AEFF301C012102F0D7
:103D480059F88021301C4901246102F05FF8902065
:103D5800C005102101F0A1FF2C48022102F074F8DF
:103D6800041C2A48002C05D1702102F06DF80028A7
:103D780010D1F1E7002102F055F82448012102F0A2
:103D880063F8041C2148002C0BD1702102F05CF868
:103D98000028F2D01E4B16229A601E4A58601A60FC
:103DA80003E002F044F8012401909020C00510219E
:103DB80001F071FF002C03D0019B02221A4004D0AD
:103DC800002369460B8102230EE0019904230B406E
:103DD80004D06B461A816946012305E001994A041B
:103DE800920D053A69460A818B720798002102F004
:103DF80001F880204001002101F0A8FF6A4650899F
:103E08001389000418430DB0F0BDC04600300140CE
:103E1800A4080020010016000371002301608260DD
:103E280083817047F0B589B00091009F0988BE88EA
:103E38008DB2AE190195013E7D88B6B20496AEB238
:103E48000696FE88069F041CBE194068013EB6B25D
:103E58000291059507968189C28943680568866835
:103E68002A2737601A6019602960029AFF2611B262
:103E7800091289B2FEF719FF019960683140FEF70F
:103E880014FF049D606829B2091289B2FEF70DFF7C
:103E9800291C31406068FEF708FF60682B2186897D
:103EA800C28947680368856829603A603E601E6079
:103EB800059E31B2091289B2FEF7F7FE0699FF2670
:103EC80031406068FEF7F1FE079F606839B2091259
:103ED80089B2FEF7EAFE391C31406068FEF7E5FE5C
:103EE80020688189C2898C4643682C2105688668C8
:103EF800674631601A601F602F60009D009E062390
:103F0800EB5E0421715E628A5943FEF7D9FE09B05F
:103F1800F0BD0000F7B51D1C1388041C68461FB2CD
:103F2800038053880E1C43802379C3802A78002A93
:103F38001BD0101CA16830380B1CC0B250330928A4
:103F480003D81A481318DB00CB189A7969468A8077
:103F5800301C1A689B88FFF795FC6B469A881B886B
:103F68006846D31803800135E0E769460023CB5E35
:103F7800DF1BA3899F4215DAF268DB1B50686A468B
:103F88009380FC212368090219401A02D20E4909BC
:103F98001143F82213401A020B1C1343438269464B
:103FA800FFF740FFB8B2A081FEBDC046D0FFFF1F9B
:103FB800C36800B5DBB2002B02D101230373417340
:103FC80000BDF7B5141C968AD58AD2886088520835
:103FD80012186808121AA08827884008C01977089C
:103FE800C01B6F467A803880BE80FD801A1E00D1C3
:103FF8002269081CA3696946FFF744FCF7BD0368FA
:1040080070B50126002B1FD05A680C68A2421DD13A
:104018009D684A68954219D1DA688C68A24208D02E
:10402800002D13D12243324210D102E0002A04D0DD
:10403800101C02689A42F9D1021C106803681360C8
:10404800FDF7DCFF012003E0181C01E01B68D9E73D
:1040580070BD30B585B0002402920393446084603B
:1040680002AA031D30CA30C3016005B030BD00008C
:10407800F0B50160496889B0051C00234160161C31
:10408800AA60291C0373154A05A8FFF7E2FF102050
:10409800FDF7AAFF041E0AD1114F3B68002B00D17F
:1040A800FEE798471020FDF79FFF041EF5D0211D5D
:1040B8000C2001F0C7FB002106AB01604160816064
:1040C800021D019382CB82C2059A002302602360FD
:1040D8003768281C2760346009B0F0BDB93F000874
:1040E8009808002030B5041C87B08568211C064A52
:1040F800002303A8FFF7ADFF281C03A9FFF77FFFE4
:10410800201C07B030BDC046B93F000838B5151CA3
:10411800041CFEF7BFFD291C201CFEF7C6FD38BD98
:10412800F7B5009308AB161C0F1C0022995E3A12D3
:10413800041C92B2019100682A21FFF7E7FFFF25CE
:10414800391C29402068FEF7B0FD009B2068191231
:1041580089B2FEF7AAFD009920682940FEF7A5FD5F
:10416800321292B220682B21FFF7D0FF311C294070
:104178002068FEF79AFD019A2068111289B2FEF7AD
:1041880094FD019920682940FEF78FFDF7BD0000D6
:1041980013B5036800225C686823FF336282111C30
:1041A800201D0093064BFFF7BBFF20682C21FEF76C
:1041B80071FDE1212068628A8902FEF781FD13BD45
:1041C8007F02000038B50368B9219C68051C606847
:1041D800FEF760FD60680121FEF767FD6068002159
:1041E800FEF763FD60680321FEF75FFD1921606833
:1041F800FEF75BFD00232380054BFA211A6889002E
:10420800521819689142FCD3281CFFF7C1FF38BD2A
:10421800B4080020F0B50F881588041C2BB238B2FA
:104228008FB09C46984214D14B8850881EB205B274
:104238000231AE4200DB911CC31A1BB20A88DE179A
:104248000CA99B194A80734001220F808A809B1811
:1042580016E04E880396039B56889E4215D10E1C85
:10426800604500DB161CED1B2DB2EF17ED193388E6
:104278007D40039E0CA901350B804E808D80012363
:10428800CB80201CFEF7D0FDADE0604505DC331C7B
:10429800039E03932B1C3D1C1F1C03997B1B9BB285
:1042A80009B232B298B207938B1A0A90D8171B1822
:1042B800069143408A4202DA0121099101E04B4804
:1042C80009909BB20893079908985B429BB20B939D
:1042D8000B1A9BB205936823FF33201D29B2009364
:1042E800434BFFF71DFFE0682C21FEF7D3FC218A22
:1042F8002068FEF7DAFC39B20491049F2BB2BB4266
:1043080066D0059F0023BAB20B9F510009B238B29C
:10431800814206DD089F0135D21B92B20592ADB2EB
:104328000123049F2AB2BA420CD1069F30B2B84288
:1043380008D1002B51D0236802215A681B681160EC
:10434800196050E00A9F38B2814238DA079F059811
:104358003918099F89B2F619B7B20591BEB2002B78
:1043680011D0121292B260682A21FFF7CFFEE9B28B
:104378006068FEF79AFC60680221FEF796FC6068A8
:104388007F21FEF792FC32B2121292B260682B21A2
:10439800FFF7BCFEF9B26068FEF787FC6068012190
:1043A800FEF783FC60686721FEF77FFCE0682C213C
:1043B800FEF770FC218A2068FEF777FC9DE7002B4A
:1043C8009BD0236802215A681B681160196094E722
:1043D800069F33B2BB4294D105E00A9F38B28142AE
:1043E800B4DB039E89E70FB0F0BDC046FFFF0000B5
:1043F8007F020000F0B5036887B0141C5E68019165
:104408009368FC21F8220902120419401A40D20CC0
:1044180049091143F82213401A020B1C1343338233
:104428002288638869460A814B81A18804AD5218A5
:10443800013A071C2A80301C02A92A1C6B80FFF74E
:10444800E9FEA28861882088E388944601316A469B
:1044580010815181013B624669468A81CB81F822ED
:10446800E368FC210902120419401A40D20C4909D8
:104478001143F82213401A020B1C13433382301CD9
:1044880002A9FEF7D1FC381C0199221C0023FFF772
:1044980098FD6088E18826884118A088228C638C62
:1044A800301807390738C91A801A28806980AA8005
:1044B800EB80E269A38C0198291CFFF7E3F907B0A8
:1044C800F0BDF8B5061C0F1C151C1C1C002C08D0D0
:1044D8002A1C301C391C013CFFF78CFFE4B228353C
:1044E800F4E7F8BD034B00B51A6880181A688242D1
:1044F800FCD300BDB408002070B5041CC068151CAE
:10450800FEF7C8FB02262A68E0681178FEF7CDFBA3
:104518002B68E0685978FEF7C8FB2B68E068D97803
:104528009B7809011943FEF7C0FB2B68E0685979AD
:104538001B7909011943FEF7B8FB2A68E0689179ED
:10454800FEF7B3FB2B68E068197ADB790901194398
:10455800FEF7ABFB2B68E068997A5B7A090119438F
:10456800FEF7A3FB2B68E068D97AFEF79EFB2A6862
:10457800013E117BE068F6B2FEF797FB002EC2D130
:1045880070BD10B5C021041CFEF784FB201C082157
:10459800FEF78BFB201C9F21FEF787FB201C0021C8
:1045A800FEF783FB201C0021FEF77FFB201C022165
:1045B800FEF77BFB201C0021FEF777FB201C012166
:1045C800FEF773FB201CD021FEF764FB201C0021A2
:1045D800FEF76BFB201C5521FEF767FB201CC02152
:1045E800FEF763FB201C8F21FEF75FFB10BD000068
:1045F80037B5041C0A20FFF775FF90200121C0057C
:1046080001F049FB0520FFF76DFF90200121C0054F
:1046180001F043FB3220FFF765FF90200121C00520
:1046280001F039FB3220FFF75DFFE068B021FEF7AB
:1046380031FBE0680421FEF738FB237A002B13D006
:10464800E068B921FEF726FBE0680121FEF72DFBA3
:10465800E0680021FEF729FBE0680321FEF725FB4F
:10466800E0681821FEF721FB1121E068FEF712FB34
:104678007820FFF737FFE068FFF783FFE068132132
:10468800FEF708FB251C60683621E022FFF73EFD97
:1046980001CD3A210522FFF739FD68230021FF33B8
:1046A800281C0A1C0093094BFFF73AFD20682C21AF
:1046B800FEF7F0FAE121206800228902FEF700FBEC
:1046C800E0682921FEF7E6FA37BDC0467F02000000
:1046D800F0B5041C8BB0142001F0B0F80423C3819A
:1046E80002238381374B00254360374B0127036042
:1046F800364B061C8360364936482A1C032300952E
:10470800019701F049F990202A1C0323C0050721CD
:104718000095019701F040F990200221C00501F0B1
:10472800BAFA2660202001F089F82368061C036085
:104738004360C36007720777FFF75AFF66600D266C
:10474800321C254906A8FDF7E3FE301C01F07CF871
:10475800321C06A904960390FDF7DAFE6668C821A4
:10476800301C03AAFFF7C8FE301CC92103AAFFF7B3
:10477800C3FE301CCA2103AAFFF7BEFE082001F0C1
:104788005DF82368666843606823FF3305802A1C48
:10479800A060291C7582301D0093104BFFF7C0FCE8
:1047A80030682C21FEF776FAE1213068728A890296
:1047B800FEF786FA0398A84201D001F04DF8201CB4
:1047C8000BB0F0BD28000048180000481404004849
:1047D800FFFF000000040048F65F00087F020000A9
:1047E80010B502604360029B039C8360C460049B15
:1047F800059C03614461054B034A8261C3610262FF
:10480800436210BDC046C046000000000000000022
:10481800F0B58BB0061C191C101C109A119BFCF7E4
:10482800E9FF326A736A041C0D1CFBF7C1FD32688C
:1048380073680090019130627162201C291CFCF79A
:104848004BFDB268F3680290039100980199FCF758
:1048580043FD021C0B1C02980399FBF7A9FDB269E2
:10486800F36900900191201C291CFCF7C3FF3269F1
:104878007369FCF731FD021C0B1C00980199FBF7CA
:1048880097FD124B104A0490059106920793FBF787
:1048980059FD06AF002800D104AF0D4A0D4B38680A
:1048A800796808920993FBF74DFD002800D108AFFD
:1048B80038687968B461F561FBF75AFDC0B20BB08E
:1048C800F0BDC046C046C046000000000000594088
:1048D8000000000000000000F0B589B003AC051C22
:1048E800201C161C0F1C019301F048FB019B26801D
:1048F800A38101262B686680A7601868211C01F037
:104908000BFB2B680021186801F044FB2B68311C55
:10491800186801F0F1FA09B0F0BD10B5036801712B
:1049280018891C68013048436421FBF731FC81B2C7
:10493800201C01F02DFB10BDF0B5204D1E4C031CB2
:104948006033002785B0061C1F809F702430FFF756
:10495800C1F9039080B2FDF7F5FAB466F5663067E1
:104968007167B36A1B6858880193FDF7ADFA221C7A
:104978002B1CFCF73FFF019B041C18880D1CFDF73E
:10498800A3FA021C0B1C201C291CFCF735F8331C4D
:104998005933B067F1671F70094B301C1B68391C0D
:1049A800F3651830FFF7B9FF3068012101F097FA75
:1049B80005B0F0BDC046C046000000000000394008
:1049C800B4080020C046C04610B50021041C1830A9
:1049D800FFF7A3FF2068002101F081FA5934002372
:1049E800237010BD10B5041CFFF7EEFF80200001F6
:1049F800002101F0ABF9201C10BD0000F0B5424BBE
:104A0800C26D1968061C891AFA2289B00020920022
:104A1800914200D876E01B68B46AF3652368321CBB
:104A28006032351C0593138862352F7804920393FE
:104A380083420DD1B26EF36E306F716FFBF76EFC6F
:104A4800431E9841404201231840331C58331870C4
:104A5800331C58331B78002B32D1059ABB009B5A64
:104A6800039A934220D10137FFB22F702379BB42BA
:104A780001D1022046E02368BF00DF197888FDF7DE
:104A880023FAB26EF36EFCF7B5FE039B041C38885C
:104A98000D1CC01AFDF718FA021C0B1C201C291C3F
:104AA800FBF7AAFFB067F167B06EF16E039B049C39
:104AB80001332380B26FF36FFBF77AFCB066F166BF
:104AC800301C2430FFF706F9030CDBB20790002BEB
:104AD800CFD107AB1888FDF735FA0B1C021C301C28
:104AE8003267736700920193B26EF36E3030FFF74E
:104AF8008FFE331C5933011C1870301C1830FFF717
:104B08000CFF012009B0F0BDB408002030B5214BDE
:104B1800041C85B008C001F0D9F9802001210001EA
:104B280001F014F91C4B80215A68E023DB00134084
:104B38006461C900194A8B420ED002D8002B0BD0F1
:104B48000FE0A021C9008B4208D0C021C9008B42C8
:104B580007D11568AD0806E0156804E015686D080A
:104B680001E01568ED08206801F03BFA0023009386
:104B780001230193032202239020802102932561BF
:104B8800A4612462C0050901131C00F063FF201C06
:104B980005B030BD002C0140001002404008002044
:104BA800F0B5061C87B0171C0C1CFFF7AFFF331CB1
:104BB80030333868B4620593FDF7C4F9041C78688B
:104BC8000D1CFDF7BFF900900191B868FDF7BAF91F
:104BD800221C029003912B1C0598FFF701FE331C41
:104BE800002458335C701C7030691149FBF7D0FA07
:104BF800104F311C351C01381835B080B76001C919
:104C0800B481F48001F026F9281C391C30220223D3
:104C1800FFF762FE281C211C6022231CFFF75CFEA4
:104C2800281C211CFFF779FE301C07B0F0BDC046D8
:104C38001027000087130000FC2212020240030222
:104C4800DB0E52091A43F82318400302101C1843BC
:104C580008807047F0B587B0041C0393FFF708FA83
:104C6800039A012305AD00260F27A373201C0A23EE
:104C78002B8022616F802149214A3B1CE6736661C3
:104C8800A6611C30009500F0E7FC201C2E806E8089
:104C98001C4A3B1C30300095184900F0DDFC039A93
:104CA8000C20137BB34205D000F0C8FD051CFEF7AD
:104CB800EDFE04E000F0C2FD051CFEF7DBFE6069B6
:104CC800854202D000F0C4FD65618020656900F06E
:104CD800B5FD291C039A061CFFF762FFA569AE42C1
:104CE80008D0002D05D0281CFFF77CFE281C00F0FA
:104CF800AFFDA661201C07B0F0BDC0469E489F00CE
:104D08000C6300086C63000830B5041C85B021688A
:104D18006846FEF751FD144D201C2A1C69462832AE
:104D2800124BFFF74EF92A1C201C69465032104BD3
:104D3800FFF747F92A1C9323201C694678321B0287
:104D4800FFF73FF90B4BA21D19885B88D187023208
:104D5800D387A069FFF7F0FD0123E3736846FEF7E8
:104D680078FB05B030BDC0466C62000800F2070051
:104D7800004B0800A00800201FB5041C21686846E5
:104D8800FEF71AFDA1690B1C60331B88002B12D09B
:104D980058310B780A4A002B06D000230B702832B2
:104DA800201C6946074B04E0012008702832201CAB
:104DB8006946FFF706F96846FEF74BFB1FBDC0467C
:104DC8006C62000800F2070007B5084B6A461380BA
:104DD800122353800D2393801923D380081C044A7F
:104DE8006946044BFEF74EFD07BDC0464A02000067
:104DF800005708008A020000F7B503686A465C6835
:104E080033230A2613800F2356809380D380FC22F5
:104E1800B423081CD20169465B00FEF733FD0F4B33
:104E28002D2723826B461F804A236A46FF3353800F
:104E3800F52302255B00201C6946D5809380FDF789
:104E4800F3FFA0236A465B00201C69461780568042
:104E58009580D380FDF7E8FFF7BDC04696B5FFFF04
:104E680073B50B886A4613804B880C1C53808B885B
:104E780001266946051CD6809380FDF7D5FF6B4651
:104E88005A88E388281CD318013B6A466946538030
:104E9800FDF7CAFFE3886A46D3806388281C694601
:104EA80096805380FDF7C0FF6B461A88A388281C9C
:104EB800D318013B6A4669461380FDF7B5FF73BDF9
:104EC80037B5837B28245C430E4B051C1C194368AB
:104ED8000020814200D00C48191C1031FFF7ACFEAD
:104EE8006188A288E3882488686805396D466980E6
:104EF8000A320A33053C69462C80AA80EB80FFF70A
:104F0800AFFF37BD6C62000800A5FF0010B5002197
:104F1800041CFFF7D5FFA37B022B0CD0032B07D073
:104F2800012B0AD1E37B5A1E93410322D31A03E0D3
:104F3800E37B002B01D10123A373201C0121FFF780
:104F4800BFFF10BD30B5041C87B0216802A8FEF76A
:104F580033FCA069FFF738FD1B4DFF232A1C201CDA
:104F680002A92832DB02FFF72CF82A1C201C02A910
:104F780050320023FFF725F82A1C7832201C02A99A
:104F88000023FFF71EF8201C0021FFF799FF0323D9
:104F9800A373201C0121FFF793FF059B6A465868FD
:104FA8000A4B694643820A4B13806F235380372389
:104FB80093800A23D380FEF735FF0223E37302A808
:104FC800FEF747FA07B030BD6C620008539AFFFF3E
:104FD8003502000010B5837B022B0FD0032B02D0C3
:104FE800012B0DD101E001200BE0C47B002C02D184
:104FF800FFF78AFE04E0FFF7BFFE01E0FFF7A2FF1C
:10500800002010BDF0B5C37B91B0051C012B09D160
:10501800826901AC106F516FFBF7AAF90023208059
:10502800A37003E008A8FEF755FE0190296804A8BC
:10503800FEF7C2FB08AC3823244F01AE281C63805E
:105048001C30331C04A9221C278000F012FBEB7BC8
:10505800012B12D1AB69986ED96EFBF789F9002341
:105068003080B370281C52236380303004A9221C7E
:10507800331C278000F0FDFA22E0B378002B1FD103
:105088002B68221C5B68191C61C961C20968201C55
:1050980011605A8A996962829A8AA282DA8AA1611F
:1050A800E2821B7F02A92377094B2382094B0B80DD
:1050B8004C234B803E238B801623CB80FDF7B4FE18
:1050C80004A8FEF7C6F911B0F0BDC0463A020000C8
:1050D800539AFFFF35020000036837B55C68204B20
:1050E8006A4663821F4B051C23821F4B201C1380BA
:1050F8006F2353803723938069460A23D380FFF7B1
:10510800AFFE6A461388201C013313805388694612
:10511800013353809388023B9380D388023BD3802A
:10512800FEF780FEAB69352059331D78642168434A
:10513800FBF77CF86B4698802802401B6421FBF73C
:1051480075F8FF231B1AFF201B02211C00041843BB
:105158001031FFF771FD201C6946FDF765FE37BD6C
:10516800539AFFFF15ABFFFF3502000013B54B88BC
:105178000A886946041C4B80043001230A808B800E
:10518800CB80FEF72FFBE0682C21FDF783FD20681C
:10519800218AFDF78AFD13BDF0B585B01D1C161CCC
:1051A8000C1C0A981031FFF747FD311C2A1C201CE3
:1051B800FFF730F831882B88768868461FB201815E
:1051C800468168880DB27D1BEF17ED197D4000956B
:1051D80037B205B2ED1BEF17ED197D40AC46009DC7
:1051E80003AA13805080654505DD01366F460130FE
:1051F8007E81508004E001316846013301811380CB
:10520800201C02A9FFF706F805B0F0BDF0B5036849
:105218008FB0061C0AA805915F68FDF743FB726909
:10522800FA202D2307ACD18840012380FAF7B0FF7C
:105238004A23FF33181A0022608003927569039A83
:105248002B7993426ED9039A298993002A6808AC6E
:10525800D31804931B881801C01A8000C018C00016
:10526800C018FAF795FF049A2D30538820809800CB
:10527800C318E9889801FAF78BFF4A23FF33181AF5
:10528800294B6080391C0093301C231C07AAFFF7A8
:1052980083FF238809AD2B8063886B80234B3B8277
:1052A8000022AB5E2D2B07DD381C291CFFF75EFFA3
:1052B8002B88023B2B80F3E723882B8063886B8045
:1052C8001A4B3B8209AD0223EA5EA4235B009A4293
:1052D80007DC381C291CFFF749FF6B8802336B80F9
:1052E800F0E70A23049A2B80638805996B800AA843
:1052F80053882A1CFEF7AEFB2388049A2B80A72329
:105308005B006B800AA8138805992A1CFEF7A2FB8C
:10531800228807AB1A8062885A80039B0133DBB26C
:1053280003938BE70FB0F0BD99CD00002C6300000C
:105338001FB5041C21686846FEF73EFA201CFEF7DC
:1053480041FF194A0423201C6946FFF7BAF8201CBC
:105358006946FFF739FD201C0121FFF7B1FD201C2C
:105368006946FFF753FF201C6946FFF745FD236890
:10537800B9219C686068FDF78DFC60680121FDF724
:1053880094FC6068F221FDF790FC60680321FDF74A
:105398008CFC60681921FDF788FC5F232380684630
:1053A800FEF757F81FBDC0466C62000800000000F9
:1053B800F0B58369041C40691A1C6032C58889B03D
:1053C80012880490281C1E6F5F6F0592FCF77CFD05
:1053D80002900391029A039B301C391CFAF7B2FF22
:1053E800002804D0281CFCF7ADFD061C0F1C049BEC
:1053F8000599F520400048431989FAF7C9FE1D4B65
:105408001B4A07AD2D30391C2880301CFBF764FF80
:10541800029A039BFBF7F0FA021C0B1C164817496B
:10542800FCF7E8F9FCF71CFD154BA61D68803E2724
:10543800F15F0027D85F221C271C443208378842B6
:105448000BD10220195E3E203B5E994205D12B8884
:10545800F3876B88FB8709B0F0BD2368201C596867
:10546800FF231B0400932B1CFFF796FEEFE7C046B3
:1054780000000000000074400000000000A074401C
:10548800A0080020C046C04670B5041CFFF750FFB6
:105498001E4E3568E37B012B0DD1A069FFF7AEFAEC
:1054A800012805D0022806D1201CFFF74BFD02E099
:1054B800201CFFF77DFF3268FA23521B9B009A429B
:1054C80009D9201CFFF79EFDE37B012B02D1201C8C
:1054D800FFF702FE3568E368DBB2002BDAD0E36839
:1054E8001B041B0E012B04D0002B02D0022B04D06E
:1054F80008E0201CFFF70AFD04E0201CFFF76AFD06
:10550800002802D100232373C4E770BDB40800202B
:1055180010B50D4BC4B0011C102205A80493FCF76C
:10552800F7FF01A8FEF7A0F801A8FEF711F8041E7E
:1055380004D001A804A9FEF731F8041C01A8FDF75E
:1055480088FF201C44B010BDEFBEADDE30B5C5B03D
:10555800051C01A8FEF788F880220021520004A843
:10556800FDF718F801A804A9FDF78CFF041E0AD05E
:10557800084B049A9A4205D1281C05A91022FCF769
:10558800C7FF00E0002401A8FDF763FF201C45B019
:1055980030BDC046EFBEADDEF7B54368041C0091D0
:1055A8009889D9895A681D689E68B927376011603B
:1055B800106028600121181CFDF777FB009D64210D
:1055C8002802401BFAF732FE6668C1B2301CFDF7AC
:1055D8006CFB60680321FDF768FB60681921FDF723
:1055E80064FB009E2680F7BD30B587B00D1C02A86D
:1055F800FEF7E2F8A8680021FFF7CEFF144CFA2264
:10560800236892009B1822689A42FCD36A460023BA
:1056180013805380A0239B009380B4235B00D38026
:10562800D222E1231202DB0202A86946FEF72AF918
:10563800A8686421FFF7B0FF2368064A9B18226810
:105648009A42FCD302A8FDF704FF07B030BDC0465C
:10565800B40800208813000038B5049D041CFEF728
:10566800F3F90023E3812B88201C23826B88638253
:1056780038BDF0B5161C9A7895B0041C0D1C002A8C
:1056880000D0BAE01B88321CFEF7E4F9A268338820
:1056980056321178071C22799C46BC440B9263460B
:1056A80012AA138070884A226A4413AB10801980AA
:1056B8004E200B99A368684401801A6D54331B88E7
:1056C800281C12A9FEF7DEF8A368E28956331B7876
:1056D800FF18BFB20C97974200D38BE0EB68FC2011
:1056E8005D682368000218401902C90E4009084382
:1056F800F8210B401902031C0B430C983788768855
:105708006B820B96C7192679121ABFB292B21096FD
:105718000997BE180B9F1098013EBFB2B6B20D96FE
:105728003E18013EB6B20F920E97119669686A68E4
:105738006B686E686F68496812689B68B689FF89EC
:105748002A2018600F600E601660099E686831B2E2
:10575800091289B2FDF7A9FA0999FF26314068684C
:10576800FDF7A3FA0D9F686839B2091289B2FDF7EF
:105778009CFA391C31406868FDF797FA68686968CF
:105788006A686B686E684068096892689B89F689E0
:105798002B271760066003600B600B9E686831B2A8
:1057A800091289B2FDF781FA0E99FF26314068681F
:1057B800FDF77BFA119F686839B2091289B2FDF7C3
:1057C80074FA391C31406868FDF76FFA28680D9043
:1057D8004168026883688689C7892C2018600F6031
:1057E8000E6016600F9E109F31B279436A8A0D9839
:1057F800FDF766FA0C9EE6811EE001797388048A3B
:10580800C918438A1A39C918836830881A1C20189D
:1058180012AF5E32127838804A20684401804E24E4
:1058280013A90A806C441A2222809A6D5C331B8863
:10583800281C391CFEF726F815B0F0BD08B5FCF792
:10584800D3FB08BD081C704708B5FCF7CDFB08BDA5
:1058580008B5FCF7D3FB08BD08B5FCF7CFFB08BDBE
:10586800054B00B51A68002A01D1044A1A601A6863
:1058780010181860101C00BD9C080020BC080020EF
:105888000C488546002103E00B4B5B58435004311C
:105898000A480B4B42189A42F6D30A4A02E0002300
:1058A80013600432084B9A42F9D300F011F8FEF75E
:1058B800D7F9FEE7002000204C6400080000002013
:1058C8004408002044080020BC080020FEE700002F
:1058D800254B0122196800B51143196058682349FE
:1058E8000140596018682249014019601868214927
:1058F800014019605868204901405960D96A0F2051
:105908008143D962186B1D4901401963596B914352
:10591800002259639A601A4A112111605A685A6024
:105928005A685A605968174A0A405A605968A0224A
:1059380092030A435A601968802252040A4380215C
:105948001A6089041868084A0842FBD05168032085
:105958008143516051680220014351600C215A680B
:105968000A40082AFBD100BD001002400CB8FFF81D
:10597800FFFFF6FEFFFFFBFFFFFFC0FFACFEFFFFD0
:1059880000200240FF7FC0FF024B00221A805A808D
:105998007047C046A0080020F0B585B001930AAB57
:1059A8001C780BAB1F789023051C0091161CDB0597
:1059B80098420BD0244B98420BD0244B98420BD0E2
:1059C800234B80209D420AD1400309E080208002B9
:1059D80006E08020C00203E08020000300E0C0034E
:1059E800012100F0A5F9009A6B460292019A5A73B8
:1059F800032E0DD8301CFAF7C1FB02040608012358
:105A080004E0002302E0032300E002236A46137344
:105A1800012C04D0002C05D0022C03D004E06A46E7
:105A2800D47301E06B46DC73002F03D0012F04D13F
:105A3800002300E001236A469373281C02A900F0A2
:105A4800E5F805B0F0BDC04600040048000800486D
:105A5800000C0048F0B585B00F1C0AA9061C087890
:105A68000BA909780CAC247800900191301C391CE2
:105A78000394FFF791FF002401252F4204D0A1B21F
:105A8800301C039A00F012F901346D00102CF4D187
:105A980005B0F0BDF8B5061C0D1C0C1C301C0A2105
:105AA800FAF7BAFB30312170301C0A21FAF770FB83
:105AB800671C061E01D03C1CF0E76070781BA542ED
:105AC8000CD222782B78013C53402B7062785340DB
